:020000040800F2
:1000000000A00020CDF5000835F6000835F6000800
:1000100035F6000835F6000835F600080000000047
:1000200000000000000000000000000035F600089D
:1000300035F600080000000035F60008B54A000853
:1000400035F6000835F6000835F6000835F60008E4
:1000500035F6000835F6000835F6000835F60008D4
:1000600035F60008C54A000835F6000835F60008E0
:1000700035F6000835F60008299F000835F6000817
:1000800035F6000835F6000835F6000835F60008A4
:1000900035F6000835F6000835F6000835F6000894
:1000A000498A0008AD8A0008398A00089D8A00083C
:1000B0008D8A00087D8A00086D8A000835F60008E0
:1000C00035F6000835F6000835F6000835F6000864
:1000D00035F60008B18B0008A58B000835F600083E
:1000E000C94A000835F6000835F6000835F600085C
:1000F000698A000835F60008598A000835F60008B4
:1001000000000000000000000000000035F60008BC
:1001100035F6000835F6000835F6000835F6000813
:1001200035F6000835F6000835F6000835F6000803
:1001300035F6000835F60008000000000000000059
:1001400035F6000835F6000835F600080000000016
:10015000000000000000000000000000000000009F
:10016000000000000000000035F6000835F6000829
:1001700035F600080000000000000000000000004C
:080180000000000035F6000844
:1001C0002DE9F04FB1B007F0C3FF18B908F022F9DC
:1001D0000AF084FE07F0E2FFB94BBA4C1A7842F0FD
:1001E00001021A70B84A4FF47001C2F88810002258
:1001F000089209920A92226842F48032226099465B
:10020000236803F400330993089B01330893099B87
:100210001BB9089BB3F5A04FF2D1236813F4003348
:1002200018BF01230993099B012B40F0018302238E
:100230000A93A64B12221A60636863606368636066
:10024000636843F480636360636823F47C136360D2
:10025000636843F4E8136360236843F080732360AA
:1002600023689801FCD5636823F003036360636827
:1002700043F002036360636803F00C03082BFAD1B8
:100280000A9B914DC9F80430914BEB60636A636A35
:10029000DFF884828F4E43F080736362636943F4B6
:1002A000FC030DF1C00B636103238DF8723041F63E
:1002B000FF732BF8503D4FF09040594603F0AEF9D4
:1002C0004FF6FF7359468448ADF8703003F0A6F935
:1002D0005946404603F0A2F95946804803F09EF97A
:1002E00059467F4803F09AF959467E4803F096F93B
:1002F000584608F0D9FF1C9B7B4AB3FBF2F37B4ABC
:10030000DFF818E213607A4B7A4A00271F605F60BB
:10031000794B5A60F02285F8232007229F601A60EB
:10032000764B9B68CEF800300FCE5D460FC50FCEE2
:100330000FC596E80F0085E80F00636943F40023BA
:100340006361636943F400236361636943F40023D9
:100350006361636943F4003363614FF0904310229B
:100360001A8520221A8540221A854FF40043C8F8C6
:1003700018304FF48043C8F818304FF40053C8F8D1
:1003800018303D467646291D5BF80500594408356E
:1003900003F044F9302DF6D1594B5A4A37681A60A8
:1003A000594E5A4B04221A7000212A46304610F04A
:1003B000A1FE0125002114223170317686F8241027
:1003C000357317A810F096FE79035CBF504B1D7073
:1003D00099F80030404D43F0040389F80030E36998
:1003E00043F48043E361236943F4804323616369F9
:1003F00043F4802363616B6A23F470036B626B6A5E
:1004000043F4A0036B626B6A23F070636B626B6AE8
:1004100043F0A0636B626B6A23F070436B626B6A9C
:1004200043F0A0436B622B6A23F470032B622B6AA8
:1004300043F4A0032B626B6A23F470236B626B6A34
:1004400043F4A0236B624FF4604300264FF0030A8D
:100450001C9359464FF0020328468DF8743001274B
:100460008DF875A08DF876608DF877600AF0D4FB72
:100470002023594628464FF480581C9303938DF847
:1004800074708DF875A08DF876608DF877600AF03D
:10049000C3FB59462846CDF870800AF0BDFB22699F
:1004A00042F480422261226922F480422261194A88
:1004B000918821F480510904090C918030E000BF3B
:1004C000D00400200010024000ED00E000200240B7
:1004D0000005FA054813010800040048000C004814
:1004E000001000480014004840420F00C4120020D1
:1004F000681200203F19010010E000E060090020B0
:1005000094150020F60A0020381200203412002032
:10051000DC0700200038004000080048E40E0020FE
:10052000918889B241EA08019180118801F4415112
:1005300041F4437141EA0A011180918821F470610C
:100540000904090C41F4E0619180918B21F4006170
:100550000904090C4FF00703918313821188039B50
:1005600089B241F040011180AB61B44BC5F81880ED
:10057000DFF80883C3F80080636943F48023636174
:10058000E36943F40013E361236B23F01003236357
:10059000236B43F0100323636B6A23F00F036B623A
:1005A0006B6A43F004036B626B6A23F0F0036B62C7
:1005B0006B6A43F040036B624FF002038DF87430B6
:1005C00059464FF4807328461C938DF876608DF859
:1005D00077608DF875A00AF01FFB4FF40073594641
:1005E00028461C930AF018FBD8F8003023F00103CA
:1005F000C8F80030D8F80020914B1340C8F80030FC
:10060000904BC8F81030D8F800303B43C8F80030A1
:10061000C8F80860C8F80C60C8F80860D8F8083056
:1006200043F40043C8F80830D8F80030C8F8003068
:10063000D8F8043023F0784323F40043C8F804309A
:10064000D8F800303B43C8F800307F4BDFF83082E9
:100650001A680493314602F00203404610220393C5
:1006600010F048FD4FF002038DF85130049B0593C4
:10067000039B8DF852604FF6FF7213928DF8536012
:100680008DF850A0002B00F0D68030A9284641F804
:10069000747D0AF0C1FA0C2388F800304FF007038C
:1006A00088F8016088F8033088F802704FF4D87039
:1006B00008F0EAFD6369654843F0805343F00203A4
:1006C000636108F0E1FD636943F0005343F0020306
:1006D00063615F4C20460AF0B6F958460AF088F983
:1006E0004FF480725B4B22924FF480621C932392F2
:1006F000594B1D93202200232046249259464FF443
:1007000000521E932093219325922693ADF87C707E
:100710000AF07BF9236843F0010323604F4CA36880
:1007200023F04053A360A36843F08053A3600A20E2
:1007300004F057F9A36823F08043A360A368A36083
:10074000A36843F00043A360A368002BFCDBA3680D
:10075000434A424E23F04053A360A36843F0005342
:10076000A36091683F4B0B4043F468339360E268A9
:100770003D4B134043F40053E360236B013F23F0F0
:100780000F031F4327630122002408EB0403997819
:1007900041B1551CEDB2DB7818F8041030460AF070
:1007A000DFF92A460434102CEFD12C4B9A6842F022
:1007B00001029A601A68D207FCD5DA682B4C22F045
:1007C0000202DA60DA6842F00202DA60DA6842F0C5
:1007D0000102DA609A6842F004029A60B4F9E830E3
:1007E000002B4FD007EE903ADFED216AB4F9EA30E2
:1007F000204AF8EEE77A07EE103A67EEA67AB4F9E7
:10080000EC30CDED1C7A07EE903AB8EEC77AF8EEF0
:10081000E77A002127EE267A67EEA67A117058460D
:1008200015498DED1D7ACDED1E7A0AF0B5FA31E04D
:1008300001230A9324E5039F38E700BF3C1B0020F7
:10084000FFE0CF007A25E000E40E00200036001023
:100850005804024040040050E014002000040050FE
:1008600000070050E010FCFF07C0FFFD60090020FA
:1008700035FA8E3C96000020F01A0020005400400B
:10088000D0140020B4F9EA20002AABD1B4F9EC204E
:10089000002AA7D1AB4EB4F8F030DFF8F0A20493F1
:1008A000002594F8EF303560102229467560B56058
:1008B000A548039389F8085094F8F77010F01AFCD3
:1008C000A24BA9F809502320CAF80050CAF80450D6
:1008D000CAF808501D6004F084F80BAA01217520A5
:1008E00009F048F8D046F8B1994BCAF80430994B52
:1008F000CAF808300FAA4323012128468AF800309D
:1009000009F038F89DF83C3003F07E038DF83C3058
:10091000002800F09380682B40F09080012389F834
:1009200009301D238AF8003099F809208A4B069374
:100930004FF0000A042A83F800A040F03987824B68
:10094000864A874D1A60874A5A60874ADA602A6861
:10095000079342F0010129604FF0010E40F202209E
:1009600040F2FD1C039B0A2B28BF00230EFA03F163
:1009700011EA000840F0248711EA0C0F00F02087EC
:100980007A4B83F800807A4B336042F00302794B54
:1009900073602A602B689B0701D533689847079BD3
:1009A00004981B68744E98474FF00008C24686F8BA
:1009B00000A01FB1BB1E022B00F284805B46012207
:1009C00000210C208DF8708008F05AFF002879D0A3
:1009D0009DF87030482B75D1684B694A1A60694A96
:1009E0005A60062333702B6843F008032B6094F899
:1009F000E4300BB1069A137094F8E5300BB15B4A02
:100A0000137094F8E63003B1337094F8F820042A98
:100A10005CD9534A136843F004031360D9F80430D7
:100A2000012B02BF99F8083043F0400389F80830E1
:100A300099F80850002D5FD028462DE09DF82C3005
:100A400003F07E03682B8DF82C3035D1022306216C
:100A500089F809305A46D8F80430084698479DF876
:100A600075309DF873209B00520002F0020203F0E3
:100A7000040313439DF8712002F001021343DAB21C
:100A800063B1012A03D1002389F80A304CE7022A16
:100A900001D10123F8E7022003F0ADFFD8F80430BC
:100AA00013AA01210C2098479DF84C3013F00F0336
:100AB000F1D0042BEDD1E6E7702B04BF042389F8B5
:100AC000093031E7012F92D9002770E701239340C5
:100AD00013F0160F06D113F0090F0AD002F08CF9AB
:100AE000002896D199F8083043F0200389F808309F
:100AF00094E7012AF6D08CE799F80030224E43F0B3
:100B0000020389F800304FF4804333854FF40043EB
:100B1000B3611027013F3BD0B38A9BB283F480437B
:100B2000B382B38A9BB283F40043B382B38A9BB28D
:100B300083F40053B382192003F053FF192003F00C
:100B400050FFE7E7A4050020F4150020341B002027
:100B5000759900088D9A000850050020C597000877
:100B6000D0110020F996000890C1793DB005002011
:100B70006D9800083D970008680F0020600F002066
:100B80000D3400084933000800080048241B0020E9
:100B90004FF40043B3614FF48043B361924F4FF47D
:100BA0000053B3613A68100705D5904B1B6898470E
:100BB0008F4B01221A708F4BDFED8F6A1B688F4EAF
:100BC0001A7B8F4B1A808F4B1B8807EE103AB8EEBA
:100BD000C77A8D4BC6EE877A1B22FF2130469FEDE8
:100BE0008B7A67EE877AC3ED007A10F083FA0022E1
:100BF00032703A68864B012112F0020F19703046AC
:100C000004D07170032119700221B170510704D50D
:100C100019784E1C1E700326465412F00A0F40F03D
:100C2000FF85059A1668B20604D51A78511C19700A
:100C3000072181546279082A01D00E2A04D11A783A
:100C4000511C19700B2181541A780C278754511CA0
:100C5000770748BF0232C9B2197042BF1A7010221A
:100C600042541A781227511CC9B28754770519705B
:100C700004D594F8B871002F40F0E185B70504D58C
:100C80001A78511C197015218154F10504D51A7870
:100C9000511C19701A238354982200215D485D4E1F
:100CA000DFF89CB110F026FA012003F0A1FD4FF00F
:100CB0004C0860B3012D2ADC08FB05FA06EB0A0993
:100CC00099F84A7017B10135EDB2F2E7037990F95E
:100CD000000001970BEB8303032200921B6B3A4643
:100CE000012103F027FD039068B105FB08604C2249
:100CF000394610F0FFF9039B46F80A3001231D44E2
:100D000089F84A30EDB2012003F050FDD1E7424BA3
:100D100032681A60414B424A42491A604248DFF841
:100D20002481026000230B808B704049404A0B6095
:100D30004B6040491370B4F846210D68B4F8440183
:100D4000DFF804C13C4F643205F17D010FFA80FEEB
:100D500012B2A3F10806F6B2022EDCF8006098BFCA
:100D600028F8132006F5167688BF28F813E047F810
:100D700023600133122BECD1304E3768FA0458BF90
:100D8000B4F94AE1A8F806E0CD358D421CD00B78C5
:100D900083B98A78CB789A420CDA6AB1013A02EBCD
:100DA000820202EB820202F561734A7804329BB23E
:100DB00028F812300431E8E7013303EB830303EB37
:100DC000830303F56173F0E73B074CD594F83E21AC
:100DD000062A42D8DFE812F03A008C008F00BA00F1
:100DE000D500F000F00000BFD0110020600F0020FF
:100DF000840F00200C1800200AE81C41D5110020A7
:100E00000806002098000020A01A00200000C84218
:100E1000D41100203C06002070120020A8080020F9
:100E2000960A0020B81700207C170020DC1700204D
:100E30002B08002074170020C4080020E40E0020B6
:100E400048130108E80E00204018002045F2F05237
:100E5000774B1A8001F090FF28B908200AF02EF88D
:100E6000744B754A1A603268744B12F4804F04D088
:100E7000122119706F497248086042F20100024263
:100E800002F4005140F0E1841A786E4FDFF800A2BE
:100E9000DFF80092043A5A7003F07CFD6A4B186048
:100EA00063796A4C052B02BF694B4FF4C8721A80F4
:100EB00005F08AFD674B4FF47A721A800023236095
:100EC0003B602368002B40F0ED80232503F062FD9A
:100ED00007F038FD0A2003F084FD013DF6D107F04C
:100EE00003FDDAF800302360D9F800303B60E8E712
:100EF00042F6F822ACE74E4B42F6F8221A80564AE8
:100F00000A23000190FBF3F00023A0F5B06042F843
:100F100023000133122BFAD1464A50491160474A47
:100F20004020137003F064FC002896D001234FF09A
:100F3000070990F900004A4A8DE80802494B402110
:100F400003F0F8FB003018BF012085E7384B42F66C
:100F5000F8221A80374B444A1A60384B10221A7014
:100F6000402003F045FC00283FF477AF01234FF009
:100F7000000C90F900003D4A8DE808104FF4E13371
:100F8000DDE72B4B42F6F8221A802A4B384A1A60CA
:100F90002A4B08221A70402003F02AFC00283FF454
:100FA0005CAF01234FF0000E90F90000314A8DE84C
:100FB00008404FF4E133C2E71D4B2F4F2F4D30480F
:100FC000DFF8D490DFF8D4C0DFF8D4E042F6F8219F
:100FD00019801A4B0C211970062A4FF000033B7040
:100FE0002B7003701BD01B2389F8003005238CF86D
:100FF00000108EF800304FF4E1350E4B214A1A6094
:10100000402003F0F5FB00283FF427AF0123002721
:1010100090F900001C4A8DE888002B468FE72123B9
:1010200089F800308CF800108EF80020174DE4E7A6
:10103000D60600200C000020A55400085C09002002
:101040007D540008281600200C0600202C160020D5
:1010500090150020B8080020D4130020495400083F
:10106000A5560008A0860100355400080156000866
:101070001D540008B95500086213002045140020D3
:101080004414002049530008A954000890D00300DC
:101090003C1800203818002046140020611300205E
:1010A000471400200023DFF8A8A3DFF8A8932360EB
:1010B0003B600F254FF0050B03F06CFC07F042FC82
:1010C0000A2003F08EFCBBF1010BF5D107F00CFCFC
:1010D0002368DAF8002039681A44D9F80030226011
:1010E0000B44013D3B60E5D10F2192FBF1F2226000
:1010F000BF4A93FBF1F33B60137843F0080313708E
:10110000BC4A137823F002031370336840F60202DE
:101110001A4209D0B84BB94A1A60B94B03221A7067
:10112000B84B1D80B84B1D80B84BDFF82CB39B68C3
:101130003360B74BDFF80C934FF001021A709BF845
:1011400000308DF8722063F07F0302278BF80030A7
:10115000B04B8DF873705B69AE4A43F480234FF453
:10116000805A1CAC21464846ADF870A0536102F08D
:1011700055FAC9F818A0282003F033FC3846C9F8FE
:1011800018A003F02EFC3846A9F828A003F029FC8B
:101190003846C9F818A003F024FC002001F0A4FD93
:1011A0005A213A2001F082FD052003F01AFC38464E
:1011B00001F09AFD032001F097FD042001F094FD59
:1011C000052001F091FD062001F08EFD012003F0C5
:1011D00008FC08F05FFC642003F003FC8E4B4FF02A
:1011E00080421A608D4B8E4A1A608E4B8E4A1A606E
:1011F0004FF49663A8F80A3000220323019200936B
:1012000038464FF416534FF4807103F093FA874B2E
:10121000804F1860864BDFF8F4811A7899466ABBD4
:10122000DFF838A29AF800E0BEF1000F26D17B6902
:1012300043F400337B61FB6943F00203FB617D4BA8
:101240000FCB84E80F004FF0904324211A6A22F05C
:1012500070621A621A6A42F000721A622046B8F886
:10126000E030754AB2FBF3F2734692B202F000FA34
:10127000724B18604FF001038AF8003099F8003083
:101280005BBBDFF8D8A19AF801E0BEF1000F24D1D2
:101290007B6943F480237B61FB6943F00103FB61BD
:1012A000674B0FCB84E80F00664B1A6A22F470027A
:1012B0001A621A6A42F400121A622421B8F8E03065
:1012C0005D4AB2FBF3F22046734692B202F0D0F9C7
:1012D0005A4B586001238AF8013099F800305BBB03
:1012E000DFF878A19AF802E0BEF1000F24D17B6903
:1012F00043F480237B61FB6943F00203FB61524BA3
:101300000FCB84E80F004F4B1A6A22F070421A622A
:101310001A6A42F020421A622421B8F8E030464AA4
:10132000B2FBF3F22046734692B202F0A1F9434BAE
:10133000986001238AF8023099F800305BBBDFF82F
:101340001CA19AF803E0BEF1000F24D17B6943F49D
:1013500080237B61BB6943F40053BB613B4B0FCBE4
:1013600084E80F00374B1A6A22F070621A621A6A18
:1013700042F0A0621A622421B8F8E0302E4AB2FB93
:10138000F3F22046734692B202F072F92B4BD8600A
:1013900001238AF803302B4A012389F800301023F7
:1013A00013854FF0904380211985DFF8B490022116
:1013B00011854FF400421A8599E80F000DF12C0AAF
:1013C0008AE80F0009F110030FCB0DF13C0C8CE8FB
:1013D0000F0009F120030FCB0DF14C0E8EE80F002A
:1013E00009F130030FCB84E80F009AE80F0039E0D1
:1013F000690F002088150020CC140020880A0020E6
:10140000200600202206002024060020600900207B
:10141000DC07002000100240AC1A0020A81A0020AF
:10142000ABAAAA3FA41A002026B4973E880F00203A
:101430003C09002098130108005125021C090020D6
:10144000A813010800040048B8130108C8130108D4
:101450003C18002038180020D00400201209002079
:10146000D8130108DFF8A89389E80F009CE80F0063
:1014700009F1100A8AE80F009EE80F0009F1200C1C
:101480008CE80F0094E80F0009F1300E8EE80F0091
:101490004FF4967003F0A5FA00214FF48C72CD48FA
:1014A0000FF028FEFB6943F00703FB61BB6943F4BF
:1014B000A523BB617B6943F4C0237B6109F104016F
:1014C00009F1540ECA464FF00F0C10318E4540F012
:1014D000FB8098F805300E2B40F00F8101238DF82A
:1014E0006630BD4B1A68042D00F010816B1C02EBB6
:1014F000C30111F9061C022940F00681ED00AB1C66
:10150000D31804D01544AB88003318BF01238DF8DD
:1015100061303368C3F340028DF86220C3F3801258
:101520008DF86420C3F340328DF85C20C3F3C032E1
:101530008DF85F2013F4006204D098F83221911ED8
:101540004A424A418DF86020C3F300428DF865207D
:10155000C3F3C0028DF85E20C3F3804203F00100A4
:1015600003F008018DF86320DB04B8F8E02048BFE1
:10157000B8F8DC30B8F8D450ADF86A5048BFADF8D0
:101580006A30B2F5FA7FC4BF0023ADF86A30934BDE
:10159000ADF8682098F882211A700023ABF84C301F
:1015A0009DF866308DF85D00002B0CBF00220222F2
:1015B00000B901B101328A4B8A4E03EB8203D3F8A2
:1015C000D0309D1E03F1060935F8023F4FF6FF7239
:1015D000934240F09D80844BDFF838C2DFF838E258
:1015E00004221A70002505EB0E030FCB05EB0C0649
:1015F0001035402D86E80F00F5D17C4B7C481A68E9
:101600007C4B1E687C4B02F480521D680023002A2C
:1016100000F0CB80B5F9041020F8131001330C2B27
:10162000F5D1022501268DF872608DF873507B6923
:10163000DFF8E8814FF0100943F48023ADF8709093
:1016400021467B61404601F0E9FFA8F828908DF81B
:1016500072608DF873507B694FF090494FF0800AAB
:1016600043F40033ADF870A021467B614FF0904009
:1016700001F0D4FFC9F818A08DF872608DF873508E
:101680007B69ADF8705043F480237B61214640466E
:1016900001F0C4FFA8F828508DF872608DF87350DF
:1016A0007B694FF4004843F40033ADF87080214665
:1016B0007B61484601F0B2FFC9F818801E2003F094
:1016C00090F931B0BDE8F08F11F8063C11F8050C27
:1016D0004FEAD30903F0070251F8103C03EB8903EA
:1016E0009200D3F8209090400CFA02F229EA02020C
:1016F0001A621A6A10431862E7E603F0EF03082B38
:101700003FF4ECAE0023EAE61D46ECE60023FEE6DD
:101710009DF86220D8B21B0A4AB10BEB0012DFF829
:10172000FCE01169714502D1928A012A0AD0022B8C
:1017300008D0012B0AEB001008D19DF85D300BB1E9
:1017400002F0ACF84D457FF43FAF44E7032BF9D1ED
:101750009DF863309BF84D804BB100234FF6FF722C
:10176000082101F085FF254B46F8280010E0BDF860
:101770006820BDF86A30B2F5FA7F10DD2049B1FB70
:10178000F2F2242192B201F073FF1E4B46F82800BA
:10179000C3609BF84D3001338BF84D30D2E71A49C6
:1017A000B1FBF2F2012192B2DBE7B6F9041033E7A4
:1017B00099F8083043F0020389F80830FFF725B99B
:1017C0000021012B03913FF6CDA8104B83F800A018
:1017D000FFF7E0B85018002094150020CC1100202D
:1017E00048130108F80F0020CA120020E40E002060
:1017F0003E090020F0170020EC17002011330008EC
:10180000005125022533000840420F00B00500209A
:10181000DC0400201C0700202814010800040048F4
:101820001A7804218154511CC9B205264654D11C92
:101830000232D2B2197006218154FFF7F2B9023296
:101840001A7013224254FFF719BA0A4844F6206569
:10185000058021B108211970074908480860D007A0
:101860007FF512AB0C221A70034A05491160FFF78D
:101870000BBB00BFD60600200C00002099540008C6
:101880008D540008A9490A682DE9F04F02F59C43E0
:10189000A74C20332360A74B8BB01D780591002DFA
:1018A0003AD1A54FDFF8A082DFF8CCA297F80090DC
:1018B000E9B249450E4680F2A4800729D8BFD8F87E
:1018C00000303846D8BF595CDAF800309847032E0C
:1018D0001DDCD8F8003006F10F0B03EB8B0133F859
:1018E0002B204B8898B1811A4FF47A709B1A484389
:1018F00090FBF3F040F2EE2300F57A709842B8BF07
:10190000184640F6CA039842A8BF184680B204EBB6
:1019100046060135B080C9E7884909688A4201D97D
:10192000013D1D70864B00931A6812F4805F05D04C
:10193000844B1B68DD0701D409F004FD059B196881
:10194000814B1A68937A002B00F03481013B7F4869
:10195000127B30F913301AB1C3F53B6308331BB265
:10196000A3F57A73B3F57A7FA8BF4FF47A7323EAAD
:10197000E37307EE903ADFED766AF8EEE77A87EEEA
:10198000A67A744ADFED747A67EE277AFCEEE77A7E
:1019900017EE903A1380009BDFF8E0911B6813F478
:1019A000807F00F054816D4B6D4D994203D9AB7827
:1019B000002B00F04B87AB78002B00F04881614F83
:1019C00095F821603B6899F800B00297012E03F06A
:1019D0008063DFF894A1634F01930BF0040B14BFF5
:1019E0004FF003084FF0000895F82010052900F289
:1019F0002881DFE811F01B0193019901BC01D4019A
:101A0000F1014F4B1A68584B029342F201011868DA
:101A100000900A40039206D094F8293084F82830C8
:101A2000524B5A781A7094F828601EB14F4B1E78AA
:101A300086F001060F2384F82A30434B94F82BA03C
:101A40001B6801930323BAFBF3F303EB4303AAEBF5
:101A50000303DBB25B000493009B454FDFF8ECB05F
:101A600003F51673002507F1C002069307F172080B
:101A70004D4542DA690086B137F91500019B9B8A12
:101A800080B29842C0F2CA86019BDB8A984200F37A
:101A9000C586069B42F8253003E03046EEE73BF86A
:101AA0000100039B1BB92BF815000135E0E7314B12
:101AB000062101FB053E049B2EF8030094F87430C8
:101AC00033B9BAF1020FEEDD4FF0010384F8743040
:101AD0004FF0000128F815106B0000203EF81010A0
:101AE00033F808C001306144032823F80810F5D109
:101AF0000BB293FBF0F080B2D5E794F82A300F2BAD
:101B0000174B3DD10F4A1268560139D4029AD96851
:101B100012689A60521AC82A02D9012283F8212039
:101B200094F82B30013384F82B30FBE64C0F002067
:101B300000080020801500205C0900207C15002092
:101B4000E40E0020D41A00207C170020E80E0020AC
:101B500000007A442C12002000C07F44404B4C000F
:101B6000B8170020B4170020401800200A000020F9
:101B7000040800202C0800200C00002088150020FC
:101B8000B84AB94E012151701170029A99681268D1
:101B9000DA60521A59688A4284BF002283F82120F1
:101BA00000254D45BCDAE8B203F0BCFE26F815006E
:101BB0000135F6E70098006800047FF5ECAED4F834
:101BC0009000081A0028FFF6E6AE01F59C40203090
:101BD000C4F89000A548D27A4579A548A54E30F8BA
:101BE000150080B290FBF2F094F89420013202F0DC
:101BF0000F0284F89420224482F8950018461A4671
:101C0000855D01302A44102812B2F9D192FBF0F21E
:101C100012B2002A03DB642A1346A8BF642307EE2E
:101C2000903ADFED956AF8EEE77AA8E6BBF1000F8F
:101C300068D0012E05D0052009F018F98F4B02223B
:101C40001A70B8F1000F02D0404602F061FE8C4DD0
:101C5000B5F8DE0001F0BAF9AA46064618B904F054
:101C60009BFE04F089FE99F800305B0708D5009BC5
:101C70001B68DF0604D5834B1B78DD0640F1F28537
:101C800000239AF88C819AF88D11BAF84671BAF847
:101C900048E175481A4630F912509B08BD42C4BF4E
:101CA00063F07F03DBB201327545B8BF43F04003F8
:101CB000042AF0D194F8B1209A4240F0C18094F8FF
:101CC000B220F92A02DC013284F8B2206E4F84F887
:101CD000B1303B786D4D002B40F0E9802B68D80780
:101CE00040F1DC80002E40F0AD8099F80030DA073A
:101CF00040F1DD805B0702D4012384F8B33009F0A2
:101D0000D5FAD4E0019B4FF4806023B109F0C8F804
:101D100000232B6195E709F0B3F8F9E7012E7FF472
:101D200063AE052100F09ABD012E04BF052185F8A0
:101D30002010BBF1000F0CD0D4F8A810B1F90E00A0
:101D4000494908804880888038684088C8804FF0BA
:101D50000208DAF8000069698142C0F07B85BBF1B6
:101D6000000F00F07785012E3FF43EAE69E799F849
:101D7000001041F0020189F8001009F0E3FADAF8E6
:101D80000000E9690144A961042185F820104FF49D
:101D9000806009F075F8052009F05CF824E6012E52
:101DA00014D1DAF80000A9698142BFF44AAF364B7A
:101DB000197821B9029B1968CA073FF542AF99F813
:101DC000001021F0020189F80010AAE7DAF80020DB
:101DD000EB691344AB6134E73868DAF80030C18846
:101DE000642000FB01312961002185F82010E97091
:101DF000CDE79AF88E317EB9002B00F03B85244B5D
:101E00001A68D4F8AC309B1A002B80F2338509F0A5
:101E100099FA84F8B06033E73BB11D4A12684FF479
:101E20007A7101FB0323C4F8AC3094F8B030002B76
:101E30003FF426AF02F062FD002384F8B0301FE7C4
:101E4000002241E7D4F8B4300A2B30DC114B1B8858
:101E50005E072CD4104B1B784BBB04F09DFD04F0A7
:101E60008BFD4CE70A000020E80E0020D014002073
:101E7000E0140020950800200000C8428E150020C4
:101E800060090020690F002010000020D41A0020F3
:101E900040180020441F00208D15002099F80030C4
:101EA000580704D594F82830002B40F0E98494F8C2
:101EB000B2309B4E142B2ED13B78C3B194F8B13085
:101EC0005F2B06D199F8003013F0040B6DD009F0A8
:101ED00039FAB8F1000F0AD094F8B1307D2B06D151
:101EE00099F8003013F0040B65D009F02BFA99F83B
:101EF000003013F004020ED194F8B130572B60D1AA
:101F00004FF47A73A4F8B830864B1B6813F00803BB
:101F100001D1854A1380009B1B68580726D594F889
:101F2000BC309BB199F8003059070FD57F4BB3F9FE
:101F30000620BAF846319A4208DD2B6813F00103F7
:101F400002BF3222A4F8BE2084F8BC302B68DA032A
:101F500040F1A28094F8C0302BB994F8BA3013B98C
:101F60003223A4F8BE30012384F8C0303668002341
:101F70002B6006F17F0706F1CF084FF0010BB84543
:101F800000F09A803A787B789A420CDA394617F852
:101F9000010C02F08FFC30B117F8023C2A680BFAF2
:101FA00003F313432B600437E9E70B2002F0B0FC86
:101FB00084F8B2B08DE70B2002F0AAFC84F8B2B02E
:101FC00095E700990968490740F162845A2B40F06F
:101FD0005F8494F8BA302BB1012384F8BA2084F8D6
:101FE000BB3098E794F8BC3083F0010384F8BC3030
:101FF0001BB10C2002F08CFC8DE70D20FAE75B2B67
:1020000000F04B845E2B40F05684032000F046BC69
:10201000B8F1000F02D07E2B00F05A8494F8B13052
:10202000972B04D1424B4FF4C8721A8073E7A72B49
:1020300005D1404A137843F0040313706BE7002284
:10204000BB2B099217D10223ADF826303368BDF8B7
:102050002410B3F85C200A44A3F85C20BDF82610D5
:10206000B3F85E200A44A3F85E2008F0CFFF0023F7
:1020700084F8B2304FE7B72B02D14FF6FE73E3E797
:10208000BE2B03D10223ADF82430DFE7BD2B7FF454
:1020900042AF4FF6FE73F6E794F8BA30002B3FF4E8
:1020A00065AF99F8003013F0040302BF84F8BA302A
:1020B000012384F8BB3059E71F4F06F1CD054FF0DF
:1020C0000C0806F215164FF0010BB54238D06A78AD
:1020D000AB789A4221DA691C287802F0EBFBE0B178
:1020E0006979EB78154A95F804C008FB01FE013BBD
:1020F00007EB0E0003EB43031344426893420CD0FA
:1021000043600023836094F8C13007F80EC00BFAD7
:1021100001F123EA010184F8C1100635D5E700BFBB
:1021200074170020D01100201C120020E80E00209F
:1021300090150020690F00208017002096140108D8
:10214000C84AC94994F82830D2F800800F68C74DB2
:10215000019300260292042E00F0C08269680029D3
:1021600062D00A78002A5FD0A868381A00280BDBF2
:1021700007F5FA70A860012000FA06FE94F8C10085
:1021800020EA0E0084F8C100019B002B4CD0287877
:102190004B780430C0B2002B40F06982B44B33F965
:1021A00010E0BAF8440100F1C80CE64528DD91F8CA
:1021B00002B094F8C1103141CB0735D4BBF1000F08
:1021C000CCBF02200120039202F0C8FB039A511EEB
:1021D00013293BD8DFE811F02B0042004F006100CB
:1021E0007A008200E5005601BA01EB011A023A00BA
:1021F00061006D008200E5005601DC003C01B10188
:10220000C838864504DA91F802B0CBF1000BD0E76C
:10221000012202FA06F194F8C12022EA010284F8B0
:10222000C12007F5FA72AA6001360C3593E798F8D9
:1022300000209344BBF1FA0FA8BF4FF0FA0B2BEA32
:10224000EB7B88F800B0404602F018FB94F8C11010
:102250000122B2400A4384F8C120E5E798F8012042
:102260009344BBF1640FA8BF4FF0640B2BEAEB7BE8
:1022700088F801B0E7E798F803209344BBF1640FB6
:10228000A8BF4FF0640B2BEAEB7B7A4A88F803B0C7
:102290001168404602F0B2FAD8E798F805105944A0
:1022A0006429A8BF642121EAE1710D2A88F805108C
:1022B000CCD098F804209344BBF1640FA8BF4FF032
:1022C000640B2BEAEB7B88F804B0BFE798F8062094
:1022D00093448BF3080B88F806B0B7E766490968A2
:1022E000087802283DD107EE90BAF8EEE76AB2EE20
:1022F000047AC6EE877A91ED0A7A77EE877AF5EE60
:10230000C07AF1EE10FA29D49FED5C7AF4EE477AA8
:10231000F1EE10FAC8BFF0EE477A0F2AC1ED0A7A43
:1023200094D007EE90BAF8EEE76AB2EE047AC6EE01
:10233000877A91ED097A77EE877AF5EEC07AF1EE39
:1023400010FA2BD49FED4D7AF4EE477AF1EE10FAA5
:10235000C8BFF0EE477AC1ED097A77E7DFED487A3A
:10236000DBE788785844C828A8BFC82020EAE07076
:102370000F2A88703FF46AAF4A789344BBF1C80FC4
:10238000A8BF4FF0C80B2BEAEB7B81F801B05DE7EB
:10239000394A11680A78022AC3D0EDE7DFED387AAE
:1023A000D9E735490968087802283AD107EE90BA8A
:1023B0009FED327AF8EEE76AC6EE877AD1ED0D6AC4
:1023C00077EEA67AF5EEC07AF1EE10FA26D4F4EEA6
:1023D000477AF1EE10FAC8BFF0EE477A102AC1ED45
:1023E0000D7A3FF433AF07EE90BA9FED247AF8EE02
:1023F000E76AC6EE877AD1ED0C6A77EEA67AF5EE3B
:10240000C07AF1EE10FA29D4F4EE477AF1EE10FA20
:10241000C8BFF0EE477AC1ED0C7A17E7DFED187A06
:10242000DCE7487B5844C828A8BFC82020EAE070F1
:10243000102A48733FF40AAF0A7B9344BBF1C80FDC
:10244000A8BF4FF0C80B2BEAEB7B81F80CB0FDE680
:10245000094A11680A78022AC5D0EDE7DFED087A4B
:10246000D9E700BF60170020401800208017002027
:10247000E80E0020DC0E0020E00E00200000C84224
:1024800000000000C0490968087802283ED107EE24
:1024900090BA9FEDBE7AF8EEE76AC6EE877A91EDC4
:1024A000107A77EE877AF5EEC07AF1EE10FA2AD438
:1024B0009FEDB77AF4EE477AF1EE10FAC8BFF0EE6E
:1024C000477A112AC1ED107A3FF4C0AE07EE90BAF8
:1024D0009FEDAE7AF8EEE76AC6EE877A91ED0F7A55
:1024E00077EE877AF5EEC07AF1EE10FA2BD49FEDF5
:1024F000A87AF4EE477AF1EE10FAC8BFF0EE477A08
:10250000C1ED0F7AA2E6DFEDA37ADAE7087E584440
:10251000C828A8BFC82020EAE070112A08763FF436
:1025200095AECA7D9344BBF1C80FA8BF4FF0C80B4E
:102530002BEAEB7B81F817B088E6934A11680A789A
:10254000022AC3D0EDE7DFED937AD9E78E4A11680E
:102550000A78022A1FD107EE90BAF8EEE76AB2EEC7
:10256000047AC6EE877A91ED0B7A77EE877AF5EEEC
:10257000C07AF1EE10FA0BD49FED857AF4EE477A2B
:10258000F1EE10FAC8BFF0EE477AC1ED0B7A5DE6C6
:10259000DFED807AF9E7CA789344BBF1C80FA8BF92
:1025A0004FF0C80B2BEAEB7B81F803B04EE6764A7E
:1025B00011680A78022A1DD107EE90BA9FED747A4D
:1025C000F8EEE76AC6EE877AD1ED0E6A77EEA67A64
:1025D000F5EEC07AF1EE10FA09D4F4EE477AF1EE96
:1025E00010FAC8BFF0EE477AC1ED0E7A2EE6DFEDA5
:1025F000697AF9E78A7B9344BBF1C80FA8BF4FF013
:10260000C80B2BEAEB7B81F80EB01FE65E4A11681F
:102610000A78022A1FD107EE90BA9FED5C7AF8EE95
:10262000E76AC6EE877A91ED117A77EE877AF5EE52
:10263000C07AF1EE10FA0BD49FED557AF4EE477A9A
:10264000F1EE10FAC8BFF0EE477AC1ED117AFDE560
:10265000DFED507AF9E74A7E9344BBF1C80FA8BF7B
:102660004FF0C80B2BEAEB7B81F819B0EEE5012B9C
:102670007FF4ECAD0C2A7FF4E9AD474B897833F950
:1026800010B0464B40F633008345A8BF8346BBF5E8
:10269000617FB8BF4FF4617B4FF4966090FBF1F01F
:1026A0001978ABF5617B9BFBF0FB5FFA8BFB59451F
:1026B0003FF4CCADBBF1030FD4BF594602211970D2
:1026C00002FB01A2029B02F22A521A6005F01BFDD6
:1026D0000BF10100C0B202F041F9B7E5304D314EC7
:1026E0002B6813F0020F06D1009B1B68DF0506D58F
:1026F0002D4BDB781BB13368980700F1ED8001208A
:1027000008F0BEFB012704E004F046F9012008F0C0
:10271000C7FB2A68510732D58FB3012008F0B0FB00
:10272000224B1B889A0704D404F036F9022008F0E3
:10273000B7FB99F800305B0708D41C4B1B8803F0EB
:1027400044031BB11A4B1A881A4B1A80336813F0D2
:102750000A0F40F0C9802B681A054FF480705AD5D3
:1027600008F09EFB9AF80530082B02D00E2B40F0A3
:10277000C38040200BB0BDE8F04F08F081BB0220C1
:1027800008F07EFBD5E700BFE00E002000007A4491
:102790000000C84200000000E80E0020781700206A
:1027A000D41A0020D0110020B8170020461F0020A6
:1027B0001C1200208A150020514B1B885F0706D48D
:1027C000042008F06DFB4F4B1A884F4B1A802B6882
:1027D0009E061CD54A4B1B88580602D4402008F0A0
:1027E0005FFB2B68590641BF464A1188474A118052
:1027F00013F0080308D094F8C230002BABD1414B42
:102800001A88424B1A80012384F8C230A3E7402083
:1028100008F036FBE5E708F033FBA3E752F8253074
:10282000009883423FF63BA9E8B2079203F07AF89A
:10283000032D079A3FF735A994F82A100123AB40DE
:1028400021EA030384F82A30FFF72BB90123AB7088
:10285000FFF7B1B842F21071E961032185F8201049
:10286000FFF7C2B82A4B1B78002B7FF4C2AA002EB8
:102870007FF4DBAA102002F04BF80123FFF7DDBA4A
:1028800011B9002E7FF413AB08F05CFDFFF70FBB0E
:102890005D2B7FF4B4AB012000E00220C7B27B1EA9
:1028A0008AF8283508F01AFB05F078FC384602F063
:1028B00055F8FFF730BB562B01D108F0A7FB3B784A
:1028C000002B3FF4ABAB94F8B1306F2B7FF4A0AB8F
:1028D00008F0ECFCFFF71FBB094B1B8813F0010746
:1028E0003FF412AF002714E72B68DB063FF564AF17
:1028F000042008F0C5FA6AE70BB0BDE8F08F00BF0E
:10290000461F00201C1200208A1500205C000020B9
:1029100010000020104A40F2E933118989070AD5D6
:102920000E4A0D49107040F2E9330889C0070DD5F1
:102930001078C0B27047013B9BB2002BEDD1084A22
:10294000138801339BB21380FF207047013B9BB279
:10295000002BEAD1F3E700BF003800400C380040FC
:10296000100900200C4B10B5DB6802780B48DB43E4
:10297000C3F302230121C3F1040301FA03F3841812
:102980001B01DBB284F80033530902F01F0201FA85
:1029900002F240F8232010BD00ED00E000E100E06D
:1029A000B1F5FA6FA8BF4FF4FA61B1F57A7FB8BFFD
:1029B0004FF47A710BB2072840D8DFE800F0041812
:1029C000222C36404A542F4A907858B1D3681A685E
:1029D000A1F57A70198941434FF47A7391FBF3F1B1
:1029E0001160704792F82C1041B3D3857047254A87
:1029F000D07808B11369EAE792F82C10F1B1138688
:102A00007047204A107908B15369E0E792F82C101A
:102A1000A1B1538670471B4A507908B19369D6E734
:102A200092F82C1051B1938608E0164A907908B1BB
:102A3000D369CCE792F82C100029D6D07047114A00
:102A4000D07908B1136AC2E792F82C100029F5D1A9
:102A5000D5E70C4A107A08B1536AB8E792F82C10FF
:102A60000029EBD1D5E7074A507A30B1936A1A684A
:102A70001B89A1F57A715943AEE792F82C10002911
:102A8000D1D0DBE7100900202DE9F3474FF0000A11
:102A900088461646FF210122054699469DF8287072
:102AA0008DF807A007F08EFD524604465146284691
:102AB00007F088FD52460443FF21284607F082FDB7
:102AC00064B2044364B2B9F1000F06D04246CB2190
:102AD000284607F038FD044364B23FB10DF1070208
:102AE000EE21284607F02FFD044364B20122FF21A6
:102AF000284607F067FD012204430021284607F01D
:102B000061FD64B204430022FF21284607F05AFD0C
:102B100064B29DF80730204323F0100340B23370B5
:102B200002B0BDE8F08773B50646002501220B21EF
:102B3000304607F047FD002204460B21304607F0DF
:102B400041FD0DF1070204431321304607F0FBFC61
:102B50009DF8073064B2204301355B0740B2EDB207
:102B600005D0032D08D00028E0D002B070BD032DA1
:102B700008BF6FF00B00F8E76FF00B00F5E7084BAC
:102B80004FF47A72594301F5FA714FF4FA63B1FBCD
:102B9000F3F3B1FBF2F102FB0030B0FBF1F0704750
:102BA000002F3A00F0B54FF0FF33CF08136001F06B
:102BB00007014FEAC70E3D460026052D00D806B195
:102BC000F0BD445DAF4203BF0C41E4B20B46334657
:102BD00014F0010F06D073441360012601350EF185
:102BE000080EEAE70133082B4FEA5404F0D1F5E769
:102BF0002DE9F04F87B00DF11808109D48F80C5DD5
:102C0000294F1C4681468A46934600260123119A85
:102C1000964221D10026129B1D60CEB9214648461E
:102C200008F0FEF9064698B904AD2B460622B021FD
:102C300099F85C0106F024FE002808BF6FF0130627
:102C40000023E15CEA5C91422AD10133062BF8D1E2
:102C5000304607B0BDE8F08F4246294658460193FA
:102C6000FFF7A0FF039A531C17D002F1B4018909A2
:102C700057F82110003118BF012151450DD1D1085D
:102C8000019B02F0070005299FBF03FA00F5605C75
:102C900028436054551C0136B9E76FF03106BAE796
:102CA0006FF03106D4E700BFD4140108F8B50D4C1D
:102CB00020250746258532200E4601F087FE47F085
:102CC0008000FFF727FE322001F080FE3046FFF73C
:102CD00021FE322001F07AFEA561C82001F076FEC7
:102CE0000120F8BD000400481F4B202210B51A85B2
:102CF0000446322001F06AFE04F07F00FFF70AFE6E
:102D0000322001F063FE194A4FF6FF7193894FF4A8
:102D10007A73148914F002040CD0154A1348FF2169
:102D200011704FF6FF71048914F0010416D0147865
:102D3000E4B208E0013B9BB28B42EAD10D4A138812
:102D400001339BB21380322001F040FE064B20225B
:102D50009A61C82001F03AFE204610BD013B9BB2AB
:102D60008B42E0D1EAE700BF000400480038004091
:102D70000C3800401009002007B51B4B03F14C0232
:102D80009A6493F88E212AB3012A0AD1032183F889
:102D9000A015072183F8A22583F8A1150C2283F83A
:102DA0004C20124B124A1A60402001F021FD70B1F4
:102DB0000122002390F9000040218DE80C004FF41F
:102DC000E1330C4A01F0B6FC003018BF012003B01B
:102DD0005DF804FB022183F8A015032183F8A225E6
:102DE00083F8A1150722DAE7100900200C00002063
:102DF000F153000871550008F7B50A2001F0F1FD04
:102E00000DF103030122A021772006F039FD10B94E
:102E1000002003B0F0BD01221E21772006F02CFE19
:102E20004FF42F60304C01F0D1FD00252E4604F206
:102E3000A457A5F1600101AB0222C9B277208DF839
:102E400004608DF8056006F01BFD9DF804209DF8D8
:102E5000053043EA0223EB530235102DE9D1B4F8D3
:102E6000B225002302F00F0602F47F42A4F8B22537
:102E70000125194621F001002044B0F8A4050028DE
:102E800018BF0025CF0746BFC0B2434083EA1023D6
:102E900008201F0448BF83F4C05301384FEA43039E
:102EA000F7D101311029E5D13243A4F8B225002D24
:102EB000AED1C3F303339E42AAD142F21073A4F8F9
:102EC000B435A4F8B635094BC4F8B835084BC4F886
:102ED000BC35084BC4F8C035074BC4F8C435074BA4
:102EE000C4F8C835012094E710090020D1800008FB
:102EF00005810008C780000803810008A17E000842
:102F00000D4B03F59072C3F8CC25C3F8D01500F132
:102F10005003984207D002781AB98178C27891425A
:102F200007DB0430F5E70023044A83F00103137143
:102F300070470123F8E700BF100900200C000020B3
:102F400070B5222200211248124E0EF0D3F8002252
:102F5000114B052101241046042A03F108030CD06B
:102F6000955D03F8085C03F8041C03F8034C03F8B0
:102F7000010C03F8021C0132EEE7084B0122A3F812
:102F8000EA210222A3F8F221522283F8E62170BD41
:102F9000F60A0020E4140108F80A002010090020B5
:102FA00010B507F0C9FD4FF43024012806D10CB943
:102FB000052010BD07F0C0FD013CF6E7002C08BF5E
:102FC000052010BD0021012000F088BD0B4AD2F879
:102FD000D43513F4805FB2F9DE350AD0B2F894210B
:102FE000111A8B4208DD10448342B4BF0020012037
:102FF0007047B2F89601F7E70120704710090020EA
:10300000164B1946002241F80C2F4A608A60194677
:103010001A6041F8182F5A609A604A608A6019460F
:10302000303393ED000A41F8242FB4EE400AF1EE5C
:1030300010FA4A608A6006D693ED021AB4EE411A7D
:10304000F1EE10FA07D79FED061AF0EE410AB0EE46
:10305000410A04F049BDD3ED010AFAE7100F002040
:10306000000000002DE9F041624CD4F83C36D4F861
:1030700040269A1A002AC0F2848003F5C332A03297
:10308000C4F8443604F5C960D4F85436C4F8402670
:10309000984704F5C96194F85826084606F07CFA6A
:1030A00094F8592612F0040F04F5C9601CD0D4F826
:1030B0004036C4F85C36002384F8603604F5A87501
:1030C0009E4604F2626704F5CD6630F9131027F8C6
:1030D000131026F813100133032B25F802EFF4D157
:1030E00022F0040284F85926D4F85C26DAB1D4F828
:1030F000403641499B1A414A934201F106064FF07E
:10310000000340D830F9132031F913705D00974265
:10311000775FC8BF21F81320974203F10103B8BFBE
:103120007253032BEED194F8743653B3B4F84A06B5
:10313000B4F85421B4F84C36B4F85211801AB4F8EB
:103140005A2112FB00F210B2B4F856219A1AB4F8C0
:103150005C3113FB02F3B4F84826511AB4F8582135
:1031600012FB01F21BB20A2112B293FBF1F392FBA4
:10317000F1F2A4F84C36A4F8482690FBF1F2A4F83A
:103180004A26BDE8F08101F10C07C4F85C36A1F2D3
:10319000125C4FF00208384631F913E036F913207B
:1031A0000EEB0205A2EB0E0202EB820227F81320BF
:1031B00095FBF8F50133032B2CF8025FECD1B4F941
:1031C0007026B4F96E360E4E1344B4F972260A21F5
:1031D000134459430022B518835E0232062A03EBDA
:1031E000430391FBF3F3A5F80831F4D107F00EFF88
:1031F00099E700BF10090020720F00207FC3C901AA
:103200006009002013B5144601AB042290F85C015C
:1032100006F036FB019B00281BBA0CBF6FF01300B1
:103220000020236002B010BD024A136C01330B442E
:1032300013647047940F0020324A136C906819444D
:10324000081A40F68C23984270B513469160D060FE
:1032500051603BD9117892F94520914221D10A1F42
:10326000082A1ED893F84620182A03DC013283F876
:10327000462001E083F8441093F9442091421DD187
:1032800093F84700D0B1204C002004F13C05824265
:1032900009DC1E4800240B2A0BDC20F81240013206
:1032A000F9E70022E3E754F8046F25F810600130D5
:1032B000EDE793F86020013283F86020012283F863
:1032C0004720002283F845101A7070BD92F847100D
:1032D000B9B1A0F2EF2440F2DA518C4208D811784B
:1032E0000B2905DC0B1D0131117042F8230070BD64
:1032F000002283F84720104699180432302A0861CA
:10330000FAD170BD940F0020A00F0020DC0F002028
:10331000034B03EB8000436E1B681960704700BFCE
:10332000940F0020074B03EB8000436EA1F57A70E9
:103330001A6819894FF47A73414391FBF3F11160D4
:10334000704700BF940F002013B5012204466B465E
:1033500002210C2006F094FA10B9002002B010BD32
:103360009DF80030DA07F8D56B46072203210C20C0
:1033700006F086FA0028F0D09DF806309B07ECD1C5
:103380009DF801209DF800309DF8031043EA0223C8
:103390001BB21D4A07EE903A92ED007AF8EEE77AFA
:1033A0000C2067EE877A92ED017AFDEEE77A17EE50
:1033B000903A23809DF8023043EA01231BB207EEC6
:1033C000903AF8EEE77A9DF8051067EE877A92ED6D
:1033D000027AFDEEE77A012217EE903A63809DF8BB
:1033E000043043EA01231BB207EE903AF8EEE77A85
:1033F0000A2167EE877AFDEEE77A17EE903AA3800E
:1034000006F03AFBAAE700BF1400002007B500222F
:103410000A210C2006F030FB142001F0E2FA0F2202
:103420000A210C2006F028FB0A2001F0DAFA01AB91
:10343000032210210C2006F023FA0A2001F0D1FA11
:103440009DF904209FED295ADFED295A294B06EEFC
:10345000902AF8EEE66AF7EE007A76EEC56A9DF9F4
:103460000520B0EE677AA6EEA57A0A210C2006EEBA
:10347000902AB3EE0E6AF8EEE66A27EE067A76EE4A
:10348000C56A83ED007AB0EE677AA6EEA57A9DF95B
:10349000062027EE067A83ED017A07EE102AB8EEB1
:1034A000C77A002237EE457AE7EE257A67EE867A0C
:1034B000C3ED027A06F0E0FA0A2001F092FA0DF16B
:1034C0000303012202210C2006F0DAF90DF10303B7
:1034D000012209210C2006F0D3F901220A210C2037
:1034E00006F0CAFA012003B05DF804FB00000043B7
:1034F0000000803B14000020F0B5046D866823684E
:1035000023F0010323608379054613F0020F40790D
:1035100014BF4FF40052002213F0040F14BF4FF4F5
:103520008067002710F0010F14BF042100218307DA
:10353000206820F001002060606820F4405042EADA
:1035400000026260236823F4B05323F00C0348BFE9
:1035500041F008013B430B432360A36895B023F47B
:103560004073A360684605F09FFE284B9C4239D10A
:103570000C9A23681F0448BF5200B2FBF6F306FB07
:103580001322B2EB560F226828BF0133160406D56A
:10359000C3F3420223F00F031B041B0C13439BB223
:1035A000A3816B79A87913F0020F0CBF00224FF4AE
:1035B000003200F00101DC0748BF42F480322B6D7D
:1035C00001B359680A435A609A6801074CBF42F038
:1035D000080222F008029A601A6842F001021A609A
:1035E00015B0F0BD0A4B9C4201D10D9AC1E7094BC1
:1035F0009C4201D10E9ABCE7074B9C420CBF0F9A2C
:10360000109AB6E7596821EA0202DCE70038014067
:103610000044004000480040004C0040F7B506461A
:103620000D46002401272A8807FA04F31A421AD00B
:10363000AA78009302F003038DF80430EB78022B94
:1036400003D0032B0CBF032301238DF805306946FB
:10365000C2F301133046C2F381028DF806308DF8B3
:10366000072007F0D9FA0134102CDCD103B0F0BDEB
:103670002DE9F743DFF81C9299F894400746154668
:1036800000680A4698462946631C89F8943005F07C
:103690000FFA3B89ADF8043001A9022378688DF850
:1036A00006308DF80730FFF7B9FF97F80AE03A685F
:1036B00009F1980606EB04164946BEF10C0F36D800
:1036C000DFE80EF007353535573535358235353578
:1036D000AC00136ADFF8C09123F001031362136A90
:1036E000D2F804C0906920F4803020F073004A457D
:1036F00040F0700034D009F500694A4530D009F532
:1037000040694A452CD009F580694A4528D009F519
:1037100080694A4524D043F00303C2F804C0906195
:10372000C2F834801362936943F0080393613B7BD2
:103730001BB1536C43F40043536413889BB243F0B2
:10374000010313802301BEF10C0F00F28E80DFE82D
:103750000EF0878C8C8C958C8C8C998C8C8C9D002D
:1037600023F00E032CF4407C43F003034CF4807CE4
:10377000D3E7136ADFF8209123F010031362136A72
:10378000D2F804C0906920F0807020F4E6404A45E9
:1037900040F4E0400FD009F500694A450BD043F0F2
:1037A0003003C2F804C09061C2F838801362936994
:1037B00043F40063BAE723F0E0032CF4406C43F0D9
:1037C00030034CF4806CECE7136ADFF8CC9023F400
:1037D00080731362106AD2F804C0D3694A4523F09B
:1037E000730343F0700310D009F500694A450CD00B
:1037F00040F44070C2F804C0D361C2F83C8010624B
:10380000D36943F00803D36191E720F460602CF49E
:10381000405C40F440704CF4805CEBE7136ADFF8E6
:10382000789023F480531362106AD2F804C0D369ED
:103830004A4523F4E64343F4E04340F4405003D0C8
:1038400009F500694A4501D14CF4804CC2F804C026
:10385000D361C2F840801062D36943F40063D2E7B9
:10386000C81802F13404C0F8984019443046A1F851
:10387000A050C1F89C2003B0BDE8F083C81802F145
:103880003804F0E7C81802F13C04ECE7C81802F16C
:103890004004E8E7940F0020002C0140F7B58A4C63
:1038A0000023FF2284F8442084F8452084F8463021
:1038B000C4F86401E360236484F8473023706360D4
:1038C000A36084F85831437B02898DF806300546A1
:1038D00002234068ADF8042001A98DF80730FFF7F6
:1038E0009DFE94F83822AB7A2868012A0CBF032287
:1038F0000022002B40F08A80036A23F00103036258
:103900008369016A23F0F30343F0010343EA0213DE
:1039100021F00A0242F0010283610262836923F00E
:103920000C038361836983610122002105F0C0F8E3
:103930002A6813889BB243F001031380EB7A8DF859
:1039400004300126002701A88DF805608DF8067067
:103950008DF80760FFF706F8EB7A1B2B0BD11923C4
:1039600001A88DF804308DF805608DF806708DF88B
:103970000760FEF7F7FF554BC4F86831544BC4F8A5
:103980006C310023C4F870312C68204605F0DEF855
:10399000062839DCA97A4F4A4F4D0A23434303EBEB
:1039A0009103890842F823500433043542F8235028
:1039B0000223E5688B409BB22B43E36003B203EB29
:1039C0008303DB0003F120011144EFF3128650253D
:1039D00085F312881033134404251F6817B10F6054
:1039E00019680431013D03F10403F6D10D60F3B20F
:1039F00083F31188282303FB0022136A002B5CD079
:103A0000E36843F00103E36003B0F0BD042B18D179
:103A1000036A23F010031B041B0C03628369016A11
:103A200023F4734343F4807343EA02334FF65F7227
:103A30000A4042F0100283610262836923F440630A
:103A40006FE7082B036A1DD123F480731B041B0C42
:103A50000362C369066A9BB223F0F3034FF2FF517E
:103A600043F00103314043EA021341F48071C36122
:103A70000162C36923F00C031B041B0CC361C369FF
:103A8000C36151E723F480531B041B0C0362C36919
:103A9000016A23F440731B0521F400511B0D4904F6
:103AA00043F48073490C43EA023341F48051C3610B
:103AB0000162C36923F44063DEE7E36823F0010396
:103AC0001B041B0C9FE700BF940F00203932000835
:103AD0002932000850180020FC10002038B5044698
:103AE00024200D4600F002FE4D2000F0FFFD002CCA
:103AF000094C14BF21203E2000F0F8FD236800226D
:103B000028469A7100F0F2FD236893F84900BDE859
:103B1000384000F0EBBD00BF8415002001460020B6
:103B2000DCE710B500F0D8FD044600F0D5FD04EB4D
:103B3000004010BD2DE9F84F4B282DED048B00F00F
:103B4000118500F2F080322800F050856BD82228D1
:103B500000F040842BD8032800F0CE8207D801283B
:103B600000F0AD82022800F0B7820020C0E20428F5
:103B700000F0C9820528F8D11A20FFF7CFFFC84D01
:103B80000024285D013400F0B1FD0B2CF9D1C54DA6
:103B90000024285D013400F0A9FD082CF9D100248F
:103BA0000020013400F0A2FD072CF9D19FE2282863
:103BB00000F0BF8413D8242800F0B0842628D4D184
:103BC000B94C0620FFF7AAFFB4F8E80000F0A0FD0A
:103BD000B4F8EA0000F09CFDB4F8EC004CE22A28AE
:103BE00000F0BA842C28C0D1AF4C0C20FFF796FF10
:103BF00094F83E0100F07AFDB4F8480100F088FD29
:103C0000B4F8440100F084FDB4F8460100F080FDF2
:103C100094F83F0100F06AFDB4F84A0100F078FD25
:103C2000B4F84C0128E23D2800F0178344D8382826
:103C300000F07A8433D8342800F0EF83362894D10A
:103C40009A4D994C95F86400C0EBC000C0B2FFF7E4
:103C500065FF04F12006683594F9980100230C33C0
:103C6000EA1812F90C2C824240F0D584C0B200F060
:103C70003DFDB4F89A0100F04BFD94F89C0100F072
:103C800035FD94F89D0100F031FD94F89F0100F09E
:103C90002DFD94F89E0100F029FD00F0BFBC3A28EC
:103CA00000F0D2823B287FF460AF0120FFF736FF9F
:103CB0007F4B1B6818780CE2452800F0C18426D899
:103CC000402800F09A8442287FF44FAF764C1020B1
:103CD000FFF724FF607900F009FDA06800F021FDE6
:103CE00094F83E0100F002FDB4F8E80000F010FD89
:103CF000B4F8EA0000F00CFDB4F8EC0000F008FDA8
:103D0000B4F82E0100F004FDB4F83001B4E1462807
:103D100000F0898449287FF428AF0220FFF7FEFED7
:103D2000614B9889A8E1732800F0C38300F25681A3
:103D30006C2800F0518200F2D180662800F01682D3
:103D400000F295804D2800F0318465287FF40DAF96
:103D50000B20FFF7E3FE574B544C188800F0D8FCBB
:103D6000554B1A68554B9A420CBF554B554B18880A
:103D700080B200F0CDFC2068C0F3C003C0F3800225
:103D80009B0043EA4203C0F340021343C0F34012D6
:103D900043EAC20300F01000184300F0B9FC4A4B9C
:103DA00026791A88494B1968494B1B7802F00100A3
:103DB000C3F3800343EA4003C2F3400043EA8003B5
:103DC00002F008000343C2F3800043EA0013C2F389
:103DD000801043EA401301F04000034301F08000EB
:103DE000034301F480700343C2F3001043EA40230D
:103DF000C2F3401043EA8023C2F3002043EAC02309
:103E000001F48050034301F40050034301F4804067
:103E1000034301F40040034301F48030034301F401
:103E20000030034301F48020034301F400200343E6
:103E300001F480100343C2F3402043EA405301F0F1
:103E40000071C2F380220B43002043EA82630534F1
:103E500002460125B24280F06681115D05FA01F14A
:103E600019421CBF05FA02F108430132F2E7682843
:103E700000F0A68169287FF478AE164D164E28789A
:103E8000400000F0FE00FFF749FE00242B789C4222
:103E900080F02D8136F8140000F03AFC0134F5E78B
:103EA000CE170108DA17010860090020D0110020A0
:103EB00074170020441F00203C1B002000540040C9
:103EC000201B0020221B0020461F0020D41A0020A7
:103ED000881500205C090020E80E00206F2800F003
:103EE000C78130D86D2800F086816E287FF43DAE02
:103EF0000720FFF713FEC54BC54C1888FF28A8BF45
:103F0000FF20C0B200F0F2FBA06D4FF6FF75A84293
:103F1000A8BF284620EAE07080B200F0F9FBB4F8B0
:103F20005C0000F0F5FBBB4B93F83331002B00F045
:103F30009081236E0A205843A842A8BF284620EA51
:103F4000E07080B298E0702800F0BA8172287FF4A7
:103F50000CAEB04C1620FFF7E1FDB4F8440100F0C0
:103F6000D7FBB4F8D00000F0D3FBB4F8D20000F0D7
:103F7000CFFBB4F8D40000F0CBFBB4F8860100F01E
:103F8000C7FB002000F0B2FB002000F0AFFB0020D8
:103F900000F0ACFB94F8330100F0A8FB94F840016A
:103FA00000F0A4FB002000F0A1FB9B4B1B68B3F9C1
:103FB0005A000A2390FBF3F080B200F0A9FB94F8BA
:103FC000280100F093FB94F82C0100F08FFB94F88B
:103FD0002B0100F08BFB94F82D017AE0A02800F073
:103FE0008D8222D8772800F049820FD8742846D0D5
:103FF00075287FF4BAAD2F20FFF790FD874C14F899
:10400000010F002873D000F071FBF8E77B2800F067
:1040100026837C287FF4A9AD0320FFF77FFD804B2A
:10402000187800F075FB7F4B44E6F02800F05982C9
:104030000AD8DD2800F01083DE287FF496ADFFF764
:1040400070FDFFF76EFD52E0FE2800F03D82FF2874
:104050007FF48BAD744A6E4C1188002323840122B7
:10406000114266D101339BB25200092B92B2F7D1B3
:104070000220FFF753FD208C00F04AFB37E0644F2D
:1040800000264FF0010ADFF8BC914FF0000B3B799E
:104090005B4540F3E981654B0C251BF80340002389
:1040A00005FB03F202EB090012F80920A24200F01E
:1040B000DC8201331C2BF3D10BF1010BE7E703206A
:1040C000FFF72CFD002000F011FB022000F00EFB9A
:1040D000002000F00BFB0AE00520FFF71FFD544D08
:1040E0000024285D013400F001FB052CF9D10120EA
:1040F000BDEC048BBDE8F88FFFF710FD022000F047
:10410000F5FA0020E2E70B20FFF708FD072000F09A
:10411000FFFA484D0024285D013400F0E7FA072C2F
:10412000F9D10020A8E700F0FCFA3A4B93F82805F3
:10413000CFE7013B072B05D8DFE803F007090B0E9B
:10414000101214160123238492E70223FBE7402375
:10415000F9E74FF48073F6E78023F4E72023F2E7D2
:104160001023F0E70823EEE70423ECE71220FFF723
:10417000D5FC314B264C1B88B3F5806FD4BF01268C
:104180000826002504F1220737F9150090FBF6F008
:10419000013580B200F0BCFA032DF5D1208D00F07E
:1041A000B7FA608D00F0B4FAA08D244C00F0B0FA9C
:1041B000208800F0ADFA608800F0AAFAA0885BE7DA
:1041C0001020FFF7ABFC1E4D0024285D013400F0E9
:1041D0008DFA102CF9D18AE70D4C0620FFF79EFCD2
:1041E000B4F8460000F094FAB4F8480000F090FAF1
:1041F000B4F84C0040E7064C0620FFF78FFC206D1A
:1042000000F08FFAB4F8540036E700BF78150020AC
:10421000D01100206009002074170020E714010865
:104220008E1500204C000020441F0020D5110020D6
:10423000C0170108C617010898000020580F002079
:10424000FE110020381601080420FFF767FC00204B
:1042500061E1206E00F30F0073E6CA4C0220FFF705
:104260005DFC94F88E0100F041FA94F88D0130E77E
:10427000C54C0B20FFF752FC2368187800F036FA83
:104280002368587800F032FA002523682B44013562
:10429000187900F02BFA032DF7D12368D87900F0B4
:1042A00025FA2368987800F021FA2368D87800F07E
:1042B0001DFA2368588900F02BFA2368187A08E75A
:1042C000B24C2120FFF72AFC23681B78022B4FF009
:1042D00000056CD19FEDAE9ADFEDAE8AB2EE048A96
:1042E000236803EB850393ED090A20EE080A0BF01F
:1042F000EBF980F30800C0B200F0F8F9236803EB93
:10430000850393ED0C0A20EE090A0BF0DDF980F32A
:104310000800C0B200F0EAF9236803EB850393EDCF
:104320000F0A20EE280A0BF0CFF980F30800C0B284
:10433000013500F0DBF9032DD2D1072D236829D1F7
:1043400093ED120A20EE080A0BF0BEF980F3080084
:10435000C0B200F0CBF9236893ED130A20EE080AEF
:104360000BF0B2F980F30800C0B200F0BFF9236887
:1043700093F8503000EE103AB8EE400A0BF0A4F972
:10438000FF28A8BFFF20C0B2013500F0AFF90B2D08
:10439000D3D1ACE62B44587800F0A8F923682B441D
:1043A000187B00F0A3F923682B44D87DECE7236841
:1043B0002B44587800F09AF923682B44187B00F0BE
:1043C00095F923682B440135D87D00F08FF90B2D2A
:1043D000EDD18CE65020FFF7A1FBDFF8B0816E4EE7
:1043E00000250C27D8F8004004EB8504013594F82B
:1043F0007D3007FB0363187A00F078F994F87E00AB
:1044000000F074F994F87F0000F070F994F88000DF
:1044100000F06CF9142DE5D169E64820FFF77EFB2A
:104420005A4F002506263C6806FB0544013594F8E2
:10443000D20000F05BF994F8CD0000F057F994F841
:10444000CE0000F053F994F8CF0000F04FF994F843
:10445000D00000F04BF994F8D10000F047F90C2D92
:10446000E1D144E6464427E6BAF1000F3FF43FAEFF
:10447000F0B2FFF753FB4FF0000A04E6474C464DFD
:104480002079FFF74BFB0026671D4FF00C082379BE
:104490009E42BFF42CAEF05D002308FB03F25119DD
:1044A000525D824200F0F48001331C2BF5D10136BD
:1044B000EDE70820FFF732FB0124E0B2013400F001
:1044C00015F9092CF9D112E60820FFF727FB002087
:1044D00000F01EF9002000F01BF9002000F018F990
:1044E0001FE62A4C0420FFF719FB2368B3F85E008F
:1044F00000F00EF92368B3F85C00BDE50C20FFF76F
:104500000DFB274B186800F00CF9264B186800F0DB
:1045100008F9254B186800F004F9E8E50420FFF7D6
:10452000FDFA184B9868F6E70420FFF7F7FA154CE8
:1045300045E5144C0720FFF7F1FAB4F82E0100F01E
:10454000E7F8B4F8300100F0E3F894F8320100F035
:10455000CDF8B4F834018FE50120FFF7DFFA094BFD
:104560005879B6E5074C0420FFF7D8FA94F884018F
:1045700000F0BCF894F8850100F0B8F8B4F88601B2
:104580007AE500BF60090020601700207417002042
:104590000000C84200007A4438160108D0110020FB
:1045A000ACF7FF1FB0F7FF1FB4F7FF1F3A4D3B4CAE
:1045B000287800EB4000C0B2FFF7B0FA00262B7855
:1045C0009E4204F10204BFF492AD14F8020C00F014
:1045D0008DF814F8010C00EB800000EB800000F275
:1045E000EE2080B200F094F80136E8E70120FFF7F2
:1045F00095FA2B4B93F840016BE50820FFF78EFAF4
:10460000274D00246319013493F8360100F06EF849
:10461000082CF7D16BE5302B7FF421AB0834A64290
:104620007FF41AAB63E50D20FFF778FA002000F065
:104630005DF8002000F075F8002000F072F806E642
:104640001320FFF76BFA174D0024285D013400F0AA
:104650004DF80B2CF9D1EFE700F03EF847E50220CA
:10466000FFF75CFA104B188806E54568284606F007
:1046700067FF8046BAF1000F7FF4F4AE2C46631B4F
:1046800098457FF719AD14F8010B00F02FF8F6E705
:10469000087A00F02BF80AE75C090020AE0A002037
:1046A00060090020CE1701084E000020044A53681C
:1046B00023B192F90020824200D11847704700BF11
:1046C00068120020034B1B68DA79511CD97113441E
:1046D000187A70478415002010B5FFF7F3FF84B2F5
:1046E000FFF7F0FF04EB002080B210BD064B10B5C1
:1046F00001460446986806F0D9FA044B1B689A797B
:1047000054409C7110BD00BF681200208415002029
:1047100010B50446C0B2FFF7E9FF200ABDE810401B
:10472000E4E710B5044680B2FFF7F2FF200CBDE8C5
:104730001040EDE72DE9F34188469DF824E0184E3E
:1047400011461A469DF8203005460C240020042806
:1047500007460AD0013004FB006C1CF90CCCAC45B8
:10476000F5D104FB0764208908B1002002E025B1DF
:10477000012D11D002B0BDE8F0810A48CDF800E06B
:1047800005F0EEFB0028F5D00C2303FB076605714E
:10479000A6F808807060EDE7CDF800E00248EFE78A
:1047A00038120020003801400044004070B50E4926
:1047B0000E4A0B7B12680025032B05DD05B10B7338
:1047C000002070BD2346F7E702EBC3065C1CB688E9
:1047D0003042E4B24FF00105F4D00C7308200221FE
:1047E00010FB0310104470BD6812002094150020C7
:1047F000014B00221A73D9E7681200202DE9F0411D
:104800001D4D00240A274FF47A7682781FFA82FE23
:10481000A4EB0E031BB2002B2ADDC2F16402D2B25C
:1048200090F8038003FB03FC08FB0CFCC8F1640850
:104830000EEB8E0E12FB02F29CFBF2F2424453434B
:1048400093FBF7F303EB4E031BB26B800A88B1F8BE
:1048500002E00A34AEEB020EA4B203FB0EF3782C96
:1048600093FBF6F3134425F8023FCED1BDE8F08167
:1048700008BF0122D4E700BF7412002030B50C4CF1
:10488000002340F6C415072B10D003FB03F2A2F15E
:10489000190142784A4302F6C41201785A434A4346
:1048A00092FBF5F224F813200133ECE730BD00BF92
:1048B0008E1200200430104B10B533F910200C7804
:1048C00040F633039A42A8BF1A46B2F5617F4FF013
:1048D000190340F28330B8BF4FF4617213FB040434
:1048E000944207DA497813FB01009042B4BF0020DC
:1048F000012010BD002010BDE80E0020034B002257
:1049000083F834209A639A871A64704768120020EB
:1049100070B408B970BCF1E70E4A00230C251146AB
:1049200005FB03F4A65C864209D10B4B186C50B111
:10493000224455784278954205DB70BC70470133BC
:10494000102BEDD1F9E70022214419649A879A636C
:10495000F3E700BF181501086812002040000C4A58
:10496000142870B4A8BF1420002302F144010226C9
:1049700014255E540233CC18984204F8015CF8DC2C
:104980001344FF2283F844200F2070BCC0E700BF0F
:104990006812002010B50A490A480A68846800BFF6
:1049A0000B689A42F9D1084BD96D4FF47A7000FB2D
:1049B00001F31B1BB3FBF1F300FB023010BD00BF82
:1049C0004018002010E000E06812002038B50446CE
:1049D000FFF7E0FF0546FFF7DDFF401BA042FAD3DB
:1049E00038BD10B5044604B910BD4FF47A70FFF716
:1049F000EDFF013CF7E72DE987482D4C06460B27D4
:104A0000013FFCD04FF01E0B05254FF0020806F0C9
:104A1000400906F0200A00E00025B9F1000F04D09B
:104A2000A38A9BB283F48043A382BAF1000F04D01F
:104A3000A38A9BB283F40043A38216F002021FBF35
:104A4000A38A9BB283F40053A38258460192FFF7D6
:104A5000C8FF019AB9F1000F04D0A38A9BB283F476
:104A60008043A382BAF1000F04D0A38A9BB283F4DF
:104A70000043A38222B1A38A9BB283F40053A38292
:104A80005846FFF7AEFF7DB1013DC6D14FF4FA7035
:104A9000FFF7A7FF4FF0960BB8F1000FBCD14FF412
:104AA0007A70FFF79EFFABE708F1FF38F4E700BF2D
:104AB00000080048024A136801331360704700BFC2
:104AC000401800200920F1E52820EFE506EE901AB5
:104AD000B8EEE66ADFED106A104B9FED117AB3F87D
:104AE000603026EE266AF7EE005AC5EE866A07EEBB
:104AF000903AF8EE677A67EE877A90ED007A76EE74
:104B0000A76A30EE470A87EEA66AA6EE007AB0EEF4
:104B1000470A80ED007A7047DB0FC9406812002019
:104B2000BD3786352DE9F74F244D254E254F0024FE
:104B300095F86280E0B240450ADA56F820302BB191
:104B40000B2803DCDB6837F8101098470134EFE7D7
:104B50001D4B1B685B032DD50025194FDFF86CB08A
:104B600029464FF0500A4FF028092A46EEB2B045C8
:104B700020DD57F826305C688C4214D02046019224
:104B800003F0E4FFEFF312838AF31288616A09FBF2
:104B900000B001314162616941F001016161DBB244
:104BA00083F31188019A57F826301B6801351A6083
:104BB0002146DBE703B0BDE8F08F00BF681200209C
:104BC000F80F0020FE110020E40E002050180020F5
:104BD0002DE9F04FF34BF44CD3F80090D4F868A0D3
:104BE000F24DDFF80884F24FF24E2DED0A8BD145DD
:104BF00083B0B0EE40BADFEDF08ADFEDF09A9FEDC2
:104C0000F09A9FEDF0AA00F01083EF4BC4F8689083
:104C10001A780193DFF8D8B3002A4ED1BBF90230DD
:104C2000D5ED085AD5ED060A07EE903ABBF90430E7
:104C300000EE103AB8EEC07AF8EEE77A95ED070A82
:104C4000BBF9003065EE876AB7EE006AE7EE806A6E
:104C500020EE470AA0EEE06AA7EEA50A60EEE60A9B
:104C600006EE903AF8EEE66AB1EE400AE6EE260A63
:104C70000AF078FEDFEDD57AB4EEE70AF1EE10FA2D
:104C8000B0EE401A00F1AD82DFEDD17AB4EE670AE2
:104C9000F1EE10FAC8BFB0EE671ACE4AD2ED010AA3
:104CA00092ED000A02F020FF019BC8ED008A01226C
:104CB000C8ED018AC8ED028A1A70BBF90030D5ED43
:104CC00001AAD5ED006A07EE103ABBF9023008EEF2
:104CD000103AB8EEC88AB8EEC77ABBF9043068EE6D
:104CE0002AAA07EE903AE7EE26AAF8EEE77AD5ED83
:104CF000026AE7EEA6AAD5ED046AC4ED1BAA28EE67
:104D0000268AD5ED036AA7EE268A95ED057AA7EEE9
:104D1000878A28EE08CA84ED1C8AB0EE4C0AAAEEF7
:104D2000AA0A0AF09DFECAEE80BAB0EE4C0AABEEBB
:104D3000AB0A0AF095FEDFEDA87AB0EEEB7AB4EE9E
:104D4000677AF1EE10FA09DCC8EE00AAB0EEEA7A52
:104D5000B4EE677AF1EE10FA40F36482DFED96AAC2
:104D600097ED010A97ED007AD7ED027AD5ED08BAF2
:104D700020EE000AA7EE070AA7EEA70A0AF070FEC7
:104D8000D5ED097AF4EEE97AF1EE10FAB4EEC90A3B
:104D900048BFC5ED099AF1EE10FAB0EE40CA00F135
:104DA0002382DFED947AB4EEE70AF1EE10FA00F315
:104DB0001E82C0EE097A6BEEAABA95ED098A94EDCF
:104DC0001E0A6BEEA77A20EE000A27EE888AD4ED41
:104DD0001D7AA7EEA70A0AF043FEF1EE007AB4EEC0
:104DE000E70AF1EE10FA9DBFF1EE027A77EEC07A93
:104DF0009FED7A0ADFED7A7A336898BF67EE807AA2
:104E0000D90768EE277A58BFB2EE007AC8ED027A69
:104E100058BF67EE877AA9EB0A0358BFC8ED027A3C
:104E200007EE903A9FED6F7AF8EE677A67EE877A31
:104E3000B0EE007AF4EEC77AF1EE10FA05D5B4EED2
:104E4000CACAF1EE10FA00F10582D4ED207AB4F866
:104E50008430F0EEEAAA7AEEA7AA0133C4ED20AAC4
:104E6000A4F88430B4F98630D5ED01BAD5ED006AE6
:104E7000D5ED04AA5B4207EE903AB4F988305B4264
:104E800008EE103AB8EEC88AB4F98A30B8EEE77A7C
:104E900068EE2BBA5B4207EE903AE6EE87BAF8EE80
:104EA000E77AD5ED026A68EE2AAAE6EEA7BAD5ED52
:104EB000036AC4ED1DBAE7EE26AAD5ED056AE7EE52
:104EC000A6AAD5ED076AC4ED1EAA28EE268AD5ED5E
:104ED000066AA7EE268A95ED087AA7EE878AD4EDB2
:104EE000237A84ED1F8A3BEE27BADFED3F7A84ED0B
:104EF00023BA6AEEA7AA6BEEA7BA6AEEAACA28EE90
:104F0000278AB0EE6C0AABEEAB0AA8EE080A0AF0EC
:104F1000A7FD8BEE80CAB0EE6C0AACEE0C0AA8EED0
:104F2000080A0AF09DFDCAEE80BA2BEEAB0AACEE81
:104F30000C0AA8EE080A0AF093FD88EE000AB0EE0B
:104F40004C8AA0EE288AB0EE6B7A90EE687AD5EDA6
:104F5000037AD5ED006AD5ED04AA97ED010A68EE53
:104F6000277A68EEEBBAE7EE267AECEE28BAD5EDB2
:104F7000066AEBEEA67A68EE2AAAC4ED247AB0EEB1
:104F800067CAD5ED017AE7EE27AAD5ED077AEBEEF1
:104F9000A7AAD5ED057AC4ED25AA28EE278AD5ED76
:104FA000027A29E0540F002068120020200000201F
:104FB000340F0020D41A002000000000CDCC4C3D5E
:104FC000F3665F3FC2B8B23E700F00209A9949C0A5
:104FD0009A994940400F0020FFFF7F7FCDCC4C3E87
:104FE000CDCCCC3DBD37863500008039280F002060
:104FF000580F002058A00B41A7EE278A20EE000A88
:1050000097ED007AD5ED087AA7EE070AABEEA78AEE
:10501000D7ED027A84ED268AA7EEA70A0AF020FDD2
:10502000D5ED0A7AF4EEE97AF1EE10FAB4EEC90A97
:1050300048BFC5ED0A9AF1EE10FA00F1DB805FED92
:10504000137AB4EEE70AF1EE10FA00F3D68080EEA0
:10505000097A864B95ED0A6A2CEE077AB4EEC90AF6
:1050600067EE066AF1EE10FAC3ED006A00F1C8803F
:10507000DFED7F7AB4EEE70AF1EE10FA00F3C380B9
:1050800080EE097A2AEE877AB4EEC90A27EE067A0C
:10509000F1EE10FA83ED017A00F1B880DFED747A59
:1050A000B4EEE70AF1EE10FA00F3B380C0EE097A2D
:1050B0003268D20768EE277A67EE867AC3ED027A05
:1050C0000DD4B2EE006A66EE866A27EE067A67EEC7
:1050D000867AC3ED006A83ED017AC3ED027AB4EEFD
:1050E000CA0AF1EE10FA1FD59FED627AD4ED276A55
:1050F0006CEE077A6AEE87AAEBEE276AD4ED287A7F
:10510000C4ED276AEBEE2A7A28EE078AC4ED287AE6
:10511000D4ED297AEBEE087AC4ED297AD4ED2A7A17
:1051200037EE8BBA84ED2ABAD4ED2A7AB1EE047A3E
:10513000F4EEC77AF1EE10FA4CDB94ED197A94EDA7
:10514000276A67EE877AB1EE677AB4EEC76AF1EE46
:1051500010FA61D4F4EE467AF1EE10FA48BFB0EEE0
:10516000676AD4ED286AB4EEE67AF1EE10FA56DCFE
:10517000F4EE667AF1EE10FA48BFF0EE676AD4ED0D
:10518000295AB4EEE57AF1EE10FA08DCF4EEE57A8D
:10519000F1EE10FA54BFB0EE657AB0EE677A364B96
:1051A000C4ED278AD3ED007AC4ED288A37EE866AEB
:1051B000D3ED017A83ED006A77EEA66AD3ED027A29
:1051C000C3ED016A37EE877AC4ED298A83ED027A4E
:1051D000C4ED2A8AC4ED238A03B0BDEC0A8BBDE876
:1051E000F08FB0EE671A58E5F7EE007AE3E5F2EEDD
:1051F000047AE0E5B7EE007A2BE7B2EE047A28E70E
:10520000B7EE007A3EE7B2EE047A3BE7F7EE007ABB
:105210004EE7F2EE047A4BE7B0EE476AA1E7F0EE14
:10522000476AACE7DBEEA8AA9AE59FED147AD8EDC1
:10523000007A67EE877AC8ED007AD8ED017A67EEDA
:10524000877AC8ED017AD8ED027A67EE877AC8EDE1
:10525000027A07E69FED0A7A6BEE87BA94ED297A17
:10526000A7EEAB7A84ED297AEFE500BF1C0F002092
:1052700058A00B41728A0E3C100F0020EC51783F71
:105280000AD7233C10B52F4CD4ED013A94ED046AB3
:1052900094ED003A94ED037A94ED024AD4ED056A58
:1052A00063EE867AF6EE005AE3EE077A8AB021467C
:1052B000B0EE635AE4EE267A07A8F0EE444A67EEB1
:1052C000A57AF0EE435AA6EE675AE6EEE74AA3EE59
:1052D000E76AE4EE676AE7EE675ACDED066AA3EE89
:1052E000677AF0EE667A66EE646A8DED047AE5EE32
:1052F000276A67EEE57ACDED075AE4EE877A27EE66
:10530000457A8DED085AA5EE867ACDED094A8DEDE8
:10531000056ACDED016ACDED027A8DED037A02F0DA
:1053200089FB58B104F10C0104A802F083FB28B1F9
:1053300004F1180101A802F07DFB08B9FDF760FE39
:105340000AB010BD2000002003789942BABF024B7A
:1053500033F811000020704728130020F0B5234DCA
:1053600000210B462C4641F2210642182A44127EA7
:1053700083EA02230922013A07D013F4004F4FEACF
:10538000430318BF73409BB2F5E701311929ECD1F3
:1053900000F1190100F11A05214425440E7E297EF1
:1053A00001EB062189B299421FD194F83970013876
:1053B0004FF4AF66D5B2BD4202F1010212DA00EB42
:1053C0004201C9B263180131214493F818E00B7E01
:1053D00003EB0E239BB273431B1303F5487324F8AE
:1053E0001530E7E7012384F83A30F0BD2813002098
:1053F00003788B420BD9074B1A78074B89000B4473
:10540000D86B02B1400800F5777080B27047002079
:10541000704700BFB20E00202813002007299BBF51
:10542000034B03EB81010020C86E80B2704700BFC0
:1054300028130020034B03EB4101B1F88C00C00896
:10544000704700BF281300200A4BDFED0B7A03EBF7
:10545000810191ED2B7AB8EE477AF6EE046AE7EE19
:10546000267A82B0FCEEE77ACDED017ABDF8040031
:1054700002B070472813002000005C44024B03EB8D
:105480004101B1F8F400704728130020014B33F8B4
:1054900011007047DC0F0020014B33F811007047FA
:1054A000DC0F00200020704770B5304C0546FFF738
:1054B00071FAD4F81831C4F81801C31AB3F5FA5FB9
:1054C00082BF002384F81C3184F81D3194F81C310C
:1054D00023B9A12D04BF012284F81D2194F81D21B8
:1054E0002AB1E218EDB20133157684F81C3194F834
:1054F0001C5194F81E31AB420AD194F81F31052B90
:1055000007D0062B08D0002384F81D3184F81C3105
:1055100070BD0020FFF722FF637E1E2BF3D1002019
:105520000246013DC3B2AB4218DA234409211B7E77
:10553000DBB2013911F0FF010DD082EA0306F60754
:1055400045BF83F01803C3F347035B0843F08003B0
:10555000C2F34702EDE701301A46E3E725442B7E0C
:105560009A42D0D10320FFF7F9FECCE728130020A0
:1055700010B50446FFF70EFA0E4BD3F82021C3F8FE
:105580002001821A41F288318A4284BF002283F8C6
:10559000242193F824210F2A03EB0201E4B214BF63
:1055A0000132012281F8254114BF83F8242183F8B8
:1055B000352110BD2813002010B50446FFF7EAF985
:1055C0000E4BD3F83821C3F83801821A41F28831E2
:1055D0008A4284BF002283F83C2193F83C21142A9C
:1055E00003EB020114BF0132012281F83D4114BFD7
:1055F00083F83C2183F8522110BD00BF28130020FE
:1056000010B50446FFF7C6F9254BD3F85421C3F86B
:105610005401821AB2F57A6F84BF002283F85821B0
:1056200093F858214AB9A82C38D183F85921A3F806
:105630005A21991881F85D4106E0022A02D183F8C7
:105640005C41F6E7242AF4D993F85C110132023167
:10565000D2B249008A4283F8582116DAB3F85A01C7
:10566000E4B280EA0420082241F2210110F4004F44
:1056700002F1FF324FEA400018BF484012F0FF022B
:1056800080B2F3D1A3F85A0110BD01318A4201BFA3
:10569000002283F85821012283F8592110BD00BF50
:1056A0002813002010B50446FFF774F90F4BD3F808
:1056B000842140F6AC51821A8A42C4BF002283F88A
:1056C000882193F88821991881F889411AB90F2CFB
:1056D0000BD1C3F884010132D2B2192A83F8882190
:1056E0000CBF0122002283F8A22110BD2813002044
:1056F0000A4BD3F8A421117840F257134B43584377
:10570000537800F54730C3EB033300F2CE30B0FBE3
:10571000F3F09378B0FBF3F080B2704728130020C9
:105720002DE9F047774C94F8A93104EB43032DEDB4
:10573000048BB3F8B881B4F9CA310A2B1CBF00231B
:1057400084F8C83194F8C8311FFA88F8A4F8C081E9
:10575000002B61D16C4BC4F8CC31C4F8D4314FF07C
:105760007E53C4F8D831694BC4F8DC31684BC4F8B7
:10577000E03140F2DC53674DC4F81C32DFED668A3D
:10578000664AC4F8D0211023A4F81A321823A4F8CA
:10579000183205F1140605F10C07B0EE689AB6EE62
:1057A000008AD5ED037A67EEA87AA946F5EEC07AAD
:1057B000F1EE10FA4CBF77EEC87A77EE887A0435AE
:1057C00017EE900A06F0A2FBD9ED007A67EE897A0F
:1057D000C6E90801F5EEC07AF1EE10FA4CBF77EE9B
:1057E000C87A77EE887A17EE900A06F08FFBAF4200
:1057F000E6E90201D5D10A23A4F8CA31A8F2DC53A4
:105800001B04C4F83832C4F84432C4F83C32C4F83B
:105810004832012384F8C831414BD4F81CA2B4F9B2
:105820001A525A6AD4F83872D4F84462D4F848C28A
:10583000C4F84862A8EB0A0000FA05F1186AC4F837
:1058400038124FEAE1794A4300FB0922A0FB01012B
:1058500011445A6CD3F84080D4F83CE2C4F83C724E
:105860004FEAE679724308FB0922A8FB06899144B6
:10587000DA6A9E6AC4F840E2B0EB080061EB090105
:105880007A434FEAE77906FB0922A6FB076717442C
:10589000DA6CC4F84CC23618986C4FEAEC790CFB01
:1058A00002F24F4100FB0922A0FB0C01301A114407
:1058B000764667EB0101F7171E6B5B6BB4F9182294
:1058C0000EFB03F306FB0733A6FB0E671F4480198C
:1058D000794105F0A3FE6A1E01239340C4F84402F7
:1058E000C01841EBE3712A4605F098FE10EB0A0060
:1058F00080B2FFF7FDFEBDEC048BA4F85002BDE8BA
:10590000F08700BF2813002056157D396350FABF79
:105910000CE0743FF41400200000804B5615FD3954
:10592000F0140020104B1B6803EB4002117E29B1DC
:1059300002290DD00D4B33F810007047022805D90D
:105940000328F7D10A4A1268D2040AD5D8897047C9
:10595000507E00EB800000EB800000F2EE2080B271
:1059600070474FF4966070477C170020E80E0020C7
:10597000E40E002008B5FFF70DF8074B022283F86C
:105980005822C3F85402054B1A68054B9A6001224D
:1059900083F8212008BD00BF2813002040180020F4
:1059A000B817002008B5FEF7F5FF084B022283F870
:1059B000582200F5B710064A00F55870C3F8540293
:1059C000936803F2DC53936008BD00BF28130020E6
:1059D000B81700202DE9F043CB4C2DED048BD4F803
:1059E0005C2292F849304E2B8BB0264600F0B282F2
:1059F00000F28180372B00F0078350D8292B00F06C
:105A0000978220D8252B00F07D82272B00F0828200
:105A1000232B5BD1FEF756FE1328054610D8BB4E4C
:105A20003468FEF74FFEBA4900230C2707FB031228
:105A300092F808E0864500F0298301331C2BF5D14C
:105A4000FDF7C0FACEE0332B00F0AB82352B00F02F
:105A50008F812D2B3AD1FEF735FEAE4D85F83E01F4
:105A6000FEF73AFEA5F84801FEF736FEA5F8440118
:105A7000FEF732FEA5F84601FEF724FED4F85C32AC
:105A800085F83F015B79082B40F3AC80FEF724FEDC
:105A9000A5F84A01FEF720FEA5F84C01A2E0412B33
:105AA00000F085820BD83C2B00F0CB803E2B00F021
:105AB000B980392B0AD1FEF705FE964CF1E1442B53
:105AC00000F0DC8204D8432B00F07C8200206DE0E3
:105AD0004A2B00F0B1804C2BF8D1FEF7F3FD8D4C32
:105AE00084F88401FEF7EEFD84F88501FEF7F4FDED
:105AF000A4F8860176E0D22B5DD02FD8CD2B00F014
:105B0000EC811DD8CA2B00F0A680CC2B00F0578169
