:020000040800F2
:1000000000A000204DF50008B5F50008B5F5000882
:10001000B5F50008B5F50008B5F5000800000000CA
:10002000000000000000000000000000B5F500081E
:10003000B5F5000800000000B5F5000815550008EA
:10004000B5F50008B5F50008B5F50008B5F50008E8
:10005000B5F50008B5F50008B5F50008B5F50008D8
:10006000B5F5000825550008B5F50008B5F50008F8
:10007000B5F50008B5F5000855960008B5F5000877
:10008000B5F50008B5F50008B5F50008B5F50008A8
:10009000B5F50008B5F50008B5F50008B5F5000898
:1000A0009D880008018900088D880008F1880008F3
:1000B000E1880008D1880008C1880008B5F500086B
:1000C000B5F50008B5F50008B5F50008B5F5000868
:1000D000B5F50008058A0008F9890008B5F500089B
:1000E00029550008B5F50008B5F50008B5F5000874
:1000F000BD880008B5F50008AD880008B5F5000812
:10010000000000000000000000000000B5F500083D
:10011000B5F50008B5F50008B5F50008B5F5000817
:10012000B5F50008B5F50008B5F50008B5F5000807
:10013000B5F50008B5F5000800000000000000005B
:10014000B5F50008B5F50008B5F500080000000099
:10015000000000000000000000000000000000009F
:100160000000000000000000B5F50008B5F500082B
:10017000B5F50008000000000000000000000000CD
:0801800000000000B5F50008C5
:1001C0002DE9F04FB1B007F0E9FE18B908F04CF88E
:1001D0000AF0C6FABF4DC04C07F006FF2B7843F07B
:1001E00001032B70BD4B4FF47002C3F8882000232D
:1001F000089309930A93236843F4803323602368A8
:1002000003F400330993089B01330893099B1BB93E
:10021000089BB3F5A04FF2D1236813F4003318BF45
:1002200001230993099B012B40F0798202230A9351
:10023000AB4B12221A606368636063686360636833
:1002400043F480636360636823F47C1363606368D2
:1002500043F4E8136360236843F0807323602368EA
:100260009901FCD5636823F003036360636843F07E
:1002700002036360636803F00C03082BFAD10A9B46
:10028000964F6B60974BFB60636A636ADFF89C82F2
:10029000DFF89CB2DFF89CA243F08073636263696D
:1002A00043F4FC0330AE636103238DF8723041F6F2
:1002B000FF7326F8503D4FF09040314602F02EFD7E
:1002C0004FF6FF7331468848ADF8703002F026FDD6
:1002D0003146404602F022FD3146844802F01EFDC0
:1002E0003146834802F01AFD3146824802F016FD7D
:1002F000304608F071FD1C9B7F4AB3FBF2F37F4A46
:10030000DFF834E213607E4B7E4A4FF0000CC3F8F6
:1003100000C0C3F804C07C4B5A60F02287F8232049
:100320000722C3F808C01A60DBF80830CAF80030AA
:10033000BEE80F0037460FC7BEE80F000FC79EE8A4
:100340000F0087E80F00636943F40023636163696A
:1003500043F400236361636943F4002363616369C9
:1003600043F4003363614FF0904310221A8520223A
:100370001A8540221A854FF40043C8F818304FF40C
:100380008043C8F818304FF40053C8F81830674657
:10039000CDF80CA0391DF0593144083702F0BEFCED
:1003A000302FF7D1039B594AD3F80090584BDFF810
:1003B0008C811A60574B04221A7000213A4640463D
:1003C00010F058FE0127002188F8001088F8181056
:1003D00088F8241088F80C70142217A810F04AFE30
:1003E00019F4802F08BF4C4BDFF8FC8008BF1F704A
:1003F0002B784A4FDFF8489143F004032B7009F043
:1004000069FB474B1F60636943F480236361E369C1
:1004100043F40013E361236B23F010032363236B86
:1004200043F010032363D8F8243023F00F03C8F8F7
:100430002430D8F8243043F00403C8F82430D8F826
:10044000243023F0F003C8F82430D8F8243043F0E7
:100450004003C8F8243002234FF0000A4FF48072A2
:100460008DF87430049331464FF0030340468DF805
:1004700075301C928DF876A08DF877A00AF00EF8F2
:100480004FF40072314640461C920AF007F83A6871
:10049000039B22F001023A603968224A0A403A601E
:1004A000214A3A613A6842F001023A60C7F808A06E
:1004B000C7F80CA0C7F808A0BA6842F40042BA60B6
:1004C0003A683A607A6822F0784222F400427A6010
:1004D0003A6837E0D00400200010024000ED00E050
:1004E000002002400005FA0500040048000C004806
:1004F000001000480014004840420F0088130020FC
:100500002C1300203F19010010E000E0CA0D00206C
:10051000381F0020B00B0020DC07002000540040F2
:10052000201F0020FFE0CF007A25E00000080048EF
:10053000340C002090110020C8120108B40B0020D8
:100540005C1A002042F001023A601F6810225146F6
:10055000484610F08FFD049B8DF851304FF6FF7226
:100560004FF0030307F0020713928DF852A08DF8A5
:1005700053A08DF8503087B130A9012741F8747D20
:10058000404609F08BFF0C2389F80030072389F8D7
:1005900001A089F8033089F802704FF4D87008F090
:1005A0000BFC63695F4843F0805343F002036361CF
:1005B00008F002FC636943F0005343F002036361F7
:1005C000594C204609F081FE304609F053FE4FF4A5
:1005D0008072564B22924FF480621C932392544BAC
:1005E0001D93202200232046249231464FF40052CE
:1005F0001E932093219325922693ADF87C7009F0E9
:1006000046FE236843F0010323604A4CA36823F0AD
:100610004053A360A36843F08053A3600A2004F012
:1006200010FFA36823F08043A360A368A360A368BE
:1006300043F00043A360A368002BFCDBA3683E4AA1
:10064000DFF8F08023F04053A360A36843F0005329
:10065000A3609168394B0B4043F468339360E268C0
:10066000374B134043F40053E360236B013F23F007
:100670000F031F4327630122002409EB0403997829
:1006800041B1571CFFB2DB7819F80410404609F05D
:10069000A9FE3A460434102CEFD1264B9A6842F05A
:1006A00001029A601A68D207FCD5DA6822F00202C9
:1006B000DA60DA6842F00202DA60DA6842F00102D7
:1006C000DA609A6842F004029A60BBF9E830002BC5
:1006D0003ED007EE903ADFED1B6ABBF9EA301A4ACA
:1006E000F8EEE77A07EE103A67EEA67ABBF9EC303F
:1006F000CDED1C7A07EE903AB8EEC77AF8EEE77ABD
:10070000002127EE267A67EEA67A117030460F494F
:100710008DED1D7ACDED1E7A09F080FF20E00123DA
:100720000A93ACE500360010580402404004005023
:100730006C1A00200004005000070050E010FCFF7D
:1007400007C0FFFD35FA8E3C90000020341A0020CF
:10075000BBF9EA20002ABCD1BBF9EC20002AB8D1B1
:10076000DFF85083BBF8F030DFF84CA3059300248A
:100770009BF8EF30C8F8004010222146C8F804402A
:10078000C8F80840BB4804932C729BF8F77010F02F
:1007900071FCB94BA5F809402320CAF80040CAF8FB
:1007A0000440CAF808401C6004F04BFE0BAA01216B
:1007B000752003F08CFFD146F0B1B04BCAF804307D
:1007C000AF4BCAF808300FAA4323012120468AF80C
:1007D000003003F07CFF9DF83C3003F07E038DF881
:1007E0003C30002800F0EE80682B40F0EB800123C5
:1007F0006B721D238AF800306A7AA24B069300219F
:10080000042A197040F0C1879A4B9F4A9F4C1A6086
:100810009F4A5A609F4ADA602268079142F00100BD
:1008200020609A464FF0010940F2022040F2FD1E7E
:10083000049B0A2B28BF002309FA03F111EA000CDC
:1008400040F0A98711EA0E0F00F0A587924B83F8BC
:1008500000C0924BC8F8003042F00302904BC8F839
:100860000430226023689B0702D5D8F800309847EF
:10087000DAF800300598DFF8448298474FF0000915
:10088000CA4688F800A01FB1BB1E022B00F2DB8015
:100890003346012200210C208DF8709009F0B6F942
:1008A000002800F0D0809DF87030482B40F0CB80BD
:1008B0007C4B7D4A1A607D4A5A60062388F80030D6
:1008C000236843F0080323609BF8E4300BB1069AD9
:1008D00013709BF8E5300BB16F4A13709BF8E6304C
:1008E0000BB188F800309BF8F830042B00F2B2808E
:1008F000012404FA03F212F016085ED112F0090F77
:1009000000F0A6800A2004F09CFD13AB2246A02133
:10091000772009F07BF900284FD022461E2177204E
:1009200009F066FA4FF42F60614F04F07FFDC14675
:100930003C46A8F1600133460222C9B277208DF807
:1009400070908DF8719009F061F99DF870209DF814
:10095000713043EA022328F8073008F10208B8F1A1
:10096000100FE6D1FA89002302F00F0602F47F424D
:10097000FA8119460127481034F81000002818BFE2
:10098000002711F0010F1ABFC0B2434083EA1023C1
:10099000082013F4004F18BF83F4C05301384FEA06
:1009A0004303F6D101311029E5D13243E28127B961
:1009B000C3F303339E4200F021872B7A43F02003D8
:1009C0002B724CE09DF82C3003F07E03682B8DF8E1
:1009D0002C3033D1022306216B723246D9F8043011
:1009E000084698479DF875309DF873209B0052008B
:1009F00002F0020203F0040313439DF8712002F099
:100A000001021343DAB25BB1012A02D10023AB72B7
:100A1000F2E6022A01D10123F9E7022004F01BFDCE
:100A2000D9F8043013AA01210C2098479DF84C30C6
:100A300013F00F03F1D0042BEDD1E7E7702B04BFC7
:100A400004236B72D8E6012F7FF63EAF002718E72C
:100A5000012BB2D00D4A136843F0040313606B6896
:100A6000012B02BF2B7A43F040032B722C7A3CB34C
:100A70002046D3E74014002044120020CF4600084F
:100A8000C546000850050020199A00084C0B0020AC
:100A90003D46000890C1793DB0050020C19A00088C
:100AA000814600080C1200200D2B0008492A00087E
:100AB000B0150020A4050020101F002014120020F3
:100AC0002B7843F002032B70A74D4FF480432B8506
:100AD0004FF40043AB611026013E15D0AB8A9BB2A8
:100AE00083F48043AB82AB8A9BB283F40043AB8236
:100AF000AB8A9BB283F40053AB82192004F0A1FCB3
:100B0000192004F09EFCE7E74FF40043AB614FF47B
:100B10008043AB61954E4FF40053AB6132681007D0
:100B200005D5934B1B689847924B01221A70924B44
:100B3000DFED926A1B68924D1A7B924B1A80924BA2
:100B40001B8807EE103AB8EEC77A904BC6EE877A4C
:100B50001B22FF2128469FED8E7A67EE877AC3ED30
:100B6000007A10F087FA00222A703268894B01213E
:100B700012F0020F1970284604D069700321197011
:100B80000221A970510704D519784D1C1D70032549
:100B9000455412F00A0F40F04286039A1568AA06DF
:100BA00004D51A78511C1970072181549BF805202F
:100BB000082A01D00E2A04D11A78511C19700B2171
:100BC00081541A786F0702F101014FF00C06865428
:100BD000C9B248BF0232197042BF1A701022425483
:100BE0001A781226511CC9B286546E05197004D5A4
:100BF0009BF8B861002E40F02186A90504D51A782B
:100C0000511C197015218154EA0504D51A78511C1C
:100C100019701A238354982200215F485E4DDFF833
:100C2000A0A110F027FA012004F012FB4C2758B3C2
:100C3000012C29DC07FB04F905EB090898F84A6048
:100C400016B10134E4B2F2E7037990F9000001969D
:100C50000AEB8303032200921B6B3246012104F04E
:100C600099FA834660B104FB07504C22314610F0DC
:100C700001FA01231C4445F809B088F84A30E4B26F
:100C8000012004F0C3FAD2E7444B2A681A60444BAF
:100C9000444D454A1D60002313809370434ADFF89A
:100CA00024A113605360424ADFF81CC11468414A12
:100CB000DFF818E11560404AE8891370A5F59B75C7
:100CC000B5F84621643204F17D0107B212B2A3F1F6
:100CD0000806F6B2022EDCF8006098BF2AF813204E
:100CE00006F5167688BF2AF813704EF82360013394
:100CF000122BECD1314B03931E6816F4805F08BFB2
:100D0000B5F94A71AAF80670CD348C421CD00B7824
:100D100083B98A78CB789A420CDA6AB1013A02EB4D
:100D2000820202EB820202F561734A7804329BB2BE
:100D30002AF812300431E8E7013303EB830303EBB5
:100D4000830303F56173F0E733074ED595F83E2131
:100D5000062A44D8DFE812F03C008F009200BD0064
:100D6000D800F200F20000BF000800484C0B002041
:100D70000C120020301200206C1600200AE81C41E2
:100D8000510B00200806002092000020D8120020FD
:100D90000000C842500B00203C0600203413002005
:100DA000A80800206A0D0020181600203C1600201C
:100DB000D4150020DC1500202B0800209011002005
:100DC000C812010894110020B8160020C4080020A1
:100DD00045F2F052764B1A8003F0A0F928B90820AA
:100DE00009F0AEFC734B744A1A60039B1A68734B8C
:100DF00012F4804F04D0122119706E4970480860B7
:100E000042F20100024202F4005140F01D851A78BE
:100E10006C4C6D4FDFF8FCB1DFF8FC91043A5A706E
:100E200004F0E8FA694B18606B79052B02BF684B38
:100E30004FF4C8721A8005F02FFC664B4FF47A729B
:100E40001A80002323603B602368002B40F0EA8077
:100E5000232604F0CFFA07F09DFC0A2004F0F1FAF3
:100E6000013EF6D107F06AFCDBF800302360D9F8C8
:100E700000303B60E8E742F6F822ABE74C4B42F625
:100E8000F8221A80544A0A23000190FBF3F0002351
:100E9000A0F5B06042F823000133122BFAD1454A85
:100EA0004E491160454A4020137004F0D1F90028E2
:100EB00095D001234FF0070C90F90000484A8DE8C7
:100EC0000810484B402104F065F9003018BF01209C
:100ED00084E7374B42F6F8221A80364B424A1A60B2
:100EE000364B10221A70402004F0B2F900283FF46B
:100EF00076AF01234FF0000E90F900003B4A8DE8D9
:100F000008404FF4E133DDE7294B42F6F8221A801E
:100F1000284B374A1A60294B08221A70402004F0E7
:100F200097F900283FF45BAF0123002790F90000F8
:100F3000304A8DE888004FF4E133C3E71C4B2E4E56
:100F40002E4C2F48DFF8D4C0DFF8D4E02D4F42F606
:100F5000F8211980194B0C211970062A4FF0000353
:100F60003370237003701AD01B238CF800300523D4
:100F70008EF800103B704FF4E1340E4B224A1A6099
:100F8000402004F065F900283FF429AF0123002632
:100F900090F900001D4A8DE84800234692E721237E
:100FA0008CF800308EF800103A70194CE5E700BF5D
:100FB000D6060020180000206D8B0008300C0020A1
:100FC000458B000878140020741400200C060020C3
:100FD000341F0020B808002034190020118B0008AD
:100FE0006D8D0008A0860100FD8A0008C98C0008EC
:100FF000E58A0008818C0008C2180020A51900208D
:10100000A4190020A7190020118A0008718B00087C
:1010100090D003009C16002098160020A6190020EE
:10102000C11800200023DFF8C0B3DFF8C0932360AD
:101030003B600F264FF0050804F0DCF907F0AAFB2F
:101040000A2004F0FEF9B8F10108F5D107F076FBAB
:101050002368DBF8002039681A44D9F80030226090
:101060000B44013E3B60E5D10F2192FBF1F222607F
:10107000C74A93FBF1F33B60137843F00803137006
:10108000C44A137823F002031370039B1B6840F6D5
:1010900002021A4209D0C04BC04A1A60C04B032258
:1010A0001A70C04B1E80C04B1E80039AAB68136041
:1010B000BE4BDFF83C83DFF824934FF001021A7037
:1010C000BB4A0492137863F07F03137002274FF03A
:1010D00001038DF872308DF87370D8F814104FF446
:1010E000805B1CAC41F48021ADF870B04846C8F874
:1010F0001410214601F012FEC9F818B0282004F09F
:10110000A0F9C9F818B0384604F09BF9A9F828B03E
:10111000384604F096F9C9F818B0384604F091F949
:10112000002002F0B3FF5A213A2002F091FF05207F
:1011300004F087F9384602F0A9FF032002F0A6FF69
:10114000042002F0A3FF052002F0A0FF062002F019
:101150009DFF012004F075F903F0E6FA642004F025
:1011600070F994498DF873704FF08040086092498F
:10117000924808609249934808604FF49661AAF833
:101180000A104FF0000A8DF872A04FF40071ADF80C
:101190007010D8F8141041F480214846C8F8141093
:1011A000214601F0BBFD8DF873708DF872A04FF4ED
:1011B0008071ADF87010D8F8141041F480214846C1
:1011C000C8F81410214601F0A9FD8DF873708DF850
:1011D00072A02021ADF87010D8F8141041F400313D
:1011E000C8F814104FF09040214601F097FD764961
:1011F000049A087893464746894688BBDFF8F4A1ED
:101200009AF800E0BEF1000F2AD1D8F8143043F468
:101210000033C8F81430D8F81C3043F00203C8F883
:101220001C306A4B0FCB84E80F004FF09043242111
:101230001A6A22F070621A621A6A42F000721A6226
:101240002046B5F8E030624AB2FBF3F2734692B240
:1012500001F08EFD5F4B18604FF001038AF80030FB
:1012600099F800305BBBDFF88CA19AF801E0BEF181
:10127000000F24D17B6943F480237B61FB6943F039
:101280000103FB61544B0FCB84E80F00534B1A6AE8
:1012900022F470021A621A6A42F400121A622421BD
:1012A000B5F8E0304A4AB2FBF3F22046734692B2F8
:1012B00001F05EFD474B586001238AF8013099F830
:1012C00000305BBBDFF82CA19AF802E0BEF1000F02
:1012D00024D17B6943F480237B61FB6943F00203E3
:1012E000FB613F4B0FCB84E80F003C4B1A6A22F0A6
:1012F00070421A621A6A42F020421A622421B5F83A
:10130000E030334AB2FBF3F22046734692B201F06A
:101310002FFD304B986001238AF8023099F8003095
:101320005BBBDFF8D0A09AF803E0BEF1000F24D138
:101330007B6943F480237B61BB6943F40053BB6149
:10134000284B0FCB84E80F00244B1A6A22F07062FE
:101350001A621A6A42F0A0621A622421B5F8E030DB
:101360001B4AB2FBF3F22046734692B201F000FD35
:10137000184BD86001238AF80330184A012389F8F2
:101380000030102313854FF09043802134E000BFDC
:10139000151200202C1F0020581A00205C0D002080
:1013A000200600202206002024060020DC07002062
:1013B000D0040020E4120020E0120020ABAAAA3FD3
:1013C000DC12002026B4973E100C002018130108F0
:1013D00000512502F00B00202813010800040048EA
:1013E00038130108481301089C16002098160020A5
:1013F00000100240E60B00201985DFF8EC93022173
:1014000011854FF400421A8599E80F000DF12C0A5E
:101410008AE80F0009F110030FCB0DF13C0C8CE8AA
:101420000F0009F120030FCB0DF14C0E8EE80F00D9
:1014300009F130030FCB84E80F009AE80F00DFF8C2
:10144000AC9389E80F009CE80F0009F1100A8AE8C4
:101450000F009EE80F0009F1200C8CE80F0094E8C3
:101460000F0009F1300E8EE80F004FF4967003F074
:10147000E8FF00214FF48C72CC480FF0FBFDFB69B4
:1014800043F00703FB61BB6943F4A523BB617B69A0
:1014900043F4C0237B6109F1040109F1540ECA46EB
:1014A0004FF00F0C1031714540F0FB806B790E2B23
:1014B00040F0108101238DF86630BD4B1A68042E70
:1014C00000F01181731C02EBC30111F9061C022903
:1014D00040F00781F600B31CD31804D01644B3883B
:1014E000003318BF01238DF86130039B1A68C2F3E3
:1014F00040038DF86230C2F380138DF86430C2F37C
:1015000040338DF85C30C2F3C0338DF85F3012F495
:10151000006304D095F83231991E4B424B418DF84F
:101520006030C2F300438DF86530C2F3C0038DF81C
:101530005E30C2F3804302F0010002F008018DF832
:101540006330D204B5F8E03048BFB5F8DC20B5F818
:10155000D460ADF86A6048BFADF86A20B3F5FA7F91
:10156000ADF86830C4BF0023ADF86A30914B95F8F0
:1015700082211A700023ABF84C309DF866308DF84C
:101580005D00002B0CBF0022022200B901B1013224
:10159000894B8A4E03EB8203D3F8D0309D1E03F1B2
:1015A000060935F8023F4FF6FF72934240F09D80E6
:1015B000834BDFF83CC2DFF83CE204221A700025BE
:1015C00005EB0E030FCB05EB0C061035402D86E81E
:1015D0000F00F5D17B4B7C481A687C4B1E687C4B16
:1015E00002F480521D680023002A00F0CB80B5F978
:1015F000041020F8131001330C2BF5D1022501261D
:101600008DF872608DF873507B69DFF8EC814FF0D4
:10161000100943F48023ADF8709021467B61404669
:1016200001F07CFBA8F828908DF872608DF873505B
:101630007B694FF090494FF0800A43F40033ADF8D6
:1016400070A021467B614FF0904001F067FBC9F824
:1016500018A08DF872608DF873507B69ADF87050EA
:1016600043F480237B612146404601F057FBA8F8F4
:1016700028508DF872608DF873507B694FF40048E4
:1016800043F40033ADF8708021467B61484601F099
:1016900045FBC9F818801E2003F0D3FE31B0BDE829
:1016A000F08F11F8063C11F8050C4FEAD30903F04E
:1016B000070251F8103C03EB89039200D3F8209005
:1016C00090400CFA02F229EA02021A621A6A1043E6
:1016D0001862E7E603F0EF03082B3FF4EBAE0023BC
:1016E000E9E61E46EBE60023FDE69DF86220D8B24F
:1016F0001B0A4AB10BEB0012DFF8FCE011697145DF
:1017000002D1928A012A0AD0022B08D0012B0AEBBF
:10171000001008D19DF85D300BB101F03FFC4D4544
:101720007FF43FAF44E7032BF9D19DF863309BF87A
:101730004D804BB100234FF6FF72082101F018FBDA
:10174000244B46F8280010E0BDF86820BDF86A3048
:10175000B2F5FA7F10DD2049B1FBF2F2242192B2FA
:1017600001F006FB1D4B46F82800C3609BF84D3086
:1017700001338BF84D30D2E71949B1FBF2F2012168
:1017800092B2DBE7B6F9041033E72B7A43F0020399
:101790002B72FFF7A8B80021012B04913FF648A84F
:1017A000104B9DF81C201A70FFF75CB8C81600207B
:1017B000381F0020480B0020C812010874090020BF
:1017C0008E13002090110020120C002050160020D3
:1017D0004C160020112A000800512502252A000875
:1017E00040420F00B005002058130108DC0400201F
:1017F0001C070020A8130108000400481C4B42F2FB
:1018000010721A805A801B4A5A601B4A9A601B4AFF
:10181000DA601B4A1A611B4A5A61FFF71BB91A7832
:1018200004218154511CC9B205254554D11C0232F2
:10183000D2B2197006218154FFF7AFB902321A7083
:1018400013224254FFF7D9B90F4844F620640480AC
:1018500021B1082119700D490D480860D0077FF5A6
:10186000D6AA0C221A70094A0A491160FFF7CFBAAA
:10187000A01600201D7F0008517F0008137F00087C
:101880004F7F0008ED7C0008D606002018000020DD
:10189000618B0008558B0008A9490A682DE9F04FB3
:1018A00002F59C43A74C20332360A74B8BB01D78D7
:1018B0000591002D3AD1A54FDFF8A082DFF8CCA228
:1018C00097F80090E9B249450E4680F2A4800729B6
:1018D000D8BFD8F800303846D8BF595CDAF80030A5
:1018E0009847032E1DDCD8F8003006F10F0B03EBF0
:1018F0008B0133F82B204B8898B1811A4FF47A7002
:101900009B1A484390FBF3F040F2EE2300F57A7007
:101910009842B8BF184640F6CA039842A8BF184676
:1019200080B204EB46060135B080C9E788490968F2
:101930008A4201D9013D1D70864B00931A6812F44A
:10194000805F05D0844B1B68DD0701D409F0AEFC35
:10195000059B1968814B1A68937A002B00F034813B
:10196000013B7F48127B30F913301AB1C3F53B635A
:1019700008331BB2A3F57A73B3F57A7FA8BF4FF48F
:101980007A7323EAE37307EE903ADFED766AF8EEB6
:10199000E77A87EEA67A744ADFED747A67EE277AE3
:1019A000FCEEE77A17EE903A1380009BDFF8E091A7
:1019B0001B6813F4807F00F054816D4B6D4D99428C
:1019C00003D9AB78002B00F04B87AB78002B00F0ED
:1019D0004881614F95F821603B6899F800B0029703
:1019E000012E03F08063DFF894A1634F01930BF0A5
:1019F000040B14BF4FF003084FF0000895F82010B7
:101A0000052900F22881DFE811F01B0193019901FB
:101A1000BC01D401F1014F4B1A68584B029342F2BA
:101A20000101186800900A40039206D094F829300A
:101A300084F82830524B5A781A7094F828601EB1F6
:101A40004F4B1E7886F001060F2384F82A30434B53
:101A500094F82BA01B6801930323BAFBF3F303EB69
:101A60004303AAEB0303DBB25B000493009B454FE7
:101A7000DFF8ECB003F51673002507F1C0020693FA
:101A800007F172084D4542DA690086B137F9150051
:101A9000019B9B8A80B29842C0F2CA86019BDB8A76
:101AA000984200F3C586069B42F8253003E0304695
:101AB000EEE73BF80100039B1BB92BF8150001353D
:101AC000E0E7314B062101FB053E049B2EF80300A5
:101AD00094F8743033B9BAF1020FEEDD4FF0010320
:101AE00084F874304FF0000128F815106B000020C6
:101AF0003EF8101033F808C001306144032823F881
:101B00000810F5D10BB293FBF0F080B2D5E794F852
:101B10002A300F2B174B3DD10F4A1268560139D48A
:101B2000029AD96812689A60521AC82A02D9012208
:101B300083F8212094F82B30013384F82B30FBE616
:101B4000F811002000080020081B0020300C0020A5
:101B5000041B0020901100200C130020DC15002035
:101B60009411002000007A44A80B002000C07F449C
:101B7000404B4C001816002014160020B816002008
:101B80000A000020040800202C0800201800002073
:101B90002C1F0020B84AB94E012151701170029AD1
:101BA00099681268DA60521A59688A4284BF002222
:101BB00083F8212000254D45BCDAE8B207F036FC59
:101BC00026F815000135F6E70098006800047FF557
:101BD000ECAED4F89000081A0028FFF6E6AE01F546
:101BE0009C402030C4F89000A548D27A4579A54899
:101BF000A54E30F8150080B290FBF2F094F89420D6
:101C0000013202F00F0284F89420224482F89500F9
:101C100018461A46855D01302A44102812B2F9D1BF
:101C200092FBF0F212B2002A03DB642A1346A8BF2B
:101C3000642307EE903ADFED956AF8EEE77AA8E6BE
:101C4000BBF1000F68D0012E05D0052008F050FD33
:101C50008F4B02221A70B8F1000F02D0404603F0F9
:101C600087FB8C4DB5F8DE0002F0FEFAAA46064668
:101C700018B904F0F9FC04F0E7FC99F800305B07B0
:101C800008D5009B1B68DF0604D5834B1B78DD0657
:101C900040F1F28500239AF88C819AF88D11BAF8F8
:101CA0004671BAF848E175481A4630F912509B0857
:101CB000BD42C4BF63F07F03DBB201327545B8BFDC
:101CC00043F04003042AF0D194F8B1209A4240F046
:101CD000C18094F8B220F92A02DC013284F8B220E3
:101CE0006E4F84F8B1303B786D4D002B40F0E980A9
:101CF0002B68D80740F1DC80002E40F0AD8099F8C9
:101D00000030DA0740F1DD805B0702D4012384F85C
:101D1000B33009F07FFAD4E0019B4FF4806023B127
:101D200008F000FD00232B6195E708F0EBFCF9E7D4
:101D3000012E7FF463AE052100F09ABD012E04BF91
:101D4000052185F82010BBF1000F0CD0D4F8A810A5
:101D5000B1F90E0049490880488088803868408879
:101D6000C8804FF00208DAF8000069698142C0F0CB
:101D70007B85BBF1000F00F07785012E3FF43EAE6E
:101D800069E799F8001041F0020189F8001009F0A4
:101D90008DFADAF80000E9690144A961042185F8A7
:101DA00020104FF4806008F0ADFC052008F094FC92
:101DB00024E6012E14D1DAF80000A9698142BFF4AB
:101DC0004AAF364B197821B9029B1968CA073FF50B
:101DD00042AF99F8001021F0020189F80010AAE73B
:101DE000DAF80020EB691344AB6134E73868DAF8BD
:101DF0000030C188642000FB01312961002185F891
:101E00002010E970CDE79AF88E317EB9002B00F0F2
:101E10003B85244B1A68D4F8AC309B1A002B80F217
:101E2000338509F043FA84F8B06033E73BB11D4ACB
:101E300012684FF47A7101FB0323C4F8AC3094F8B4
:101E4000B030002B3FF426AF03F088FA002384F86B
:101E5000B0301FE7002241E7D4F8B4300A2B30DC61
:101E6000114B1B885E072CD4104B1B784BBB04F026
:101E7000FBFB04F0E9FB4CE70A0000209411002072
:101E80005C1A00206C1A0020950800200000C8424F
:101E9000321F0020340C0020151200201C000020EE
:101EA0000C130020B8160020241F0020311F002032
:101EB00099F80030580704D594F82830002B40F0EA
:101EC000E98494F8B2309B4E142B2ED13B78C3B1E9
:101ED00094F8B1305F2B06D199F8003013F0040B61
:101EE0006DD009F0E3F9B8F1000F0AD094F8B130E1
:101EF0007D2B06D199F8003013F0040B65D009F062
:101F0000D5F999F8003013F004020ED194F8B130ED
:101F1000572B60D14FF47A73A4F8B830864B1B6806
:101F200013F0080301D1854A1380009B1B685807F2
:101F300026D594F8BC309BB199F8003059070FD5DD
:101F40007F4BB3F90620BAF846319A4208DD2B6878
:101F500013F0010302BF3222A4F8BE2084F8BC3083
:101F60002B68DA0340F1A28094F8C0302BB994F8C2
:101F7000BA3013B93223A4F8BE30012384F8C0303C
:101F8000366800232B6006F17F0706F1CF084FF07B
:101F9000010BB84500F09A803A787B789A420CDAC7
:101FA000394617F8010C03F0B5F930B117F8023CC7
:101FB0002A680BFA03F313432B600437E9E70B207D
:101FC00003F0D6F984F8B2B08DE70B2003F0D0F916
:101FD00084F8B2B095E700990968490740F1628436
:101FE0005A2B40F05F8494F8BA302BB1012384F867
:101FF000BA2084F8BB3098E794F8BC3083F0010332
:1020000084F8BC301BB10C2003F0B2F98DE70D2031
:10201000FAE75B2B00F04B845E2B40F056840320E4
:1020200000F046BCB8F1000F02D07E2B00F05A84BD
:1020300094F8B130972B04D1424B4FF4C8721A80F8
:1020400073E7A72B05D1404A137843F004031370BC
:102050006BE70022BB2B099217D10223ADF8263083
:102060003368BDF82410B3F85C200A44A3F85C2060
:10207000BDF82610B3F85E200A44A3F85E2008F0ED
:1020800007FC002384F8B2304FE7B72B02D14FF69C
:10209000FE73E3E7BE2B03D10223ADF82430DFE764
:1020A000BD2B7FF442AF4FF6FE73F6E794F8BA30DB
:1020B000002B3FF465AF99F8003013F0040302BF22
:1020C00084F8BA30012384F8BB3059E71F4F06F17A
:1020D000CD054FF00C0806F215164FF0010BB54276
:1020E00038D06A78AB789A4221DA691C287803F0F4
:1020F00011F9E0B16979EB78154A95F804C008FB4D
:1021000001FE013B07EB0E0003EB4303134442685F
:1021100093420CD043600023836094F8C13007F8E9
:102120000EC00BFA01F123EA010184F8C110063553
:10213000D5E700BFD41500204C0B0020980B0020E1
:1021400094110020341F002015120020E0150020FB
:1021500016140108C84AC94994F82830D2F80080FA
:102160000F68C74D019300260292042E00F0C08232
:102170006968002962D00A78002A5FD0A868381AF6
:1021800000280BDB07F5FA70A860012000FA06FEB4
:1021900094F8C10020EA0E0084F8C100019B002BD6
:1021A0004CD028784B780430C0B2002B40F06982C4
:1021B000B44B33F910E0BAF8440100F1C80CE6451D
:1021C00028DD91F802B094F8C1103141CB0735D425
:1021D000BBF1000FCCBF02200120039203F0EEF808
:1021E000039A511E13293BD8DFE811F02B0042005F
:1021F0004F0061007A008200E5005601BA01EB0150
:102200001A023A0061006D008200E5005601DC0010
:102210003C01B101C838864504DA91F802B0CBF12F
:10222000000BD0E7012202FA06F194F8C12022EA5D
:10223000010284F8C12007F5FA72AA6001360C3554
:1022400093E798F800209344BBF1FA0FA8BF4FF032
:10225000FA0B2BEAEB7B88F800B0404603F03EF81F
:1022600094F8C1100122B2400A4384F8C120E5E786
:1022700098F801209344BBF1640FA8BF4FF0640BA2
:102280002BEAEB7B88F801B0E7E798F8032093444A
:10229000BBF1640FA8BF4FF0640B2BEAEB7B7A4ACB
:1022A00088F803B01168404602F0D8FFD8E798F8E4
:1022B000051059446429A8BF642121EAE1710D2A5F
:1022C00088F80510CCD098F804209344BBF1640F33
:1022D000A8BF4FF0640B2BEAEB7B88F804B0BFE794
:1022E00098F8062093448BF3080B88F806B0B7E7FC
:1022F00066490968087802283DD107EE90BAF8EEE1
:10230000E76AB2EE047AC6EE877A91ED0A7A77EE42
:10231000877AF5EEC07AF1EE10FA29D49FED5C7A57
:10232000F4EE477AF1EE10FAC8BFF0EE477A0F2AC2
:10233000C1ED0A7A94D007EE90BAF8EEE76AB2EEF1
:10234000047AC6EE877A91ED097A77EE877AF5EE10
:10235000C07AF1EE10FA2BD49FED4D7AF4EE477A65
:10236000F1EE10FAC8BFF0EE477AC1ED097A77E7CF
:10237000DFED487ADBE788785844C828A8BFC82032
:1023800020EAE0700F2A88703FF46AAF4A789344DD
:10239000BBF1C80FA8BF4FF0C80B2BEAEB7B81F84D
:1023A00001B05DE7394A11680A78022AC3D0EDE727
:1023B000DFED387AD9E735490968087802283AD13B
:1023C00007EE90BA9FED327AF8EEE76AC6EE877AAA
:1023D000D1ED0D6A77EEA67AF5EEC07AF1EE10FA3D
:1023E00026D4F4EE477AF1EE10FAC8BFF0EE477A41
:1023F000102AC1ED0D7A3FF433AF07EE90BA9FED8E
:10240000247AF8EEE76AC6EE877AD1ED0C6A77EEA9
:10241000A67AF5EEC07AF1EE10FA29D4F4EE477AF6
:10242000F1EE10FAC8BFF0EE477AC1ED0C7A17E76B
:10243000DFED187ADCE7487B5844C828A8BFC820DD
:1024400020EAE070102A48733FF40AAF0A7B9344F5
:10245000BBF1C80FA8BF4FF0C80B2BEAEB7B81F88C
:102460000CB0FDE6094A11680A78022AC5D0EDE7EA
:10247000DFED087AD9E700BFC0150020B8160020AC
:10248000E015002094110020881100208C110020FC
:102490000000C84200000000C0490968087802280E
:1024A0003ED107EE90BA9FEDBE7AF8EEE76AC6EE2F
:1024B000877A91ED107A77EE877AF5EEC07AF1EEB1
:1024C00010FA2AD49FEDB77AF4EE477AF1EE10FABB
:1024D000C8BFF0EE477A112AC1ED107A3FF4C0AEC2
:1024E00007EE90BA9FEDAE7AF8EEE76AC6EE877A0D
:1024F00091ED0F7A77EE877AF5EEC07AF1EE10FA69
:102500002BD49FEDA87AF4EE477AF1EE10FAC8BF0B
:10251000F0EE477AC1ED0F7AA2E6DFEDA37ADAE7B3
:10252000087E5844C828A8BFC82020EAE070112AB5
:1025300008763FF495AECA7D9344BBF1C80FA8BF9F
:102540004FF0C80B2BEAEB7B81F817B088E6934A73
:1025500011680A78022AC3D0EDE7DFED937AD9E754
:102560008E4A11680A78022A1FD107EE90BAF8EE57
:10257000E76AB2EE047AC6EE877A91ED0B7A77EECF
:10258000877AF5EEC07AF1EE10FA0BD49FED857ADA
:10259000F4EE477AF1EE10FAC8BFF0EE477AC1EDDB
:1025A0000B7A5DE6DFED807AF9E7CA789344BBF1F8
:1025B000C80FA8BF4FF0C80B2BEAEB7B81F803B024
:1025C0004EE6764A11680A78022A1DD107EE90BAC3
:1025D0009FED747AF8EEE76AC6EE877AD1ED0E6A5F
:1025E00077EEA67AF5EEC07AF1EE10FA09D4F4EEA1
:1025F000477AF1EE10FAC8BFF0EE477AC1ED0E7AD5
:102600002EE6DFED697AF9E78A7B9344BBF1C80FC8
:10261000A8BF4FF0C80B2BEAEB7B81F80EB01FE68A
:102620005E4A11680A78022A1FD107EE90BA9FED20
:102630005C7AF8EEE76AC6EE877A91ED117A77EE6A
:10264000877AF5EEC07AF1EE10FA0BD49FED557A49
:10265000F4EE477AF1EE10FAC8BFF0EE477AC1ED1A
:10266000117AFDE5DFED507AF9E74A7E9344BBF13C
:10267000C80FA8BF4FF0C80B2BEAEB7B81F819B04D
:10268000EEE5012B7FF4ECAD0C2A7FF4E9AD474B6E
:10269000897833F910B0464B40F633008345A8BF24
:1026A0008346BBF5617FB8BF4FF4617B4FF4966002
:1026B00090FBF1F01978ABF5617B9BFBF0FB5FFAC7
:1026C0008BFB59453FF4CCADBBF1030FD4BF59464A
:1026D0000221197002FB01A2029B02F22A521A6027
:1026E00005F037FC0BF10100C0B202F067FEB7E560
:1026F000304D314E2B6813F0020F06D1009B1B6842
:10270000DF0506D52D4BDB781BB13368980700F148
:10271000ED80012007F0F6FF012704E003F0A4FF9D
:10272000012007F0FFFF2A68510732D58FB301203F
:1027300007F0E8FF224B1B889A0704D403F094FFAC
:10274000022007F0EFFF99F800305B0708D41C4B1C
:102750001B8803F044031BB11A4B1A881A4B1A80CA
:10276000336813F00A0F40F0C9802B681A054FF444
:1027700080705AD507F0D6FF9AF80530082B02D0A2
:102780000E2B40F0C38040200BB0BDE8F04F07F0A7
:10279000B9BF022007F0B6FFD5E700BF8C110020BB
:1027A00000007A440000C84200000000941100209C
:1027B000D81500200C1300204C0B00201816002008
:1027C000261F0020980B00202E1F0020514B1B8835
:1027D0005F0706D4042007F0A5FF4F4B1A884F4B24
:1027E0001A802B689E061CD54A4B1B88580602D4BB
:1027F000402007F097FF2B68590641BF464A1188D1
:10280000474A118013F0080308D094F8C230002B17
:10281000ABD1414B1A88424B1A80012384F8C23055
:10282000A3E7402007F06EFFE5E707F06BFFA3E7A3
:1028300052F82530009883423FF63BA9E8B2079250
:1028400006F0F4FD032D079A3FF735A994F82A10F6
:102850000123AB4021EA030384F82A30FFF72BB9A8
:102860000123AB70FFF7B1B842F21071E9610321A7
:1028700085F82010FFF7C2B82A4B1B78002B7FF495
:10288000C2AA002E7FF4DBAA102002F071FD012302
:10289000FFF7DDBA11B9002E7FF413AB08F006FD87
:1028A000FFF70FBB5D2B7FF4B4AB012000E00220EB
:1028B000C7B27B1E8AF8283507F052FF05F094FB5B
:1028C000384602F07BFDFFF730BB562B01D107F0F5
:1028D000DFFF3B78002B3FF4ABAB94F8B1306F2BAC
:1028E0007FF4A0AB08F096FCFFF71FBB094B1B88D9
:1028F00013F001073FF412AF002714E72B68DB0643
:102900003FF564AF042007F0FDFE6AE70BB0BDE8B9
:10291000F08F00BF261F0020980B00202E1F0020E4
:10292000580000201C000020024A136C01330B44A5
:102930001364704710090020324A136C90681944E0
:10294000081A40F68C23984270B513469160D06007
:1029500051603BD9117892F94520914221D10A1F4B
:10296000082A1ED893F84620182A03DC013283F87F
:10297000462001E083F8441093F9442091421DD190
:1029800093F84700D0B1204C002004F13C0582426E
:1029900009DC1E4800240B2A0BDC20F8124001320F
:1029A000F9E70022E3E754F8046F25F810600130DE
:1029B000EDE793F86020013283F86020012283F86C
:1029C0004720002283F845101A7070BD92F8471016
:1029D000B9B1A0F2EF2440F2DA518C4208D8117854
:1029E0000B2905DC0B1D0131117042F8230070BD6D
:1029F000002283F84720104699180432302A0861D3
:102A0000FAD170BD100900201C09002058090020CF
:102A1000034B03EB8000436E1B681960704700BFD7
:102A200010090020074B03EB8000436EA1F57A707C
:102A30001A6819894FF47A73414391FBF3F11160DD
:102A4000704700BF1009002013B5012204466B46F1
:102A500002210C2007F0DAF810B9002002B010BDF6
:102A60009DF80030DA07F8D56B46072203210C20C9
:102A700007F0CCF80028F0D09DF806309B07ECD189
:102A80009DF801209DF800309DF8031043EA0223D1
:102A90001BB21D4A07EE903A92ED007AF8EEE77A03
:102AA0000C2067EE877A92ED017AFDEEE77A17EE59
:102AB000903A23809DF8023043EA01231BB207EECF
:102AC000903AF8EEE77A9DF8051067EE877A92ED76
:102AD000027AFDEEE77A012217EE903A63809DF8C4
:102AE000043043EA01231BB207EE903AF8EEE77A8E
:102AF0000A2167EE877AFDEEE77A17EE903AA38017
:102B000007F076F9AAE700BF0C00002007B5002205
:102B10000A210C2007F06CF9142002F092FC0F221D
:102B20000A210C2007F064F90A2002F08AFC01ABAC
:102B3000032210210C2007F069F80A2002F081FC22
:102B40009DF904209FED295ADFED295A294B06EE05
:102B5000902AF8EEE66AF7EE007A76EEC56A9DF9FD
:102B60000520B0EE677AA6EEA57A0A210C2006EEC3
:102B7000902AB3EE0E6AF8EEE66A27EE067A76EE53
:102B8000C56A83ED007AB0EE677AA6EEA57A9DF964
:102B9000062027EE067A83ED017A07EE102AB8EEBA
:102BA000C77A002237EE457AE7EE257A67EE867A15
:102BB000C3ED027A07F01CF90A2002F042FC0DF185
:102BC0000303012202210C2007F020F80DF103037A
:102BD000012209210C2007F019F801220A210C20FA
:102BE00007F006F9012003B05DF804FB0000004384
:102BF0000000803B0C000020F0B5046D866823685F
:102C000023F0010323608379054613F0020F407916
:102C100014BF4FF40052002213F0040F14BF4FF4FE
:102C20008067002710F0010F14BF042100218307E3
:102C3000206820F001002060606820F4405042EAE3
:102C400000026260236823F4B05323F00C0348BFF2
:102C500041F008013B430B432360A36895B023F484
:102C60004073A360684606F0B7F8284B9C4239D100
:102C70000C9A23681F0448BF5200B2FBF6F306FB10
:102C80001322B2EB560F226828BF0133160406D573
:102C9000C3F3420223F00F031B041B0C13439BB22C
:102CA000A3816B79A87913F0020F0CBF00224FF4B7
:102CB000003200F00101DC0748BF42F480322B6D86
:102CC00001B359680A435A609A6801074CBF42F041
:102CD000080222F008029A601A6842F001021A60A3
:102CE00015B0F0BD0A4B9C4201D10D9AC1E7094BCA
:102CF0009C4201D10E9ABCE7074B9C420CBF0F9A35
:102D0000109AB6E7596821EA0202DCE70038014070
:102D10000044004000480040004C0040F7B5064623
:102D20000D46002401272A8807FA04F31A421AD014
:102D3000AA78009302F003038DF80430EB78022B9D
:102D400003D0032B0CBF032301238DF80530694604
:102D5000C2F301133046C2F381028DF806308DF8BC
:102D6000072007F09BFB0134102CDCD103B0F0BD31
:102D70002DE9F743DFF81C9299F894400746154671
:102D800000680A4698462946631C89F8943005F085
:102D9000B9FD3B89ADF8043001A9022378688DF8AC
:102DA00006308DF80730FFF7B9FF97F80AE03A6868
:102DB00009F1980606EB04164946BEF10C0F36D809
:102DC000DFE80EF007353535573535358235353581
:102DD000AC00136ADFF8C09123F001031362136A99
:102DE000D2F804C0906920F4803020F073004A4586
:102DF00040F0700034D009F500694A4530D009F53B
:102E000040694A452CD009F580694A4528D009F522
:102E100080694A4524D043F00303C2F804C090619E
:102E2000C2F834801362936943F0080393613B7BDB
:102E30001BB1536C43F40043536413889BB243F0BB
:102E4000010313802301BEF10C0F00F28E80DFE836
:102E50000EF0878C8C8C958C8C8C998C8C8C9D0036
:102E600023F00E032CF4407C43F003034CF4807CED
:102E7000D3E7136ADFF8209123F010031362136A7B
:102E8000D2F804C0906920F0807020F4E6404A45F2
:102E900040F4E0400FD009F500694A450BD043F0FB
:102EA0003003C2F804C09061C2F83880136293699D
:102EB00043F40063BAE723F0E0032CF4406C43F0E2
:102EC00030034CF4806CECE7136ADFF8CC9023F409
:102ED00080731362106AD2F804C0D3694A4523F0A4
:102EE000730343F0700310D009F500694A450CD014
:102EF00040F44070C2F804C0D361C2F83C80106254
:102F0000D36943F00803D36191E720F460602CF4A7
:102F1000405C40F440704CF4805CEBE7136ADFF8EF
:102F2000789023F480531362106AD2F804C0D369F6
:102F30004A4523F4E64343F4E04340F4405003D0D1
:102F400009F500694A4501D14CF4804CC2F804C02F
:102F5000D361C2F840801062D36943F40063D2E7C2
:102F6000C81802F13404C0F8984019443046A1F85A
:102F7000A050C1F89C2003B0BDE8F083C81802F14E
:102F80003804F0E7C81802F13C04ECE7C81802F175
:102F90004004E8E710090020002C0140F7B58A4CF6
:102FA0000023FF2284F8442084F8452084F846302A
:102FB000C4F86401E360236484F8473023706360DD
:102FC000A36084F85831437B02898DF806300546AA
:102FD00002234068ADF8042001A98DF80730FFF7FF
:102FE0009DFE94F83822AB7A2868012A0CBF032290
:102FF0000022002B40F08A80036A23F00103036261
:103000008369016A23F0F30343F0010343EA0213E7
:1030100021F00A0242F0010283610262836923F017
:103020000C038361836983610122002105F06AFC3E
:103030002A6813889BB243F001031380EB7A8DF862
:1030400004300126002701A88DF805608DF8067070
:103050008DF8076000F046FFEB7A1B2B0BD119238C
:1030600001A88DF804308DF805608DF806708DF894
:10307000076000F037FF554BC4F86831544BC4F873
:103080006C310023C4F870312C68204605F088FCB0
:10309000062839DCA97A4F4A4F4D0A23434303EBF4
:1030A0009103890842F823500433043542F8235031
:1030B0000223E5688B409BB22B43E36003B203EB32
:1030C0008303DB0003F120011144EFF31286502546
:1030D00085F312881033134404251F6817B10F605D
:1030E00019680431013D03F10403F6D10D60F3B218
:1030F00083F31188282303FB0022136A002B5CD082
:10310000E36843F00103E36003B0F0BD042B18D182
:10311000036A23F010031B041B0C03628369016A1A
:1031200023F4734343F4807343EA02334FF65F7230
:103130000A4042F0100283610262836923F4406313
:103140006FE7082B036A1DD123F480731B041B0C4B
:103150000362C369066A9BB223F0F3034FF2FF5187
:1031600043F00103314043EA021341F48071C3612B
:103170000162C36923F00C031B041B0CC361C36908
:10318000C36151E723F480531B041B0C0362C36922
:10319000016A23F440731B0521F400511B0D4904FF
:1031A00043F48073490C43EA023341F48051C36114
:1031B0000162C36923F44063DEE7E36823F001039F
:1031C0001B041B0C9FE700BF1009002039290008D1
:1031D00029290008C8160020780A002038B50446BE
:1031E00024200D4601F0B2FF4D2001F0AFFF002C6E
:1031F000094C14BF21203E2001F0A8FF23680022C3
:1032000028469A7101F0A2FF236893F84900BDE8AF
:10321000384001F09BBF00BF281F0020014600205E
:10322000DCE710B501F088FF044601F085FF04EBF0
:10323000004010BD2DE9F84F4B282DED048B00F018
:10324000118500F2F080322800F050856BD82228DA
:1032500000F040842BD8032800F0CE8207D8012844
:1032600000F0AD82022800F0B7820020C0E20428FE
:1032700000F0C9820528F8D11A20FFF7CFFFC84D0A
:103280000024285D013401F061FF0B2CF9D1C54DFC
:103290000024285D013401F059FF082CF9D10024E5
:1032A0000020013401F052FF072CF9D19FE22828B9
:1032B00000F0BF8413D8242800F0B0842628D4D18D
:1032C000B94C0620FFF7AAFFB4F8E80001F050FF60
:1032D000B4F8EA0001F04CFFB4F8EC004CE22A2804
:1032E00000F0BA842C28C0D1AF4C0C20FFF796FF19
:1032F00094F83E0101F02AFFB4F8480101F038FFCC
:10330000B4F8440101F034FFB4F8460101F030FF95
:1033100094F83F0101F01AFFB4F84A0101F028FFC8
:10332000B4F84C0128E23D2800F0178344D838282F
:1033300000F07A8433D8342800F0EF83362894D113
:103340009A4D994C95F86400C0EBC000C0B2FFF7ED
:1033500065FF04F12006683594F9980100230C33C9
:10336000EA1812F90C2C824240F0D584C0B201F068
:10337000EDFEB4F89A0101F0FBFE94F89C0101F017
:10338000E5FE94F89D0101F0E1FE94F89F0101F043
:10339000DDFE94F89E0101F0D9FE00F0BFBC3A2892
:1033A00000F0D2823B287FF460AF0120FFF736FFA8
:1033B0007F4B1B6818780CE2452800F0C18426D8A2
:1033C000402800F09A8442287FF44FAF764C1020BA
:1033D000FFF724FF607901F0B9FEA06801F0D1FE8B
:1033E00094F83E0101F0B2FEB4F8E80001F0C0FE2E
:1033F000B4F8EA0001F0BCFEB4F8EC0001F0B8FE4D
:10340000B4F82E0101F0B4FEB4F83001B4E146285E
:1034100000F0898449287FF428AF0220FFF7FEFEE0
:10342000614B9889A8E1732800F0C38300F25681AC
:103430006C2800F0518200F2D180662800F01682DC
:1034400000F295804D2800F0318465287FF40DAF9F
:103450000B20FFF7E3FE574B544C188801F088FE11
:10346000554B1A68554B9A420CBF554B554B188813
:1034700080B201F07DFE2068C0F3C003C0F380027B
:103480009B0043EA4203C0F340021343C0F34012DF
:1034900043EAC20300F01000184301F069FE4A4BF2
:1034A00026791A88494B1968494B1B7802F00100AC
:1034B000C3F3800343EA4003C2F3400043EA8003BE
:1034C00002F008000343C2F3800043EA0013C2F392
:1034D000801043EA401301F04000034301F08000F4
:1034E000034301F480700343C2F3001043EA402316
:1034F000C2F3401043EA8023C2F3002043EAC02312
:1035000001F48050034301F40050034301F4804070
:10351000034301F40040034301F48030034301F40A
:103520000030034301F48020034301F400200343EF
:1035300001F480100343C2F3402043EA405301F0FA
:103540000071C2F380220B43002043EA82630534FA
:1035500002460125B24280F06681115D05FA01F153
:1035600019421CBF05FA02F108430132F2E768284C
:1035700000F0A68169287FF478AE164D164E2878A3
:10358000400000F0FE00FFF749FE00242B789C422B
:1035900080F02D8136F8140001F0EAFD0134F5E7E2
:1035A0004E1701085A170108340C00204C0B00205C
:1035B000D4150020241F0020201F002000540040AC
:1035C0000C1F00200E1F0020261F00200C130020BF
:1035D0002C1F0020300C0020941100206F2800F0D8
:1035E000C78130D86D2800F086816E287FF43DAE0B
:1035F0000720FFF713FEC54BC54C1888FF28A8BF4E
:10360000FF20C0B201F0A2FDA06D4FF6FF75A842E9
:10361000A8BF284620EAE07080B201F0A9FDB4F806
:103620005C0001F0A5FDBB4B93F83331002B00F09B
:103630009081236E0A205843A842A8BF284620EA5A
:10364000E07080B298E0702800F0BA8172287FF4B0
:103650000CAEB04C1620FFF7E1FDB4F8440101F0C8
:1036600087FDB4F8D00001F083FDB4F8D20001F07A
:103670007FFDB4F8D40001F07BFDB4F8860101F0C1
:1036800077FD002001F062FD002001F05FFD0020C9
:1036900001F05CFD94F8330101F058FD94F840010D
:1036A00001F054FD002001F051FD9B4B1B68B3F964
:1036B0005A000A2390FBF3F080B201F059FD94F810
:1036C000280101F043FD94F82C0101F03FFD94F82E
:1036D0002B0101F03BFD94F82D017AE0A02800F0C9
:1036E0008D8222D8772800F049820FD8742846D0DE
:1036F00075287FF4BAAD2F20FFF790FD874C14F8A2
:10370000010F002873D001F021FDF8E77B2800F0BD
:1037100026837C287FF4A9AD0320FFF77FFD804B33
:10372000187801F025FD7F4B44E6F02800F059821F
:103730000AD8DD2800F01083DE287FF496ADFFF76D
:1037400070FDFFF76EFD52E0FE2800F03D82FF287D
:103750007FF48BAD744A6E4C1188002323840122C0
:10376000114266D101339BB25200092B92B2F7D1BC
:103770000220FFF753FD208C01F0FAFC37E0644F84
:1037800000264FF0010ADFF8BC914FF0000B3B79A7
:103790005B4540F3E981654B0C251BF80340002392
:1037A00005FB03F202EB090012F80920A24200F027
:1037B000DC8201331C2BF3D10BF1010BE7E7032073
:1037C000FFF72CFD002001F0C1FC022001F0BEFC3F
:1037D000002001F0BBFC0AE00520FFF71FFD544D5F
:1037E0000024285D013401F0B1FC052CF9D1012041
:1037F000BDEC048BBDE8F88FFFF710FD022001F04F
:10380000A5FC0020E2E70B20FFF708FD072001F0F0
:10381000AFFC484D0024285D013401F097FC072CD3
:10382000F9D10020A8E701F0ACFC3A4B93F8280549
:10383000CFE7013B072B05D8DFE803F007090B0EA4
:10384000101214160123238492E70223FBE740237E
:10385000F9E74FF48073F6E78023F4E72023F2E7DB
:103860001023F0E70823EEE70423ECE71220FFF72C
:10387000D5FC314B264C1B88B3F5806FD4BF012695
:103880000826002504F1220737F9150090FBF6F011
:10389000013580B201F06CFC032DF5D1208D01F0D3
:1038A00067FC608D01F064FCA08D244C01F060FC8D
:1038B000208801F05DFC608801F05AFCA0885BE77D
:1038C0001020FFF7ABFC1E4D0024285D013401F0F1
:1038D0003DFC102CF9D18AE70D4C0620FFF79EFC29
:1038E000B4F8460001F044FCB4F8480001F040FC94
:1038F000B4F84C0040E7064C0620FFF78FFC206D23
:1039000001F03FFCB4F8540036E700BF001B002074
:103910004C0B0020340C0020D41500205114010859
:10392000321F002094000020241F0020510B002093
:1039300040170108461701089200002004120020D9
:103940007A0B0020F01501080420FFF767FC002027
:1039500061E1206E00F30F0073E6CA4C0220FFF70E
:103960005DFC94F88E0101F0F1FB94F88D0130E7D5
:10397000C54C0B20FFF752FC2368187801F0E6FBDA
:103980002368587801F0E2FB002523682B440135B9
:10399000187901F0DBFB032DF7D12368D87901F00A
:1039A000D5FB2368987801F0D1FB2368D87801F023
:1039B000CDFB2368588901F0DBFB2368187A08E700
:1039C000B24C2120FFF72AFC23681B78022B4FF012
:1039D00000056CD19FEDAE9ADFEDAE8AB2EE048A9F
:1039E000236803EB850393ED090A20EE080A0BF028
:1039F0002BFE80F30800C0B201F0A8FB236803EBA4
:103A0000850393ED0C0A20EE090A0BF01DFE80F3EE
:103A10000800C0B201F09AFB236803EB850393ED25
:103A20000F0A20EE280A0BF00FFE80F30800C0B248
:103A3000013501F08BFB032DD2D1072D236829D14D
:103A400093ED120A20EE080A0BF0FEFD80F3080049
:103A5000C0B201F07BFB236893ED130A20EE080A45
:103A60000BF0F2FD80F30800C0B201F06FFB236899
:103A700093F8503000EE103AB8EE400A0BF0E4FD37
:103A8000FF28A8BFFF20C0B2013501F05FFB0B2D5E
:103A9000D3D1ACE62B44587801F058FB23682B4473
:103AA000187B01F053FB23682B44D87DECE7236897
:103AB0002B44587801F04AFB23682B44187B01F013
:103AC00045FB23682B440135D87D01F03FFB0B2DCE
:103AD000EDD18CE65020FFF7A1FBDFF8B0816E4EF0
:103AE00000250C27D8F8004004EB8504013594F834
:103AF0007D3007FB0363187A01F028FB94F87E0001
:103B000001F024FB94F87F0001F020FB94F8800082
:103B100001F01CFB142DE5D169E64820FFF77EFB80
:103B20005A4F002506263C6806FB0544013594F8EB
:103B3000D20001F00BFB94F8CD0001F007FB94F8E4
:103B4000CE0001F003FB94F8CF0001F0FFFA94F8E7
:103B5000D00001F0FBFA94F8D10001F0F7FA0C2D37
:103B6000E1D144E6464427E6BAF1000F3FF43FAE08
:103B7000F0B2FFF753FB4FF0000A04E6474C464D06
:103B80002079FFF74BFB0026671D4FF00C082379C7
:103B90009E42BFF42CAEF05D002308FB03F25119E6
:103BA000525D824200F0F48001331C2BF5D10136C6
:103BB000EDE70820FFF732FB0124E0B2013401F009
:103BC000C5FA092CF9D112E60820FFF727FB0020DF
:103BD00001F0CEFA002001F0CBFA002001F0C8FA83
:103BE0001FE62A4C0420FFF719FB2368B3F85E0098
:103BF00001F0BEFA2368B3F85C00BDE50C20FFF7C6
:103C00000DFB274B186801F0BCFA264B186801F031
:103C1000B8FA254B186801F0B4FAE8E50420FFF77C
:103C2000FDFA184B9868F6E70420FFF7F7FA154CF1
:103C300045E5144C0720FFF7F1FAB4F82E0101F026
:103C400097FAB4F8300101F093FA94F8320101F0D8
:103C50007DFAB4F834018FE50120FFF7DFFA094B54
:103C60005879B6E5074C0420FFF7D8FA94F8840198
:103C700001F06CFA94F8850101F068FAB4F8860155
:103C80007AE500BF340C0020C0150020D4150020B8
:103C90000000C84200007A44F01501084C0B0020D7
:103CA000ACF7FF1FB0F7FF1FB4F7FF1F3A4D3B4CB7
:103CB000287800EB4000C0B2FFF7B0FA00262B785E
:103CC0009E4204F10204BFF492AD14F8020C01F01C
:103CD0003DFA14F8010C00EB800000EB800000F2CC
:103CE000EE2080B201F044FA0136E8E70120FFF748
:103CF00095FA2B4B93F840016BE50820FFF78EFAFD
:103D0000274D00246319013493F8360101F01EFA9F
:103D1000082CF7D16BE5302B7FF421AB0834A64299
:103D20007FF41AAB63E50D20FFF778FA002001F06D
:103D30000DFA002001F025FA002001F022FA06E633
:103D40001320FFF76BFA174D0024285D013401F0B2
:103D5000FDF90B2CF9D1EFE701F0EEF947E5022070
:103D6000FFF75CFA104B188806E54568284607F00F
:103D7000A7FB8046BAF1000F7FF4F4AE2C46631B1C
:103D800098457FF719AD14F8010B01F0DFF9F6E75C
:103D9000087A01F0DBF90AE7300C0020820D0020E0
:103DA000340C00204E17010896000020104A40F203
:103DB000E933118989070AD50E4A0D49107040F27E
:103DC000E9330889C0070DD51078C0B27047013BB0
:103DD0009BB2002BEDD1084A138801339BB21380AC
:103DE000FF207047013B9BB2002BEAD1F3E700BFF5
:103DF000003800400C380040E40B0020B1F5FA6FA9
:103E0000A8BF4FF4FA61B1F57A7FB8BF4FF47A7169
:103E10000BB2072840D8DFE800F00418222C364007
:103E20004A542F4A907858B1D3681A68A1F57A702D
:103E3000198941434FF47A7391FBF3F11160704794
:103E400092F82C1041B3D3857047254AD07808B139
:103E50001369EAE792F82C10F1B113867047204AF3
:103E6000107908B15369E0E792F82C10A1B153869C
:103E700070471B4A507908B19369D6E792F82C1025
:103E800051B1938608E0164A907908B1D369CCE71E
:103E900092F82C100029D6D07047114AD07908B179
:103EA000136AC2E792F82C100029F5D1D5E70C4A25
:103EB000107A08B1536AB8E792F82C100029EBD1B8
:103EC000D5E7074A507A30B1936A1A681B89A1F581
:103ED0007A715943AEE792F82C100029D1D0DBE774
:103EE000E40B00200C4B10B5DB6802780B48DB4379
:103EF000C3F302230121C3F1040301FA03F384187D
:103F00001B01DBB284F80033530902F01F0201FAEF
:103F100002F240F8232010BD00ED00E000E100E0D7
:103F2000084B4FF47A72594301F5FA714FF4FA6372
:103F3000B1FBF3F3B1FBF2F102FB0030B0FBF1F0A7
:103F4000704700BF002F3A00F0B54FF0FF33CF08A5
:103F5000136001F007014FEAC70E3D460026052D0C
:103F600000D806B1F0BD445DAF4203BF0C41E4B2DE
:103F70000B46334614F0010F06D07344136001263C
:103F800001350EF1080EEAE70133082B4FEA54041D
:103F9000F0D1F5E72DE9F04F87B00DF11808109D2D
:103FA00048F80C5D294F1C4681468A4693460026F8
:103FB0000123119A964221D10026129B1D60CEB991
:103FC0002146484606F0E0FF064698B904AD2B4668
:103FD0000622B02199F85C0105F018FE002808BF00
:103FE0006FF013060023E15CEA5C91422AD10133B1
:103FF000062BF8D1304607B0BDE8F08F424629467F
:1040000058460193FFF7A0FF039A531C17D002F103
:10401000B401890957F82110003118BF0121514519
:104020000DD1D108019B02F0070005299FBF03FABB
:1040300000F5605C28436054551C0136B9E76FF009
:104040003106BAE76FF03106D4E700BF84140108E7
:10405000F8B50D4C20250746258532200E4601F087
:10406000E5F947F08000FFF7A1FE322001F0DEF90C
:104070003046FFF79BFE322001F0D8F9A561C82039
:1040800001F0D4F90120F8BD000400481F4B2022A4
:1040900010B51A850446322001F0C8F904F07F00FB
:1040A000FFF784FE322001F0C1F9194A4FF6FF7183
:1040B00093894FF47A73148914F002040CD0154AD2
:1040C0001348FF2111704FF6FF71048914F00104A9
:1040D00016D01478E4B208E0013B9BB28B42EAD1DF
:1040E0000D4A138801339BB21380322001F09EF9F0
:1040F000064B20229A61C82001F098F9204610BD95
:10410000013B9BB28B42E0D1EAE700BF00040048CC
:10411000003800400C380040E40B002007B51B4B72
:1041200003F14C029A6493F88E212AB3012A0AD132
:10413000032183F8A015072183F8A22583F8A11590
:104140000C2283F84C20124B124A1A60402001F0D6
:104150007FF870B10122002390F9000040218DE822
:104160000C004FF4E1330C4A01F014F8003018BF92
:10417000012003B05DF804FB022183F8A0150321A0
:1041800083F8A22583F8A1150722DAE7E40B0020C3
:1041900018000020B98A0008398C00080D4B03F57F
:1041A0009072C3F8A425C3F8A81500F150039842F3
:1041B00007D002781AB98178C278914207DB0430BF
:1041C000F5E70023044A83F00103137170470123CC
:1041D000F8E700BFE40B00201800002070B5222291
:1041E00000211248124E0CF045FF0022114B052110
:1041F00001241046042A03F108030CD0955D03F84E
:10420000085C03F8041C03F8034C03F8010C03F8E2
:10421000021C0132EEE7084B0122A3F8EA21022238
:10422000A3F8F221522283F8E62170BDCA0D0020C6
:1042300094140108CC0D0020E40B002010B506F00A
:10424000BDF84FF43024012806D10CB9052010BD6B
:1042500006F0B4F8013CF6E7002C08BF052010BDBD
:1042600000210120FEF7BABF0B4AD2F8AC3513F497
:10427000805FB2F9B6350AD0B2F89421111A8B4298
:1042800008DD10448342B4BF002001207047B2F81B
:104290009601F7E701207047E40B0020164B194602
:1042A000002241F80C2F4A608A6019461A6041F8D2
:1042B000182F5A609A604A608A601946303393ED2D
:1042C000000A41F8242FB4EE400AF1EE10FA4A60D9
:1042D0008A6006D693ED021AB4EE411AF1EE10FA96
:1042E00007D79FED061AF0EE410AB0EE410A03F03F
:1042F00063BAD3ED010AFAE7BC1100200000000008
:104300002DE9F041624CD4F81436D4F818269A1AE4
:10431000002AC0F2848003F5C332A032C4F81C36F0
:1043200004F5C460D4F82C36C4F81826984704F570
:10433000C46194F83026084604F0C2FE94F8312691
:1043400012F0040F04F5C4601CD0D4F81836C4F879
:104350003436002384F8383604F5A8759E4604F2F6
:104360003A6704F5C86630F9131027F8131026F8D9
:1043700013100133032B25F802EFF4D122F00402CD
:1043800084F83126D4F83426DAB1D4F81836414905
:104390009B1A414A934201F106064FF0000340D8B0
:1043A00030F9132031F913705D009742775FC8BF71
:1043B00021F81320974203F10103B8BF7253032B76
:1043C000EED194F84C3653B3B4F82206B4F8542125
:1043D000B4F82436B4F85211801AB4F85A2112FBFA
:1043E00000F210B2B4F856219A1AB4F85C3113FBFB
:1043F00002F3B4F82026511AB4F8582112FB01F246
:104400001BB20A2112B293FBF1F392FBF1F2A4F872
:104410002436A4F8202690FBF1F2A4F82226BDE869
:10442000F08101F10C07C4F83436A1F2EA4C4FF0E8
:104430000208384631F913E036F913200EEB020575
:10444000A2EB0E0202EB820227F8132095FBF8F58F
:104450000133032B2CF8025FECD1B4F94826B4F9F0
:1044600046360E4E1344B4F94A260A2113445943E2
:104470000022B518835E0232062A03EB430391FB48
:10448000F3F3A5F80831F4D106F002FA99E700BF7A
:10449000E40B00201E1200207FC3C901340C002051
:1044A00013B5144601AB042290F85C0105F0AEFB95
:1044B000019B00281BBA0CBF6FF013000020236083
:1044C00002B010BD13B5144601AB022290F85C0196
:1044D00005F09CFB9DF804209DF80530002843EA78
:1044E00002230CBF6FF013000020238002B010BD28
:1044F00008B5134690F85C01012205F087FB0028FF
:104500000CBF6FF01300002008BD2DE9F3474FF0FA
:10451000000A88461646FF210122054699469DF865
:1045200028708DF807A005F090FC524604465146CD
:10453000284605F08AFC52460443FF21284605F030
:1045400084FC64B2044364B2B9F1000F06D0424661
:10455000CB212846FFF7CCFF044364B23FB10DF1F5
:104560000702EE212846FFF7C3FF044364B201228D
:10457000FF21284605F069FC01220443002128465A
:1045800005F063FC64B204430022FF21284605F0D5
:104590005CFC64B29DF80730204323F0100340B266
:1045A000337002B0BDE8F08773B5064600250122DE
:1045B0000B21304605F049FC002204460B21304611
:1045C00005F043FC0DF10702044313213046FFF7C9
:1045D0008FFF9DF8073064B2204301355B0740B27E
:1045E000EDB205D0032D08D00028E0D002B070BD98
:1045F000032D08BF6FF00B00F8E76FF00B00F5E735
:10460000F7B590F85C6115461C4601220DF10703D1
:1046100030460F4605F0FAFA68B19DF807202A40A7
:104620002243394630468DF8072005F0E1FB10B1F2
:10463000002003B0F0BD6FF01300FAE737B50F4B61
:1046400004465D6818786A460621A847A0B19DF81F
:1046500000209DF8013043EA022323809DF80220C8
:104660009DF8033043EA022363809DF804209DF8FF
:10467000053043EA0223A38003B030BD101F0020A1
:1046800013B50F4B04465B686A4606213B209847EA
:10469000A0B19DF800209DF8013043EA0223238059
:1046A0009DF802209DF8033043EA022363809DF8C1
:1046B00004209DF8053043EA0223A38002B010BD18
:1046C000101F00200A460146682005F091BB08B57E
:1046D00013460A460146682005F098FA003018BFD4
:1046E000012008BD13B50E4C2378B3B96368A3B19C
:1046F0001A681AB10B49486902434A619A88ADF8B1
:10470000042002228DF807209868002201A98DF864
:104710000620FEF703FB0123237002B010BD00BF8B
:10472000401200200010024008B500217F20FFF752
:104730008FFC01215520FFF78BFC07215020FFF74C
:1047400087FC0E217F20FFF783FC10214320FFF719
:104750007FFC02214820FFF77BFC00217F20FFF730
:1047600077FC7B215120FFF773FC00215020FFF7DD
:104770006FFC00215520FFF76BFC00217F20FFF725
:1047800067FCAD216120FFF763FC03217F20FFF769
:104790005FFC00214020FFF75BFC05217F20FFF735
:1047A00057FCB3214120FFF753FCF1214320FFF7D1
:1047B0004FFC14214520FFF74BFC34215F20FFF70D
:1047C00047FC08217B20FFF743FC34215E20FFF7E4
:1047D0003FFC32215B20FFF73BFC32216D20FFF7CD
:1047E00037FC17214520FFF733FCE5217020FFF748
:1047F0002FFCE5217120FFF72BFC06217F20FFF71E
:1048000027FC1B214420FFF723FCBF214020FFF79A
:104810001FFC3F214E20FFF71BFC08217F20FFF7E4
:1048200017FC44216620FFF713FC20216520FFF7C9
:104830000FFC3A216A20FFF70BFC05216120FFF7EE
:1048400007FC05216220FFF703FC09217F20FFF709
:10485000FFFBAF214F20FFF7FBFB80214820FFF734
:10486000F7FB80214920FFF7F3FB77215720FFF763
:10487000EFFB40215F20FFF7EBFB78216020FFF783
:10488000E7FB78216120FFF7E3FB08216220FFF7B7
:10489000DFFB50216320FFF7DBFB0A217F20FFF7BE
:1048A000D7FB60214520FFF7D3FB00217F20FFF7D6
:1048B000CFFB11214D20FFF7CBFB80215520FFF7C7
:1048C000C7FB21217420FFF7C3FB1F217520FFF7D1
:1048D000BFFB78214A20FFF7BBFB78214B20FFF775
:1048E000B7FB08214420FFF7B3FB50214520FFF719
:1048F000AFFBFE216420FFF7ABFB1F216520FFF714
:10490000A7FB0A217220FFF7A3FB00217320FFF70A
:104910009FFB0C217F20FFF79BFB84214420FFF7A6
:1049200097FB47216520FFF793FB18216620FFF7CF
:104930008FFB70216320FFF78BFB2C216F20FFF78B
:1049400087FB15217F20FFF783FB48210846FFF7EF
:104950007FFB07217F20FFF77BFB0D214120FFF725
:1049600077FB14214320FFF773FB0E214B20FFF749
:104970006FFB0F214520FFF76BFB42214420FFF71F
:1049800067FB80214C20FFF763FB10217F20FFF79E
:104990005FFB03215B20FFF75BFB07217F20FFF715
:1049A00057FB41214020FFF753FB0A2000F049FD4F
:1049B00000217F20FFF74CFB00213220FFF748FB4E
:1049C00007217F20FFF744FB40210846FFF740FB0B
:1049D00006217F20FFF73CFB70216820FFF738FBA2
:1049E00001216920FFF734FB0D217F20FFF730FB09
:1049F000C0214820FFF72CFBD5216F20FFF728FBB3
:104A000000217F20FFF724FBA0215B20FFF720FB84
:104A1000A8214E20FFF71CFB50215A20FFF718FB5E
:104A200080214020FFF714FB1F217320FFF710FBAC
:104A30000A2000F006FD00217320BDE80840FFF7C2
:104A400007BBAB4A2DE9F04F916842F20F73441A4D
:104A50009C4289B040F22081137B9060002B47D0AC
:104A6000B2F90E400A2C12DC53691569D361002695
:104A7000D362013400239561566216629562136316
:104A80005363D363136453649364D364D481B2F9DE
:104A90005040052C40F3D880B2F9523002EB830528
:104AA00001331BB2052BAE6D6D6F5665C8BF002379
:104AB000013C1567A2F85230A2F85040D2ED087AB6
:104AC00092ED157A37EE877AD2ED047A77EEC77ACF
:104AD00092ED1C7AC2ED237AD2ED097A37EE877A0D
:104AE000D2ED057A77EEC77A0023C2ED247A1373EC
:104AF00007EE900AB8EE677A07EE901AF8EE677A3A
:104B0000D16B069177EE677A9FED7A7A116C0491FA
:104B1000C7EE875A0023516CA2F894300291956C2D
:104B2000D16C01930393059307931F46D2ED262A78
:104B300092ED273AD2ED283A92ED294A6E4A9FED3E
:104B40006F2ADFED6F1ADFED6F4A02F10800009067
:104B5000A2F11C09A2F1880C02F11004A2F1900E3E
:104B6000A2F180081846A2F1780BA2F1A80A1EB2A1
:104B7000022E74D0002D6CD05BF8237007EE105A13
:104B800007EE907AF8EEC76AF8EEE77A87EEA67A33
:104B900084ED007AD4ED007A22EEA77AB4EEE17AC1
:104BA000F1EE10FA58D4B4EE647AF1EE10FAC8BF00
:104BB000B0EE647A012E84ED007A0DD10021CAF89E
:104BC0003010CAF8341030460196029103960491D1
:104BD0000596069107960D46B9EC016AD2ED007A6A
:104BE000009E66EE036A26EE235AE5EEA67A0133AE
:104BF000D6ED006AE2EC017AE5EE856A77EE877A17
:104C000026EE045A9CED006AE4EC017A65EEA77A80
:104C1000A5EE856AB6EE007AB0EE665AA7EE875A20
:104C20009EED007AACEC016AA5EE857A76EEA77A65
:104C300036EE076AE6EC017A00960126AEEC017AC0
:104C4000A8EC016A374692E793695365D369136705
:104C500034E784ED002A9DE79FED297AAAE7244BEB
:104C60000FB1A3F89460079A02B19D64059A0AB146
:104C7000069ADA63039A0AB1049A1A64019A0AB18D
:104C8000029A5A6400B1D96493F8C0200132D2B2BA
:104C9000092A04D883F8C02009B0BDE8F08F0022AB
:104CA000B3F9505083F8C020B3F85220164CD3F813
:104CB00018E0DF69A8B2111889B20EB2052ECABF7A
:104CC000063926802180B4F9001003EB8101052DFF
:104CD000C1F858E04F6703DC0130A3F85000DBE770
:104CE000013212B2052AC8BF0022A3F85220D3E72E
:104CF0004012002000247449E81200200000000047
:104D0000000048C4000048441E000020F8B5B74C1D
:104D1000D4F8C430013B062B00F2EC80DFE813F03E
:104D200007005D009400040120014601CB01B04D55
:104D3000D4F8C8202B689B1A40F6980293420DD9EC
:104D4000D4F8CC3043F00803C4F8CC300023C4F8C6
:104D5000C4300120BDE8F84005F0E4BCA54FA64EE4
:104D6000012005F0DFFC3B684B221A715A71D4F820
:104D7000CC3083F00803C4F8CC30D4F8D030632BA7
:104D800003DC4FF4FA63F380F8BD012005F0BAFCB0
:104D900094F8D4206E2332B93A6853714FF47A7381
:104DA0007380022307E0012A0BD13A6853714FF454
:104DB000FA6373800523C4F8C4302B68C4F8D83074
:104DC000F8BD032A3A68137103D14FF47A73338024
:104DD000E7E74FF4FA633380ECE7D4F8CC300120F6
:104DE00083F00803C4F8CC3005F08CFC94F8D42090
:104DF0007F4B81494FF47A7052B9B4F9DE20488074
:104E0000B2F5E17F07DD0322C4F8C4201B68D5E7B3
:104E1000032A088012D00222C4F8C4201B68D4F8E8
:104E2000D8209B1AB3F5FA6F64D30023C4F8C430BA
:104E3000C4F8D830BDE8F84006F038BAB4F9DC1050
:104E4000B1F5E17FE7DDDFE794F8D4309BB9B4F941
:104E5000DE30B3F5E17F4EDDD4F8CC30012083F0B5
:104E60000803C4F8CC3005F04DFC634B40F27E42A1
:104E70005A805F4BD2E7032B3CD1B4F9DC30B3F559
:104E8000E17F18DDD4F8CC30012083F00803C4F8AA
:104E9000CC3005F037FC584B4FF483621A80544BEA
:104EA000D4F8D8201B689B1AB3F5FA6F22D30023DD
:104EB000C4F8C43082E79BB2B3F5E17F1AD8B4F8E6
:104EC000DE30FA339BB2B3F5FA7F13D8D4F8CC3086
:104ED000012043F00803C4F8CC3005F023FC464B16
:104EE0004FF483621A80424B1B68C4F8D830042305
:104EF000C4F8C430F8BD9BB2B3F5E17FFAD8B4F87A
:104F0000DC30FA339BB2B3F5FA7FF3D8D4F8CC3067
:104F1000012043F00803C4F8CC3005F003FC364B05
:104F200040F201425A80DEE7D4F8CC30012043F051
:104F30000803C4F8CC3005F0F5FB2F4B4FF4FA62B0
:104F4000DA802C4B1B684B225A711A71284BD4F80B
:104F5000D8201B689B1A40F2DC529342A7D8C6E7C0
:104F6000012005F0CFFB94F8D420214B2249012ADF
:104F700009D14FF4FA624A80B4F9DE2012F5E17FDC
:104F800006DA062240E740F2B770022A08800AD00B
:104F90000522C4F8C4201B68D4F8D8209B1AB3F5A6
:104FA000FA6F84D2F8BDB4F9DC20E7E794F8D400B6
:104FB000012823D1B4F9DE3013F5E17F5FDAD4F8AC
:104FC000CC3083F00803C4F8CC3005F09BFB0A4BCF
:104FD00040F23A725A80064BD4F8D8201B689B1ACC
:104FE000B3F5FA6FBFF463AFF8BD00BF4012002005
:104FF000B8160020C01500209411002002287FF46C
:1050000079AFB4F9DC3013F5E17F16DAD4F8CC309F
:10501000012083F00803C4F8CC3005F073FB384B53
:1050200040F2B7721A80374BD4F8D8201B689B1A0D
:10503000B3F5FA6FBFF43BAFF8BD03F5E1739BB274
:10504000B3F5C87F3FF656AFB4F8DE30FA339BB203
:10505000B3F5FA7F3FF64EAFD4F8CC30012043F0E1
:105060000803C4F8CC3005F05DFB254B40F23A72E2
:105070001A80244B1B68C4F8D830072338E703F59F
:10508000E1739BB2B3F5C87F3FF634AFB4F8DC30C0
:10509000FA339BB2B3F5FA7F3FF62CAFD4F8CC309D
:1050A00043F00803C4F8CC3005F03CFB144B40F24D
:1050B000B7725A80DDE7D4F8CC30012043F0080302
:1050C000C4F8CC3005F02EFB94F8D430012B0C4BF7
:1050D0004FF4FA621CBF4FF4AF611980DA800A4BBB
:1050E0001B684B221A715A71064BD4F8D8201B68E2
:1050F0009B1A40F2DC5293423FF6D9AEBDE700BFA7
:1051000094110020B8160020C0150020044A5368EE
:1051100023B192F90020824200D11847704700BFA6
:105120002C130020034B1B68DA79511CD9711344EE
:10513000187A7047281F002010B5FFF7F3FF84B2DC
:10514000FFF7F0FF04EB002080B210BD064B10B556
:1051500001460446986805F0EBF9044B1B689A7900
:1051600054409C7110BD00BF2C130020281F00204C
:1051700010B50446C0B2FFF7E9FF200ABDE81040B1
:10518000E4E710B5044680B2FFF7F2FF200CBDE85B
:105190001040EDE72DE9F34188469DF824E0184ED4
:1051A00011461A469DF8203005460C24002004289C
:1051B00007460AD0013004FB006C1CF90CCCAC454E
:1051C000F5D104FB0764208908B1002002E025B175
:1051D000012D11D002B0BDE8F0810A48CDF800E001
:1051E00004F054FA0028F5D00C2303FB0766057180
:1051F000A6F808807060EDE7CDF800E00248EFE720
:10520000B40B0020003801400044004070B50E4946
:105210000E4A0B7B12680025032B05DD05B10B73CD
:10522000002070BD2346F7E702EBC3065C1CB6887E
:105230003042E4B24FF00105F4D00C730820022193
:1052400010FB0310104470BD2C130020381F0020E9
:10525000014B00221A73D9E72C1300202DE9F041ED
:105260001D4D00240A274FF47A7682781FFA82FEB9
:10527000A4EB0E031BB2002B2ADDC2F16402D2B2F2
:1052800090F8038003FB03FC08FB0CFCC8F16408E6
:105290000EEB8E0E12FB02F29CFBF2F242445343E1
:1052A00093FBF7F303EB4E031BB26B800A88B1F854
:1052B00002E00A34AEEB020EA4B203FB0EF3782C2C
:1052C00093FBF6F3134425F8023FCED1BDE8F081FD
:1052D00008BF0122D4E700BF3813002030B50C4CC2
:1052E000002340F6C415072B10D003FB03F2A2F1F4
:1052F000190142784A4302F6C41201785A434A43DC
:1053000092FBF5F224F813200133ECE730BD00BF27
:10531000521300200430104B10B533F910200C78D4
:1053200040F633039A42A8BF1A46B2F5617F4FF0A8
:10533000190340F28330B8BF4FF4617213FB0404C9
:10534000944207DA497813FB01009042B4BF002071
:10535000012010BD002010BD94110020034B00223D
:1053600083F834209A639A871A6470472C130020BC
:1053700070B408B970BCF1E70E4A00230C25114641
:1053800005FB03F4A65C864209D10B4B186C50B1A7
:10539000224455784278954205DB70BC7047013352
:1053A000102BEDD1F9E70022214419649A879A6302
:1053B000F3E700BF981401082C13002040000C4AAA
:1053C000142870B4A8BF1420002302F1440102265F
:1053D00014255E540233CC18984204F8015CF8DCC2
:1053E0001344FF2283F844200F2070BCC0E700BFA5
:1053F0002C13002010B50A490A480A68846800BFC7
:105400000B689A42F9D1084BD96D4FF47A7000FBC2
:1054100001F31B1BB3FBF1F300FB023010BD00BF17
:10542000B816002010E000E02C13002038B5044628
:10543000FFF7E0FF0546FFF7DDFF401BA042FAD370
:1054400038BD10B5044604B910BD4FF47A70FFF7AB
:10545000EDFF013CF7E72DE987482D4C06460B2769
:10546000013FFCD04FF01E0B05254FF0020806F05F
:10547000400906F0200A00E00025B9F1000F04D031
:10548000A38A9BB283F48043A382BAF1000F04D0B5
:10549000A38A9BB283F40043A38216F002021FBFCB
:1054A000A38A9BB283F40053A38258460192FFF76C
:1054B000C8FF019AB9F1000F04D0A38A9BB283F40C
:1054C0008043A382BAF1000F04D0A38A9BB283F475
:1054D0000043A38222B1A38A9BB283F40053A38228
:1054E0005846FFF7AEFF7DB1013DC6D14FF4FA70CB
:1054F000FFF7A7FF4FF0960BB8F1000FBCD14FF4A8
:105500007A70FFF79EFFABE708F1FF38F4E700BFC2
:1055100000080048024A136801331360704700BF57
:10552000B81600200920F1E52820EFE506EE901AD4
:10553000B8EEE66ADFED106A104B9FED117AB3F812
:10554000603026EE266AF7EE005AC5EE866A07EE50
:10555000903AF8EE677A67EE877A90ED007A76EE09
:10556000A76A30EE470A87EEA66AA6EE007AB0EE8A
:10557000470A80ED007A7047DB0FC9402C130020EA
:10558000BD3786352DE9F74F244D254E254F002494
:1055900095F86280E0B240450ADA56F820302BB127
:1055A0000B2803DCDB6837F8101098470134EFE76D
:1055B0001D4B1B685B032DD50025194FDFF86CB020
:1055C00029464FF0500A4FF028092A46EEB2B0455E
:1055D00020DD57F826305C688C4214D020460192BA
:1055E00003F0DEF9EFF312838AF31288616A09FB94
:1055F00000B001314162616941F001016161DBB2DA
:1056000083F31188019A57F826301B6801351A6018
:105610002146DBE703B0BDE8F08F00BF2C1300206C
:10562000740900207A0B002090110020C816002079
:105630002DE9F04FF34BF44CD3F80090D4F868A068
:10564000F24DDFF80884F24FF24E2DED0A8BD14572
:1056500083B0B0EE40BADFEDF08ADFEDF09A9FED57
:10566000F09A9FEDF0AA00F01083EF4BC4F8689019
:105670001A780193DFF8D8B3002A4ED1BBF9023073
:10568000D5ED085AD5ED060A07EE903ABBF904307D
:1056900000EE103AB8EEC07AF8EEE77A95ED070A18
:1056A000BBF9003065EE876AB7EE006AE7EE806A04
:1056B00020EE470AA0EEE06AA7EEA50A60EEE60A31
:1056C00006EE903AF8EEE66AB1EE400AE6EE260AF9
:1056D0000AF008F9DFEDD57AB4EEE70AF1EE10FA38
:1056E000B0EE401A00F1AD82DFEDD17AB4EE670A78
:1056F000F1EE10FAC8BFB0EE671ACE4AD2ED010A39
:1057000092ED000A02F058F8019BC8ED008A0122D0
:10571000C8ED018AC8ED028A1A70BBF90030D5EDD8
:1057200001AAD5ED006A07EE103ABBF9023008EE87
:10573000103AB8EEC88AB8EEC77ABBF9043068EE02
:105740002AAA07EE903AE7EE26AAF8EEE77AD5ED18
:10575000026AE7EEA6AAD5ED046AC4ED1BAA28EEFC
:10576000268AD5ED036AA7EE268A95ED057AA7EE7F
:10577000878A28EE08CA84ED1C8AB0EE4C0AAAEE8D
:10578000AA0A0AF02DF9CAEE80BAB0EE4C0AABEEC6
:10579000AB0A0AF025F9DFEDA87AB0EEEB7AB4EEA9
:1057A000677AF1EE10FA09DCC8EE00AAB0EEEA7AE8
:1057B000B4EE677AF1EE10FA40F36482DFED96AA58
:1057C00097ED010A97ED007AD7ED027AD5ED08BA88
:1057D00020EE000AA7EE070AA7EEA70A0AF000F9D2
:1057E000D5ED097AF4EEE97AF1EE10FAB4EEC90AD1
:1057F00048BFC5ED099AF1EE10FAB0EE40CA00F1CB
:105800002382DFED947AB4EEE70AF1EE10FA00F3AA
:105810001E82C0EE097A6BEEAABA95ED098A94ED64
:105820001E0A6BEEA77A20EE000A27EE888AD4EDD6
:105830001D7AA7EEA70A0AF0D3F8F1EE007AB4EECB
:10584000E70AF1EE10FA9DBFF1EE027A77EEC07A28
:105850009FED7A0ADFED7A7A336898BF67EE807A37
:10586000D90768EE277A58BFB2EE007AC8ED027AFF
:1058700058BF67EE877AA9EB0A0358BFC8ED027AD2
:1058800007EE903A9FED6F7AF8EE677A67EE877AC7
:10589000B0EE007AF4EEC77AF1EE10FA05D5B4EE68
:1058A000CACAF1EE10FA00F10582D4ED207AB4F8FC
:1058B0008430F0EEEAAA7AEEA7AA0133C4ED20AA5A
:1058C000A4F88430B4F98630D5ED01BAD5ED006A7C
:1058D000D5ED04AA5B4207EE903AB4F988305B42FA
:1058E00008EE103AB8EEC88AB4F98A30B8EEE77A12
:1058F00068EE2BBA5B4207EE903AE6EE87BAF8EE16
:10590000E77AD5ED026A68EE2AAAE6EEA7BAD5EDE7
:10591000036AC4ED1DBAE7EE26AAD5ED056AE7EEE7
:10592000A6AAD5ED076AC4ED1EAA28EE268AD5EDF3
:10593000066AA7EE268A95ED087AA7EE878AD4ED47
:10594000237A84ED1F8A3BEE27BADFED3F7A84EDA0
:1059500023BA6AEEA7AA6BEEA7BA6AEEAACA28EE25
:10596000278AB0EE6C0AABEEAB0AA8EE080A0AF082
:1059700037F88BEE80CAB0EE6C0AACEE0C0AA8EEDB
:10598000080A0AF02DF8CAEE80BA2BEEAB0AACEE8C
:105990000C0AA8EE080A0AF023F888EE000AB0EE16
:1059A0004C8AA0EE288AB0EE6B7A90EE687AD5ED3C
:1059B000037AD5ED006AD5ED04AA97ED010A68EEE9
:1059C000277A68EEEBBAE7EE267AECEE28BAD5ED48
:1059D000066AEBEEA67A68EE2AAAC4ED247AB0EE47
:1059E00067CAD5ED017AE7EE27AAD5ED077AEBEE87
:1059F000A7AAD5ED057AC4ED25AA28EE278AD5ED0C
:105A0000027A29E0001200202C1300202000002040
:105A1000E01100200C13002000000000CDCC4C3D14
:105A2000F3665F3FC2B8B23E1C1200209A9949C08B
:105A30009A994940EC110020FFFF7F7FCDCC4C3E6E
:105A4000CDCCCC3DBD37863500008039D411002047
:105A50000412002058A00B41A7EE278A20EE000A6E
:105A600097ED007AD5ED087AA7EE070AABEEA78A84
:105A7000D7ED027A84ED268AA7EEA70A09F0B0FFD7
:105A8000D5ED0A7AF4EEE97AF1EE10FAB4EEC90A2D
:105A900048BFC5ED0A9AF1EE10FA00F1DB805FED28
:105AA000137AB4EEE70AF1EE10FA00F3D68080EE36
:105AB000097A864B95ED0A6A2CEE077AB4EEC90A8C
:105AC00067EE066AF1EE10FAC3ED006A00F1C880D5
:105AD000DFED7F7AB4EEE70AF1EE10FA00F3C3804F
:105AE00080EE097A2AEE877AB4EEC90A27EE067AA2
:105AF000F1EE10FA83ED017A00F1B880DFED747AEF
:105B0000B4EEE70AF1EE10FA00F3B380C0EE097AC2
