:020000040800F2
:1000000000A00020C9F6000831F7000831F7000809
:1000100031F7000831F7000831F700080000000050
:1000200000000000000000000000000031F70008A0
:1000300031F700080000000031F70008A54C000867
:1000400031F7000831F7000831F7000831F70008F0
:1000500031F7000831F7000831F7000831F70008E0
:1000600031F70008B54C000831F7000831F70008F7
:1000700031F7000831F70008259B000831F7000828
:1000800031F7000831F7000831F7000831F70008B0
:1000900031F7000831F7000831F7000831F70008A0
:1000A0006D880008D18800085D880008C1880008B4
:1000B000B1880008A18800089188000831F700087D
:1000C00031F7000831F7000831F7000831F7000870
:1000D00031F70008D5890008C989000831F7000800
:1000E000B94C000831F7000831F7000831F7000873
:1000F0008D88000831F700087D88000831F7000876
:1001000000000000000000000000000031F70008BF
:1001100031F7000831F7000831F7000831F700081F
:1001200031F7000831F7000831F7000831F700080F
:1001300031F7000831F7000800000000000000005F
:1001400031F7000831F7000831F70008000000001F
:10015000000000000000000000000000000000009F
:10016000000000000000000031F7000831F700082F
:1001700031F700080000000000000000000000004F
:080180000000000031F7000847
:1001C0002DE9F04FC1B007F0D5FE18B908F034F8AA
:1001D0000AF066FBBF4DC04C07F0F2FE2B7843F0EF
:1001E00001032B70BD4B4FF47002C3F8882000232D
:1001F000089309930A93236843F4803323602368A8
:1002000003F400330993089B01330893099B1BB93E
:10021000089BB3F5A04FF2D1236813F4003318BF45
:1002200001230993099B012B40F0788202230A9352
:10023000AB4B12221A606368636063686360636833
:1002400043F480636360636823F47C1363606368D2
:1002500043F4E8136360236843F0807323602368EA
:100260009901FCD5636823F003036360636843F07E
:1002700002036360636803F00C03082BFAD10A9B46
:10028000964F6B60974BFB60636A636ADFF89C82F2
:10029000DFF89CB2DFF89CA243F08073636263696D
:1002A00043F4FC0340AE636103238DF8B23041F6A2
:1002B000FF7326F8503D4FF09040314605F0F8FAB4
:1002C0004FF6FF7331468848ADF8B03005F0F0FACC
:1002D0003146404605F0ECFA3146844805F0E8FA2C
:1002E0003146834805F0E4FA3146824805F0E0FAE9
:1002F000304608F059FD2C9B7F4AB3FBF2F37F4A4E
:10030000DFF834E213607E4B7E4A4FF0000CC3F8F6
:1003100000C0C3F804C07C4B5A60F02287F8232049
:100320000722C3F808C01A60DBF80830CAF80030AA
:10033000BEE80F0037460FC7BEE80F000FC79EE8A4
:100340000F0087E80F00636943F40023636163696A
:1003500043F400236361636943F4002363616369C9
:1003600043F4003363614FF0904310221A8520223A
:100370001A8540221A854FF40043C8F818304FF40C
:100380008043C8F818304FF40053C8F81830674657
:10039000CDF80CA0391DF0593144083705F088FA22
:1003A000302FF7D1039B594AD3F80090584BDFF810
:1003B0008C811A60574B04221A7000213A4640463D
:1003C00010F018FF01270021142288F8001088F887
:1003D000181088F8241088F80C7027A810F00AFF6D
:1003E00019F4802F08BF4C4BDFF8FC8008BF1F704A
:1003F0002B784A4F43F004032B7009F0C9F8484B9F
:100400001F60636943F480236361E36943F400136D
:10041000E361236B23F010032363236B43F010038A
:100420002363D8F8243023F00F03C8F82430D8F819
:10043000243043F00403C8F82430D8F8243023F0E3
:10044000F003C8F82430D8F8243043F04003C8F84B
:1004500024304FF002034FF000094FF0030A8DF8EB
:10046000B43031464FF4807340468DF8B5A02C93DC
:100470008DF8B6908DF8B7900AF0B0F84FF400738D
:10048000314640462C930AF0A9F83B6823F001035B
:100490003B603A68234B13403B60234B3B613B6816
:1004A00043F001033B60C7F80890C7F80C90C7F809
:1004B0000890BB6843F40043BB603B683B607B68CB
:1004C00023F0784323F400437B603B6843F001034F
:1004D0003B6035E0D00400200010024000ED00E059
:1004E000002002400005FA0500040048000C004806
:1004F000001000480014004840420F007411002012
:10050000181100203F19010010E000E0F60A002059
:10051000381F0020F80F0020DC07002000540040A6
:10052000201B0020FFE0CF007A25E00000080048F3
:1005300060090020E40E002048140108FC0F002090
:10054000039B1F68774B049310221846494610F00E
:1005500051FE4FF002038DF89130049B8DF890A06E
:100560004FF6FF7207F0020723928DF892908DF8F4
:1005700093909A4687B140A9012741F8747D40467F
:100580000AF02CF80C238AF8003007238AF801902F
:100590008AF803308AF802704FF4D87008F0F4FB40
:1005A0006369614843F0805343F00203636108F0DC
:1005B000EBFB636943F0005343F0020363615B4C60
:1005C000204609F022FF304609F0F4FE4FF4807215
:1005D000574B32924FF480622C933392554B2D93AC
:1005E000202200232046349231464FF400522E93AD
:1005F0003093319335923693ADF8BC7009F0E7FE35
:10060000236843F0010323604B4CA36823F040535D
:10061000A360A36843F08053A3600A2004F0D9FAD2
:10062000A36823F08043A360A368A360A36843F09A
:100630000043A360A368002BFCDBA3683F4ADFF8FC
:10064000F88023F04053A360A36843F00053A360F5
:1006500091683B4B0B4043F468339360E268394B3D
:10066000134043F40053E360236B013F23F00F0377
:100670001F432763012200240AEB0403997841B148
:10068000571CFFB2DB781AF80410404609F04AFF05
:100690003A460434102CEFD1274B9A6842F00102FD
:1006A0009A601A68D207FCD5DA6822F00202DA6092
:1006B000DA6842F00202DA60DA6842F00102DA60D7
:1006C0009A6842F004029A60BBF9E830002B41D0EE
:1006D00007EE903ADFED1C6ABBF9EA301B4AF8EEF0
:1006E000E77A07EE103A67EEA67ABBF9EC30CDED6B
:1006F0002C7A07EE903AB8EEC77AF8EEE77A002146
:1007000027EE267A67EEA67A1170304610498DEDF5
:100710002D7ACDED2E7A0AF021F823E001230A93F9
:10072000ADE500BF5C1A00200036001058040240FE
:10073000400400506C1A00200004005000070050D4
:10074000E010FCFF07C0FFFD35FA8E3C940000204E
:10075000341A0020BBF9EA20002AB9D1BBF9EC20F9
:10076000002AB5D1DFF8E082BBF8F030DFF8DCA278
:10077000059300249BF8EF30C8F800401022214672
:10078000C8F80440C8F808409F4804932C729BF8AE
:10079000F77010F02FFD9D4BA5F809402320CAF8F3
:1007A0000040CAF80440CAF808401C6004F011FA7E
:1007B0001BAA0121752003F052FBD146F0B1944BE6
:1007C000CAF80430934BCAF808301FAA432301210A
:1007D00020468AF8003003F042FB9DF87C3003F09D
:1007E0007E038DF87C30002800F09180682B40F06B
:1007F0008E8001236B721D238AF800306A7A864B43
:1008000006930021042A197040F0D8877E4B834A52
:10081000834C1A60834A5A60834ADA6022680791DF
:1008200042F0010020609A464FF0010940F2022098
:1008300040F2FD1E049B0A2B28BF002309FA03F196
:1008400011EA000C40F0C08711EA0E0F00F0BC87DF
:10085000764B83F800C0764BC8F8003042F00302B4
:10086000744BC8F80430226023689B0702D5D8F87F
:1008700000309847DAF800300598DFF8D4819847BF
:100880004FF00009CA4688F800A017B1BB1E022B22
:100890007ED83346012200210C208DF8B09008F05C
:1008A00013FF002874D09DF8B030482B70D1624BF4
:1008B000624A1A60624A5A60062388F80030236848
:1008C00043F0080323609BF8E4300BB1069A1370E1
:1008D0009BF8E5300BB1554A13709BF8E6300BB12D
:1008E00088F800309BF8F820042A55D94C4A136840
:1008F00043F0040313606B68012B02BF2B7A43F0B3
:1009000040032B722C7A002C5AD020462BE09DF805
:100910006C3003F07E03682B8DF86C3033D10223EA
:1009200006216B723246D9F80430084698479DF884
:10093000B5309DF8B3209B00520002F0020203F094
:10094000040313439DF8B12002F001021343DAB20D
:100950005BB1012A02D10023AB724FE7022A01D119
:100960000123F9E7022004F03EF9D9F8043023AA64
:1009700001210C2098479DF88C3013F00F03F1D023
:10098000042BEDD1E7E7702B04BF04236B7235E72E
:10099000012F98D9002776E70123934013F0160F13
:1009A00006D113F0090F08D002F010FA00289DD1EB
:1009B0002B7A43F020032B729DE7012AF8D095E7AC
:1009C0002B7843F002032B701E4D4FF480432B8590
:1009D0004FF40043AB611026013E3BD0AB8A9BB283
:1009E00083F48043AB82AB8A9BB283F40043AB8237
:1009F000AB8A9BB283F40053AB82192004F0E9F870
:100A0000192004F0E6F8E7E7681400203010002011
:100A10005F3E0008553E000850050020D5940008B0
:100A2000940F0020CD3D000890C1793DB005002015
:100A30007D950008113E0008600F0020C198000855
:100A40005956000800080048A4050020101B00208B
:100A5000680F00204FF40043AB614FF48043AB615B
:100A6000924E4FF40053AB613268100705D5904B9E
:100A70001B6898478F4B01221A708F4BDFED8F6AEE
:100A80001B688F4D1A7B8F4B1A808F4B1B8807EE8C
:100A9000103AB8EEC77A8D4BC6EE877A1B22FF213B
:100AA00028469FED8B7A67EE877AC3ED007A10F0C7
:100AB000A1FB00222A703268864B012112F0020F3E
:100AC0001970284604D06970032119700221A97099
:100AD000510704D519784D1C1D700325455412F09B
:100AE0000A0F40F07C86039A1568AF0604D51A7881
:100AF000511C1970072181549BF80520082A01D048
:100B00000E2A04D11A78511C19700B2181541A78BD
:100B10000C268654511C6E0748BF0232C9B21970A8
:100B200042BF1A70102242541A78511CC9B21226C0
:100B30006F051970865404D59BF8B861002E40F0FB
:100B40005D86AE0504D51A78511C197015218154A3
:100B5000E90504D51A78511C19701A238354982278
:100B600000215D485C4DDFF8A0A110F043FB01209F
:100B700003F036FF4C2758B3012C29DC07FB04F99E
:100B800005EB090898F84A6016B10134E4B2F2E7BF
:100B9000037990F9000001960AEB83030322009287
:100BA0001B6B3246012103F0BDFE834660B104FB9E
:100BB00007504C22314610F01DFB01231C4445F820
:100BC00009B088F84A30E4B2012003F0E7FED2E72A
:100BD000424B2A681A60424B424A43491A6000233A
:100BE0000B808B70414842490260A2F59B780B60F4
:100BF00040484B604049B8F846210D680370B8F88A
:100C000044013E4EDFF804C13D4F643205F17D01E1
:100C10000FFA80FE12B2A3F10804E4B2022CDCF851
:100C2000004098BF26F8132004F5167488BF26F8F4
:100C300013E047F823400133122BECD1314C2768E5
:100C4000FA0458BFB8F94AE1A6F806E0CD358D425E
:100C50001CD00B7883B98A78CB789A420CDA6AB1C7
:100C6000013A02EB820202EB820202F561734A78DA
:100C700004329BB226F812300431E8E7013303EB6B
:100C8000830303EB830303F56173F0E73B074CD564
:100C900098F83E21062A42D8DFE812F03A008F0089
:100CA0009200BD00D800F300F30000BF940F0020B5
:100CB000600F0020840F0020841600200AE81C41E9
:100CC000990F00200806002096000020C410002084
:100CD0000000C842980F00203C0600202011002090
:100CE000A8080020960A002030160020F4150020E5
:100CF000541600202B080020EC150020E80E0020E0
:100D0000C4080020E40E002048140108B816002092
:100D100045F2F052794B1A8002F018F828B90820F1
:100D200009F0AEFD764B774A1A602268764B12F4D2
:100D3000804F04D01221197071497448086042F242
:100D40000100024202F4005140F05E851A78704FB3
:100D5000DFF808B2DFF808A2043A5A7003F012FF75
:100D60006C4B186098F80530052B02BF6A4B4FF4A6
:100D7000C8721A8005F074FC684B4FF47A721A80BE
:100D8000674B00223A601A6099463B68002B40F09E
:100D9000EF80232503F0F6FE07F0E6FC0A2003F0BF
:100DA00018FF013DF6D107F0B1FCDBF800303B60E5
:100DB000DAF80030C9F80030E7E742F6F822A9E790
:100DC0004E4B42F6F8221A80564A0A23000190FB45
:100DD000F3F00023A0F5B06042F823000133122B9A
:100DE000FAD1474A50491160474A4020137003F036
:100DF000F7FD002893D001234FF0070990F9000078
:100E00004A4A8DE808024A4B402103F08BFD00302E
:100E100018BF012082E7394B42F6F8221A80384B7E
:100E2000444A1A60384B10221A70402003F0D8FD53
:100E300000283FF474AF01234FF0000C90F900003C
:100E40003D4A8DE808104FF4E133DDE72B4B42F6C5
:100E5000F8221A802A4B394A1A602B4B08221A7042
:100E6000402003F0BDFD00283FF459AF01234FF0AF
:100E7000000E90F90000324A8DE808404FF4E1334B
:100E8000C2E71E4B2F4F304D3048DFF8D890DFF8C7
:100E9000D8C0DFF8D8E042F6F82119801A4B0C21AF
:100EA0001970062A4FF000033B702B7003701BD0A3
:100EB0001B2389F8003005238CF800108EF80030D1
:100EC0004FF4E1350E4B224A1A60402003F088FDB2
:100ED00000283FF424AF0123002790F900001D4AA9
:100EE0008DE888002B468FE7212389F800308CF8A5
:100EF00000108EF80020184DE4E700BFD606002051
:100F0000100000203D8B00085C090020158B0008B4
:100F1000A01400200C060020341F0020B808002078
:100F20009C14002034190020E18A00083D8D00083F
:100F3000A0860100CD8A0008998C0008B58A0008B7
:100F4000518C0008C2180020A5190020A419002007
:100F5000E1890008418B000890D00300B4160020FE
:100F6000B0160020A6190020C1180020A7190020E3
:100F70000023DFF8C0B3DFF8C0A33B60C9F800303E
:100F80000F250523039303F0FDFD07F0EDFB0A2079
:100F900003F01FFE039B013BF4D107F0B7FB3B6856
:100FA000DBF80020D9F800101A44DAF800303A6073
:100FB0000B44013DC9F80030E3D10F2192FBF1F25F
:100FC0003A60C44A93FBF1F3C9F80030137843F058
:100FD00008031370C04A137823F0020313702368C8
:100FE00040F602021A4209D0BC4BBD4A1A60BD4B02
:100FF00003221A70BC4B1D80BC4B1D80D8F80830F2
:101000002360BB4BDFF834A3BA4C4FF001021A70D7
:10101000B94A137863F07F034FF0020913704FF061
:1010200001038DF8B2308DF8B390DAF814204FF444
:10103000805B42F480222CAF39462046ADF8B0B038
:10104000CAF8142004F034FCC4F818B0282003F0C7
:10105000C0FDC4F818B0484603F0BBFDA4F828B0A2
:10106000484603F0B6FDC4F818B0484603F0B1FD99
:10107000002001F023FE5A213A2001F001FE052054
:1010800003F0A7FD484601F019FE032001F016FE0B
:10109000042001F013FE052001F010FE062001F0EF
:1010A0000DFE012003F095FD02F006FF642003F021
:1010B00090FD924A4FF080411160914A9149116030
:1010C000914A924911604FF496627281904A914917
:1010D000002616704FF400404FF400528A610392CC
:1010E00088614FF4804088618DF8B2608DF8B390CC
:1010F0001021ADF8B010DAF8141041F40031CAF83C
:1011000014104FF09040394604F0D2FB039A8DF84A
:10111000B2608DF8B390ADF8B020DAF8142042F444
:1011200080222046CAF81420394604F0C1FB8DF80D
:10113000B2608DF8B390DAF81420774EADF8B0B005
:1011400042F48022CAF814202046394604F0B0FB4D
:10115000327854468ABBDFF8E89199F800E0BEF196
:10116000000F2AD1DAF8143043F40033CAF81430EF
:10117000DAF81C3043F00203CAF81C30674B0FCB7F
:1011800087E80F004FF0904324211A6A22F0706222
:101190001A621A6A42F000721A623846B8F8E030F1
:1011A0005F4AB2FBF3F2734692B204F0ABFB5D4BC5
:1011B00018604FF0010389F8003033785BBBDFF82B
:1011C000809199F801E0BEF1000F24D1636943F4E6
:1011D00080236361E36943F00103E361524B0FCB6A
:1011E00087E80F00434B1A6A22F470021A621A6AE7
:1011F00042F400121A622421B8F8E030484AB2FBE7
:10120000F3F23846734692B204F07CFB454B5860CB
:10121000012389F8013033785BBBDFF8249199F81A
:1012200002E0BEF1000F24D1636943F480236361BF
:10123000E36943F00203E3613C4B0FCB87E80F0007
:101240002C4B1A6A22F070421A621A6A42F020424B
:101250001A622421B8F8E030314AB2FBF3F2384682
:10126000734692B204F04EFB2E4B9860012389F82E
:1012700002303378002B65D1DFF8C49099F803E091
:10128000BEF1000F5ED1636943F480236361A369FB
:1012900043F40053A361264B0FCB87E80F00154B97
:1012A0001A6A22F070621A621A6A42F0A0621A6226
:1012B0002421B8F8E0301A4AB2FBF3F238467346FC
:1012C00092B204F01FFB174BD860012389F803305A
:1012D00038E000BF690F00202C1F0020581A0020A2
:1012E000880A002020060020220600202406002074
:1012F000DC07002000040048D0040020D0100020AB
:10130000CC100020ABAAAA3FC810002026B4973EFC
:1013100008000020000800483C090020981401083B
:10132000005125021C090020A8140108B814010866
:10133000C8140108B4160020B016002000100240A6
:1013400012090020012739463846377004F078FA30
:10135000CE4ADFF87893102313854FF090434FF077
:10136000020880211985A2F828804FF400421A85CE
:101370004FF47A71002001F0DFFA38464FF47A71A9
:10138000C34F01F0D9FA40464FF47A7101F0D4FA14
:101390004FF47A71032001F0CFFA97E80F000DF1B6
:1013A0002C0E8EE80F0007F110030FCB0DF13C0E51
:1013B0008EE80F0007F120030FCB0DF14C0888E8F1
:1013C0000F0007F130030FCB0DF15C0C8CE80F0020
:1013D00007F140030FCB0DF16C0B8BE80F0007F109
:1013E00050030FCB0DF17C0E8EE80F0007F1600368
:1013F0000FCB0DF18C0E70378EE80F0097E80F00C1
:101400000DF1B00A8AE80F00337809F1100E09F1E6
:10141000200709F13006002B00F028819BE80F001F
:1014200089E80F001FAB0FCB8EE80F0023AB0FCB6B
:1014300087E80F009AE80F0086E80F004FF49670D7
:1014400003F0C7FB00214FF48C7292480FF0D2FEDC
:10145000E369914943F00703E361A36943F4A523DA
:10146000A361636943F4C023636101F150070F2650
:1014700010318F4240F02E81884A53790E2B40F074
:10148000428101238DF8A630854B1968042D00F0A8
:1014900043816B1C01EBC30010F9060C022840F0DD
:1014A0003981ED00AB1CCB1804D00D44AB88003360
:1014B00018BF01237B488DF8A13001680390C1F368
:1014C00040038DF8A230C1F380138DF8A430C1F32E
:1014D00040338DF89C30C1F3C0338DF89F3011F448
:1014E000006304D092F83231981E434243418DF894
:1014F000A030C1F300438DF8A530C1F3C0038DF8CF
:101500009E30C1F3804301F0010601F008008DF820
:10151000A330C904B2F8E030B2F8D45048BFB2F8F2
:10152000DC10ADF8AA5048BFADF8AA10B3F5FA7FA9
:10153000ADF8A830C4BF0023ADF8AA305A4B92F8DA
:1015400082215A4D1A700023A5F84C309DF8A63020
:101550008DF89D60002B0CBF0022022206B900B15D
:101560000132534B534F03EB8203D3F810319E1ECD
:1015700003F1060B36F8023F4FF6FF72934240F03C
:10158000CD804D4BDFF848E14C4F04221A70002506
:10159000EB190FCB05EB0E061035402D86E80F003A
:1015A000F6D1039B46481A68464B1E68464B02F428
:1015B00080521D680023002A00F0FD80B5F9041058
:1015C00020F8131001330C2BF5D1022501268DF8DC
:1015D000B2608DF8B35063692C4F4FF0100843F49C
:1015E0008023ADF8B08051466361384604F060F95D
:1015F000A7F828808DF8B2608DF8B35063694FF07A
:1016000090484FF0800943F40033ADF8B090514654
:1016100063614FF0904004F04BF9C8F818908DF8D2
:10162000B2608DF8B3506369ADF8B05043F48023D5
:1016300063615146384604F03BF93D858DF8B26050
:101640008DF8B35063694FF4004743F40033ADF8AD
:10165000B07051466361404604F02AF9C8F818702A
:101660001E2003F0B6FA41B0BDE8F08F98E80F00F5
:1016700089E80F009CE80F008EE80F000FAB0FCB3E
:1016800087E80F000BAB0FCBD6E600BF0004004885
:10169000D8140108C8160020E004002060090020CA
:1016A000381F0020E40E00200C140020D00400207D
:1016B00048140108381200207A110020681501082A
:1016C0003E0900206816002064160020DC0400207B
:1016D0001C07002011F8063C51F8100C11F805EC1D
:1016E00003F00702DB0800EB83039200186A0EFA8E
:1016F00002FE06FA02F220EA02021A621A6A4EEAB0
:1017000002021A62B4E603F0EF03082B3FF4B9AE0D
:101710000023B7E61D46B9E60023CBE69DF8A220DC
:10172000D8B21B0A4AB105EB0012DFF828E11169B3
:10173000714502D1928A012A0AD0022B08D0012BCE
:1017400009EB001008D19DF89D300BB104F0F0F9C1
:101750005E457FF40FAF14E7032BF9D19DF8A3305A
:1017600095F84D804BB100234FF6FF72082104F02D
:10177000C9F82F4B47F8280010E0BDF8A820BDF8A5
:10178000AA30B2F5FA7F10DD2A49B1FBF2F224212A
:1017900092B204F0B7F8284B47F82800C36095F8D8
:1017A0004D30013385F84D30D2E72449B1FBF2F2D8
:1017B000012192B2DBE7B6F9041001E72B7A43F07E
:1017C00002032B72FFF78EB80021012B04913FF624
:1017D00031A81B4B9DF81C201A70FFF745B81A78EA
:1017E00004218154511CC9B205254554D11C023233
:1017F000D2B2197006218154FFF775B902321A70FE
:1018000013224254FFF79DB90E4844F62065058027
:1018100021B1082119700C490C480860D5077FF5E3
:1018200095AA0C221A70084A09491160FFF78EBA6E
:1018300021560008005125023556000840420F008D
:10184000B0050020D606002010000020318B0008D3
:10185000258B000800040048A9490A682DE9F04FCB
:1018600002F59C43A74C20332360A74B8BB01D7817
:101870000591002D3AD1A54FDFF8A082DFF8CCA268
:1018800097F80090E9B249450E4680F2A4800729F6
:10189000D8BFD8F800303846D8BF595CDAF80030E5
:1018A0009847032E1DDCD8F8003006F10F0B03EB30
:1018B0008B0133F82B204B8898B1811A4FF47A7042
:1018C0009B1A484390FBF3F040F2EE2300F57A7048
:1018D0009842B8BF184640F6CA039842A8BF1846B7
:1018E00080B204EB46060135B080C9E78849096833
:1018F0008A4201D9013D1D70864B00931A6812F48B
:10190000805F05D0844B1B68DD0701D409F06EFDB4
:10191000059B1968814B1A68937A002B00F034817B
:10192000013B7F48127B30F913301AB1C3F53B639A
:1019300008331BB2A3F57A73B3F57A7FA8BF4FF4CF
:101940007A7323EAE37307EE903ADFED766AF8EEF6
:10195000E77A87EEA67A744ADFED747A67EE277A23
:10196000FCEEE77A17EE903A1380009BDFF8E091E7
:101970001B6813F4807F00F054816D4B6D4D9942CC
:1019800003D9AB78002B00F04B87AB78002B00F02D
:101990004881614F95F821603B6899F800B0029743
:1019A000012E03F08063DFF894A1634F01930BF0E5
:1019B000040B14BF4FF003084FF0000895F82010F7
:1019C000052900F22881DFE811F01B01930199013C
:1019D000BC01D401F1014F4B1A68584B029342F2FB
:1019E0000101186800900A40039206D094F829304B
:1019F00084F82830524B5A781A7094F828601EB137
:101A00004F4B1E7886F001060F2384F82A30434B93
:101A100094F82BA01B6801930323BAFBF3F303EBA9
:101A20004303AAEB0303DBB25B000493009B454F27
:101A3000DFF8ECB003F51673002507F1C00206933A
:101A400007F172084D4542DA690086B137F9150091
:101A5000019B9B8A80B29842C0F2CA86019BDB8AB6
:101A6000984200F3C586069B42F8253003E03046D5
:101A7000EEE73BF80100039B1BB92BF8150001357D
:101A8000E0E7314B062101FB053E049B2EF80300E5
:101A900094F8743033B9BAF1020FEEDD4FF0010360
:101AA00084F874304FF0000128F815106B00002006
:101AB0003EF8101033F808C001306144032823F8C1
:101AC0000810F5D10BB293FBF0F080B2D5E794F893
:101AD0002A300F2B174B3DD10F4A1268560139D4CB
:101AE000029AD96812689A60521AC82A02D9012249
:101AF00083F8212094F82B30013384F82B30FBE657
:101B00004C0F002000080020081B00205C0900206A
:101B1000041B0020E40E0020F8100020F415002023
:101B2000E80E002000007A44F00F002000C07F443F
:101B3000404B4C00301600202C160020B816002018
:101B40000B000020040800202C08002010000020BA
:101B50002C1F0020B84AB94E012151701170029A11
:101B600099681268DA60521A59688A4284BF002262
:101B700083F8212000254D45BCDAE8B207F03EFC91
:101B800026F815000135F6E70098006800047FF597
:101B9000ECAED4F89000081A0028FFF6E6AE01F586
:101BA0009C402030C4F89000A548D27A4579A548D9
:101BB000A54E30F8150080B290FBF2F094F8942016
:101BC000013202F00F0284F89420224482F895003A
:101BD00018461A46855D01302A44102812B2F9D100
:101BE00092FBF0F212B2002A03DB642A1346A8BF6C
:101BF000642307EE903ADFED956AF8EEE77AA8E6FF
:101C0000BBF1000F68D0012E05D0052008F010FEB2
:101C10008F4B02221A70B8F1000F02D0404602F03A
:101C20006FFF8C4DB5F8DE0001F0BAF9AA46064602
:101C300018B904F0FDFC04F0EBFC99F800305B07E8
:101C400008D5009B1B68DF0604D5834B1B78DD0697
:101C500040F1F28500239AF88C819AF88D11BAF838
:101C60004671BAF848E175481A4630F912509B0897
:101C7000BD42C4BF63F07F03DBB201327545B8BF1C
:101C800043F04003042AF0D194F8B1209A4240F086
:101C9000C18094F8B220F92A02DC013284F8B22023
:101CA0006E4F84F8B1303B786D4D002B40F0E980E9
:101CB0002B68D80740F1DC80002E40F0AD8099F809
:101CC0000030DA0740F1DD805B0702D4012384F89D
:101CD000B33009F03FFBD4E0019B4FF4806023B1A7
:101CE00008F0C0FD00232B6195E708F0ABFDF9E794
:101CF000012E7FF463AE052100F09ABD012E04BFD2
:101D0000052185F82010BBF1000F0CD0D4F8A810E5
:101D1000B1F90E00494908804880888038684088B9
:101D2000C8804FF00208DAF8000069698142C0F00B
:101D30007B85BBF1000F00F07785012E3FF43EAEAE
:101D400069E799F8001041F0020189F8001009F0E4
:101D50004DFBDAF80000E9690144A961042185F826
:101D600020104FF4806008F06DFD052008F054FD50
:101D700024E6012E14D1DAF80000A9698142BFF4EB
:101D80004AAF364B197821B9029B1968CA073FF54B
:101D900042AF99F8001021F0020189F80010AAE77B
:101DA000DAF80020EB691344AB6134E73868DAF8FD
:101DB0000030C188642000FB01312961002185F8D1
:101DC0002010E970CDE79AF88E317EB9002B00F033
:101DD0003B85244B1A68D4F8AC309B1A002B80F258
:101DE000338509F003FB84F8B06033E73BB11D4A4B
:101DF00012684FF47A7101FB0323C4F8AC3094F8F5
:101E0000B030002B3FF426AF02F070FE002384F8C0
:101E1000B0301FE7002241E7D4F8B4300A2B30DCA1
:101E2000114B1B885E072CD4104B1B784BBB04F066
:101E3000FFFB04F0EDFB4CE70B000020E80E002058
:101E40005C1A00206C1A0020950800200000C8428F
:101E5000321F002060090020690F002014000020BC
:101E6000F8100020B8160020241F0020311F002089
:101E700099F80030580704D594F82830002B40F02A
:101E8000E98494F8B2309B4E142B2ED13B78C3B129
:101E900094F8B1305F2B06D199F8003013F0040BA1
:101EA0006DD009F0A3FAB8F1000F0AD094F8B13060
:101EB0007D2B06D199F8003013F0040B65D009F0A2
:101EC00095FA99F8003013F004020ED194F8B1306D
:101ED000572B60D14FF47A73A4F8B830864B1B6847
:101EE00013F0080301D1854A1380009B1B68580733
:101EF00026D594F8BC309BB199F8003059070FD51E
:101F00007F4BB3F90620BAF846319A4208DD2B68B8
:101F100013F0010302BF3222A4F8BE2084F8BC30C3
:101F20002B68DA0340F1A28094F8C0302BB994F802
:101F3000BA3013B93223A4F8BE30012384F8C0307C
:101F4000366800232B6006F17F0706F1CF084FF0BB
:101F5000010BB84500F09A803A787B789A420CDA07
:101F6000394617F8010C02F09DFD30B117F8023C1C
:101F70002A680BFA03F313432B600437E9E70B20BD
:101F800002F0BEFD84F8B2B08DE70B2002F0B8FD80
:101F900084F8B2B095E700990968490740F1628476
:101FA0005A2B40F05F8494F8BA302BB1012384F8A7
:101FB000BA2084F8BB3098E794F8BC3083F0010372
:101FC00084F8BC301BB10C2002F09AFD8DE70D2087
:101FD000FAE75B2B00F04B845E2B40F05684032025
:101FE00000F046BCB8F1000F02D07E2B00F05A84FE
:101FF00094F8B130972B04D1424B4FF4C8721A8039
:1020000073E7A72B05D1404A137843F004031370FC
:102010006BE70022BB2B099217D10223ADF82630C3
:102020003368BDF82410B3F85C200A44A3F85C20A0
:10203000BDF82610B3F85E200A44A3F85E2008F02D
:10204000C7FC002384F8B2304FE7B72B02D14FF61C
:10205000FE73E3E7BE2B03D10223ADF82430DFE7A4
:10206000BD2B7FF442AF4FF6FE73F6E794F8BA301B
:10207000002B3FF465AF99F8003013F0040302BF62
:1020800084F8BA30012384F8BB3059E71F4F06F1BA
:10209000CD054FF00C0806F215164FF0010BB542B6
:1020A00038D06A78AB789A4221DA691C287802F035
:1020B000F9FCE0B16979EB78154A95F804C008FBA2
:1020C00001FE013B07EB0E0003EB430313444268A0
:1020D00093420CD043600023836094F8C13007F82A
:1020E0000EC00BFA01F123EA010184F8C110063594
:1020F000D5E700BFEC150020940F0020E00F002072
:10210000E80E0020341F0020690F0020F815002081
:10211000D6150108C84AC94994F82830D2F8008079
:102120000F68C74D019300260292042E00F0C08272
:102130006968002962D00A78002A5FD0A868381A36
:1021400000280BDB07F5FA70A860012000FA06FEF4
:1021500094F8C10020EA0E0084F8C100019B002B16
:102160004CD028784B780430C0B2002B40F0698204
:10217000B44B33F910E0BAF8440100F1C80CE6455D
:1021800028DD91F802B094F8C1103141CB0735D465
:10219000BBF1000FCCBF02200120039202F0D6FC5D
:1021A000039A511E13293BD8DFE811F02B0042009F
:1021B0004F0061007A008200E5005601BA01EB0190
:1021C0001A023A0061006D008200E5005601DC0051
:1021D0003C01B101C838864504DA91F802B0CBF170
:1021E000000BD0E7012202FA06F194F8C12022EA9E
:1021F000010284F8C12007F5FA72AA6001360C3595
:1022000093E798F800209344BBF1FA0FA8BF4FF072
:10221000FA0B2BEAEB7B88F800B0404602F026FC74
:1022200094F8C1100122B2400A4384F8C120E5E7C6
:1022300098F801209344BBF1640FA8BF4FF0640BE2
:102240002BEAEB7B88F801B0E7E798F8032093448A
:10225000BBF1640FA8BF4FF0640B2BEAEB7B7A4A0B
:1022600088F803B01168404602F0C0FBD8E798F840
:10227000051059446429A8BF642121EAE1710D2A9F
:1022800088F80510CCD098F804209344BBF1640F73
:10229000A8BF4FF0640B2BEAEB7B88F804B0BFE7D4
:1022A00098F8062093448BF3080B88F806B0B7E73C
:1022B00066490968087802283DD107EE90BAF8EE21
:1022C000E76AB2EE047AC6EE877A91ED0A7A77EE83
:1022D000877AF5EEC07AF1EE10FA29D49FED5C7A98
:1022E000F4EE477AF1EE10FAC8BFF0EE477A0F2A03
:1022F000C1ED0A7A94D007EE90BAF8EEE76AB2EE32
:10230000047AC6EE877A91ED097A77EE877AF5EE50
:10231000C07AF1EE10FA2BD49FED4D7AF4EE477AA5
:10232000F1EE10FAC8BFF0EE477AC1ED097A77E70F
:10233000DFED487ADBE788785844C828A8BFC82072
:1023400020EAE0700F2A88703FF46AAF4A7893441D
:10235000BBF1C80FA8BF4FF0C80B2BEAEB7B81F88D
:1023600001B05DE7394A11680A78022AC3D0EDE767
:10237000DFED387AD9E735490968087802283AD17B
:1023800007EE90BA9FED327AF8EEE76AC6EE877AEA
:10239000D1ED0D6A77EEA67AF5EEC07AF1EE10FA7D
:1023A00026D4F4EE477AF1EE10FAC8BFF0EE477A81
:1023B000102AC1ED0D7A3FF433AF07EE90BA9FEDCE
:1023C000247AF8EEE76AC6EE877AD1ED0C6A77EEEA
:1023D000A67AF5EEC07AF1EE10FA29D4F4EE477A37
:1023E000F1EE10FAC8BFF0EE477AC1ED0C7A17E7AC
:1023F000DFED187ADCE7487B5844C828A8BFC8201E
:1024000020EAE070102A48733FF40AAF0A7B934435
:10241000BBF1C80FA8BF4FF0C80B2BEAEB7B81F8CC
:102420000CB0FDE6094A11680A78022AC5D0EDE72A
:10243000DFED087AD9E700BFD8150020B8160020D4
:10244000F8150020E80E0020DC0E0020E00E002031
:102450000000C84200000000C0490968087802284E
:102460003ED107EE90BA9FEDBE7AF8EEE76AC6EE6F
:10247000877A91ED107A77EE877AF5EEC07AF1EEF1
:1024800010FA2AD49FEDB77AF4EE477AF1EE10FAFB
:10249000C8BFF0EE477A112AC1ED107A3FF4C0AE02
:1024A00007EE90BA9FEDAE7AF8EEE76AC6EE877A4D
:1024B00091ED0F7A77EE877AF5EEC07AF1EE10FAA9
:1024C0002BD49FEDA87AF4EE477AF1EE10FAC8BF4C
:1024D000F0EE477AC1ED0F7AA2E6DFEDA37ADAE7F4
:1024E000087E5844C828A8BFC82020EAE070112AF6
:1024F00008763FF495AECA7D9344BBF1C80FA8BFE0
:102500004FF0C80B2BEAEB7B81F817B088E6934AB3
:1025100011680A78022AC3D0EDE7DFED937AD9E794
:102520008E4A11680A78022A1FD107EE90BAF8EE97
:10253000E76AB2EE047AC6EE877A91ED0B7A77EE0F
:10254000877AF5EEC07AF1EE10FA0BD49FED857A1A
:10255000F4EE477AF1EE10FAC8BFF0EE477AC1ED1B
:102560000B7A5DE6DFED807AF9E7CA789344BBF138
:10257000C80FA8BF4FF0C80B2BEAEB7B81F803B064
:102580004EE6764A11680A78022A1DD107EE90BA03
:102590009FED747AF8EEE76AC6EE877AD1ED0E6A9F
:1025A00077EEA67AF5EEC07AF1EE10FA09D4F4EEE1
:1025B000477AF1EE10FAC8BFF0EE477AC1ED0E7A15
:1025C0002EE6DFED697AF9E78A7B9344BBF1C80F09
:1025D000A8BF4FF0C80B2BEAEB7B81F80EB01FE6CB
:1025E0005E4A11680A78022A1FD107EE90BA9FED61
:1025F0005C7AF8EEE76AC6EE877A91ED117A77EEAB
:10260000877AF5EEC07AF1EE10FA0BD49FED557A89
:10261000F4EE477AF1EE10FAC8BFF0EE477AC1ED5A
:10262000117AFDE5DFED507AF9E74A7E9344BBF17C
:10263000C80FA8BF4FF0C80B2BEAEB7B81F819B08D
:10264000EEE5012B7FF4ECAD0C2A7FF4E9AD474BAE
:10265000897833F910B0464B40F633008345A8BF64
:102660008346BBF5617FB8BF4FF4617B4FF4966042
:1026700090FBF1F01978ABF5617B9BFBF0FB5FFA07
:102680008BFB59453FF4CCADBBF1030FD4BF59468A
:102690000221197002FB01A2029B02F22A521A6067
:1026A00005F043FC0BF10100C0B202F04FFAB7E5B0
:1026B000304D314E2B6813F0020F06D1009B1B6882
:1026C000DF0506D52D4BDB781BB13368980700F189
:1026D000ED80012008F0B6F8012704E003F0A8FF20
:1026E000012008F0BFF82A68510732D58FB30120C6
:1026F00008F0A8F8224B1B889A0704D403F098FF2F
:10270000022008F0AFF899F800305B0708D41C4BA2
:102710001B8803F044031BB11A4B1A881A4B1A800A
:10272000336813F00A0F40F0C9802B681A054FF484
:1027300080705AD508F096F89AF80530082B02D028
:102740000E2B40F0C38040200BB0BDE8F04F08F0E6
:1027500079B8022008F076F8D5E700BFE00E002037
:1027600000007A440000C84200000000E80E00208B
:10277000F0150020F8100020940F002030160020E3
:10278000261F0020E00F00202E1F0020514B1B8829
:102790005F0706D4042008F065F84F4B1A884F4BAA
:1027A0001A802B689E061CD54A4B1B88580602D4FB
:1027B000402008F057F82B68590641BF464A118857
:1027C000474A118013F0080308D094F8C230002B58
:1027D000ABD1414B1A88424B1A80012384F8C23096
:1027E000A3E7402008F02EF8E5E708F02BF8A3E770
:1027F00052F82530009883423FF63BA9E8B2079291
:1028000006F0FCFD032D079A3FF735A994F82A102E
:102810000123AB4021EA030384F82A30FFF72BB9E8
:102820000123AB70FFF7B1B842F21071E9610321E7
:1028300085F82010FFF7C2B82A4B1B78002B7FF4D5
:10284000C2AA002E7FF4DBAA102002F059F901235E
:10285000FFF7DDBA11B9002E7FF413AB08F0C6FD07
:10286000FFF70FBB5D2B7FF4B4AB012000E002202B
:10287000C7B27B1E8AF8283508F012F805F0A0FBD5
:10288000384602F063F9FFF730BB562B01D108F050
:102890009FF83B78002B3FF4ABAB94F8B1306F2B33
:1028A0007FF4A0AB08F056FDFFF71FBB094B1B8858
:1028B00013F001073FF412AF002714E72B68DB0683
:1028C0003FF564AF042007F0BDFF6AE70BB0BDE839
:1028D000F08F00BF261F0020E00F00202E1F0020D9
:1028E0005C00002014000020104A40F2E9331189F6
:1028F00089070AD50E4A0D49107040F2E93308895C
:10290000C0070DD51078C0B27047013B9BB2002BB9
:10291000EDD1084A138801339BB21380FF20704722
:10292000013B9BB2002BEAD1F3E700BF0038004027
:102930000C38004010090020B1F5FA6FA8BF4FF421
:10294000FA61B1F57A7FB8BF4FF47A710BB20728FC
:1029500040D8DFE800F00418222C36404A542F4AB1
:10296000907858B1D3681A68A1F57A7019894143F3
:102970004FF47A7391FBF3F11160704792F82C10C9
:1029800041B3D3857047254AD07808B11369EAE787
:1029900092F82C10F1B113867047204A107908B1D3
:1029A0005369E0E792F82C10A1B1538670471B4A97
:1029B000507908B19369D6E792F82C1051B19386FB
:1029C00008E0164A907908B1D369CCE792F82C1048
:1029D0000029D6D07047114AD07908B1136AC2E7EE
:1029E00092F82C100029F5D1D5E70C4A107A08B1DD
:1029F000536AB8E792F82C100029EBD1D5E7074AC3
:102A0000507A30B1936A1A681B89A1F57A715943DB
:102A1000AEE792F82C100029D1D0DBE71009002096
:102A20000C4B10B5DB6802780B48DB43C3F3022381
:102A30000121C3F1040301FA03F384181B01DBB283
:102A400084F80033530902F01F0201FA02F240F841
:102A5000232010BD00ED00E000E100E02DE9F34788
:102A60004FF0000A88461646FF2101220546994686
:102A70009DF828708DF807A007F086FA52460446A4
:102A80005146284607F080FA52460443FF21284663
:102A900007F07AFA64B2044364B2B9F1000F06D0C9
:102AA0004246CB21284607F030FA044364B23FB1D6
:102AB0000DF10702EE21284607F027FA044364B21D
:102AC0000122FF21284607F05FFA0122044300217A
:102AD000284607F059FA64B204430022FF21284631
:102AE00007F052FA64B29DF80730204323F0100338
:102AF00040B2337002B0BDE8F08773B506460025DA
:102B000001220B21304607F03FFA002204460B2138
:102B1000304607F039FA0DF107020443132130461D
:102B200007F0F3F99DF8073064B2204301355B07E5
:102B300040B2EDB205D0032D08D00028E0D002B09D
:102B400070BD032D08BF6FF00B00F8E76FF00B00AE
:102B5000F5E7084B4FF47A72594301F5FA714FF4D7
:102B6000FA63B1FBF3F3B1FBF2F102FB0030B0FB0F
:102B7000F1F07047002F3A00F0B54FF0FF33CF0867
:102B8000136001F007014FEAC70E3D460026052DF0
:102B900000D806B1F0BD445DAF4203BF0C41E4B2C2
:102BA0000B46334614F0010F06D073441360012620
:102BB00001350EF1080EEAE70133082B4FEA540401
:102BC000F0D1F5E72DE9F04F87B00DF11808109D11
:102BD00048F80C5D294F1C4681468A4693460026DC
:102BE0000123119A964221D10026129B1D60CEB975
:102BF0002146484608F068FA064698B904AD2B46C7
:102C00000622B02199F85C0106F05EFD002808BF9D
:102C10006FF013060023E15CEA5C91422AD1013394
:102C2000062BF8D1304607B0BDE8F08F4246294662
:102C300058460193FFF7A0FF039A531C17D002F1E7
:102C4000B401890957F82110003118BF01215145FD
:102C50000DD1D108019B02F0070005299FBF03FA9F
:102C600000F5605C28436054551C0136B9E76FF0ED
:102C70003106BAE76FF03106D4E700BF1416010839
:102C8000F8B50D4C20250746258532200E4601F06B
:102C900095FF47F08000FFF727FE322001F08EFFFE
:102CA0003046FFF721FE322001F088FFA561C820E1
:102CB00001F084FF0120F8BD000400481F4B2022D2
:102CC00010B51A850446322001F078FF04F07F0029
:102CD000FFF70AFE322001F071FF194A4FF6FF712B
:102CE00093894FF47A73148914F002040CD0154AB6
:102CF0001348FF2111704FF6FF71048914F001048D
:102D000016D01478E4B208E0013B9BB28B42EAD1C2
:102D10000D4A138801339BB21380322001F04EFF1D
:102D2000064B20229A61C82001F048FF204610BDC2
:102D3000013B9BB28B42E0D1EAE700BF00040048B0
:102D4000003800400C3800401009002007B51B4B2C
:102D500003F14C029A6493F88E212AB3012A0AD116
:102D6000032183F8A015072183F8A22583F8A11574
:102D70000C2283F84C20124B124A1A60402001F0BA
:102D80002FFE70B10122002390F9000040218DE850
:102D90000C004FF4E1330C4A01F0C4FD003018BFC1
:102DA000012003B05DF804FB022183F8A015032184
:102DB00083F8A22583F8A1150722DAE7100900207D
:102DC00010000020898A0008098C0008F7B50A2045
:102DD00001F0FFFE0DF103030122A021772006F090
:102DE00073FC10B9002003B0F0BD01221E21772032
:102DF00006F05CFD4FF42F60304C01F0DFFE002543
:102E00002E4604F2A457A5F1600101AB0222C9B21B
:102E100077208DF804608DF8056006F055FC9DF86C
:102E200004209DF8053043EA0223EB530235102DB0
:102E3000E9D1B4F8B225002302F00F0602F47F4274
:102E4000A4F8B2250125194621F001002044B0F86C
:102E5000A405002818BF0025CF0746BFC0B24340D5
:102E600083EA102308201F0448BF83F4C0530138AD
:102E70004FEA4303F7D101311029E5D13243A4F8D9
:102E8000B225002DAED1C3F303339E42AAD142F244
:102E90001073A4F8B435A4F8B635094BC4F8B835A6
:102EA000084BC4F8BC35084BC4F8C035074BC4F810
:102EB000C435074BC4F8C835012094E71009002039
:102EC000F57E0008297F0008EB7E0008277F0008B8
:102ED000C57C00080D4B03F59072C3F8CC25C3F8F0
:102EE000D01500F15003984207D002781AB98178C2
:102EF000C278914207DB0430F5E70023044A83F0EF
:102F00000103137170470123F8E700BF1009002087
:102F10001000002070B5222200211248124E0EF03F
:102F200069F90022114B052101241046042A03F1FE
:102F300008030CD0955D03F8085C03F8041C03F843
:102F4000034C03F8010C03F8021C0132EEE7084BB6
:102F50000122A3F8EA210222A3F8F221522283F8E7
:102F6000E62170BDF60A002024160108F80A0020A8
:102F70001009002010B507F0C1FA4FF430240128E1
:102F800006D10CB9052010BD07F0B8FA013CF6E7F0
:102F9000002C08BF052010BD0021012000F02EB933
:102FA0000B4AD2F8D43513F4805FB2F9DE350AD07B
:102FB000B2F89421111A8B4208DD10448342B4BF49
:102FC000002001207047B2F89601F7E70120704712
:102FD00010090020164B1946002241F80C2F4A60B8
:102FE0008A6019461A6041F8182F5A609A604A6040
:102FF0008A601946303393ED000A41F8242FB4EE6D
:10300000400AF1EE10FA4A608A6006D693ED021A81
:10301000B4EE411AF1EE10FA07D79FED061AF0EE62
:10302000410AB0EE410A04F071BCD3ED010AFAE79F
:10303000100F0020000000002DE9F041624CD4F890
:103040003C36D4F840269A1A002AC0F2848003F550
:10305000C332A032C4F8443604F5C960D4F85436FB
:10306000C4F84026984704F5C96194F858260846E4
:1030700006F00EF894F8592612F0040F04F5C96012
:103080001CD0D4F84036C4F85C36002384F860368F
:1030900004F5A8759E4604F2626704F5CD6630F922
:1030A000131027F8131026F813100133032B25F8FB
:1030B00002EFF4D122F0040284F85926D4F85C26F9
:1030C000DAB1D4F8403641499B1A414A934201F1A2
:1030D00006064FF0000340D830F9132031F9137081
:1030E0005D009742775FC8BF21F81320974203F134
:1030F0000103B8BF7253032BEED194F8743653B367
:10310000B4F84A06B4F85421B4F84C36B4F8521165
:10311000801AB4F85A2112FB00F210B2B4F856210A
:103120009A1AB4F85C3113FB02F3B4F84826511A2A
:10313000B4F8582112FB01F21BB20A2112B293FB20
:10314000F1F392FBF1F2A4F84C36A4F8482690FB78
:10315000F1F2A4F84A26BDE8F08101F10C07C4F8A9
:103160005C36A1F2125C4FF00208384631F913E0E8
:1031700036F913200EEB0205A2EB0E0202EB8202DF
:1031800027F8132095FBF8F50133032B2CF8025F89
:10319000ECD1B4F97026B4F96E360E4E1344B4F97E
:1031A00072260A21134459430022B518835E023265
:1031B000062A03EB430391FBF3F3A5F80831F4D19E
:1031C00007F006FC99E700BF10090020720F0020ED
:1031D0007FC3C9016009002013B5144601AB042266
:1031E00090F85C0106F070FA019B00281BBA0CBF36
:1031F0006FF013000020236002B010BD38B5044604
:1032000024200D4601F06AFB4D2001F067FB002CE5
:10321000094C14BF21203E2001F060FB23680022EE
:1032200028469A7101F05AFB236893F84900BDE8DB
:10323000384001F053BB00BF281F0020014600208A
:10324000DCE710B501F040FB044601F03DFB04EB68
:10325000004010BD2DE9F84F4B282DED048B00F0F8
:10326000118500F2F080322800F050856BD82228BA
:1032700000F040842BD8032800F0CE8207D8012824
:1032800000F0AD82022800F0B7820020C0E20428DE
:1032900000F0C9820528F8D11A20FFF7CFFFC84DEA
:1032A0000024285D013401F019FB0B2CF9D1C54D28
:1032B0000024285D013401F011FB082CF9D1002411
:1032C0000020013401F00AFB072CF9D19FE22828E5
:1032D00000F0BF8413D8242800F0B0842628D4D16D
:1032E000B94C0620FFF7AAFFB4F8E80001F008FB8C
:1032F000B4F8EA0001F004FBB4F8EC004CE22A2830
:1033000000F0BA842C28C0D1AF4C0C20FFF796FFF8
:1033100094F83E0101F0E2FAB4F8480101F0F0FA45
:10332000B4F8440101F0ECFAB4F8460101F0E8FA0F
:1033300094F83F0101F0D2FAB4F84A0101F0E0FA42
:10334000B4F84C0128E23D2800F0178344D838280F
:1033500000F07A8433D8342800F0EF83362894D1F3
:103360009A4D994C95F86400C0EBC000C0B2FFF7CD
:1033700065FF04F12006683594F9980100230C33A9
:10338000EA1812F90C2C824240F0D584C0B201F048
:10339000A5FAB4F89A0101F0B3FA94F89C0101F08F
:1033A0009DFA94F89D0101F099FA94F89F0101F0BB
:1033B00095FA94F89E0101F091FA00F0BFBC3A280A
:1033C00000F0D2823B287FF460AF0120FFF736FF88
:1033D0007F4B1B6818780CE2452800F0C18426D882
:1033E000402800F09A8442287FF44FAF764C10209A
:1033F000FFF724FF607901F071FAA06801F089FA03
:1034000094F83E0101F06AFAB4F8E80001F078FAA5
:10341000B4F8EA0001F074FAB4F8EC0001F070FAC4
:10342000B4F82E0101F06CFAB4F83001B4E146288A
:1034300000F0898449287FF428AF0220FFF7FEFEC0
:10344000614B9889A8E1732800F0C38300F256818C
:103450006C2800F0518200F2D180662800F01682BC
:1034600000F295804D2800F0318465287FF40DAF7F
:103470000B20FFF7E3FE574B544C188801F040FA3D
:10348000554B1A68554B9A420CBF554B554B1888F3
:1034900080B201F035FA2068C0F3C003C0F38002A7
:1034A0009B0043EA4203C0F340021343C0F34012BF
:1034B00043EAC20300F01000184301F021FA4A4B1E
:1034C00026791A88494B1968494B1B7802F001008C
:1034D000C3F3800343EA4003C2F3400043EA80039E
:1034E00002F008000343C2F3800043EA0013C2F372
:1034F000801043EA401301F04000034301F08000D4
:10350000034301F480700343C2F3001043EA4023F5
:10351000C2F3401043EA8023C2F3002043EAC023F1
:1035200001F48050034301F40050034301F4804050
:10353000034301F40040034301F48030034301F4EA
:103540000030034301F48020034301F400200343CF
:1035500001F480100343C2F3402043EA405301F0DA
:103560000071C2F380220B43002043EA82630534DA
:1035700002460125B24280F06681115D05FA01F133
:1035800019421CBF05FA02F108430132F2E768282C
:1035900000F0A68169287FF478AE164D164E287883
:1035A000400000F0FE00FFF749FE00242B789C420B
:1035B00080F02D8136F8140001F0A2F90134F5E70E
:1035C0000E1901081A19010860090020940F002043
:1035D000EC150020241F0020201B00200054004078
:1035E0000C1B00200E1B0020261F0020F8100020BE
:1035F0002C1F00205C090020E80E00206F2800F03E
:10360000C78130D86D2800F086816E287FF43DAEEA
:103610000720FFF713FEC54BC54C1888FF28A8BF2D
:10362000FF20C0B201F05AF9A06D4FF6FF75A84215
:10363000A8BF284620EAE07080B201F061F9B4F832
:103640005C0001F05DF9BB4B93F83331002B00F0C7
:103650009081236E0A205843A842A8BF284620EA3A
:10366000E07080B298E0702800F0BA8172287FF490
:103670000CAEB04C1620FFF7E1FDB4F8440101F0A8
:103680003FF9B4F8D00001F03BF9B4F8D20001F0F2
:1036900037F9B4F8D40001F033F9B4F8860101F039
:1036A0002FF9002001F01AF9002001F017F900208D
:1036B00001F014F994F8330101F010F994F8400185
:1036C00001F00CF9002001F009F99B4B1B68B3F9DC
:1036D0005A000A2390FBF3F080B201F011F994F83C
:1036E000280101F0FBF894F82C0101F0F7F894F8A8
:1036F0002B0101F0F3F894F82D017AE0A02800F0F6
:103700008D8222D8772800F049820FD8742846D0BD
:1037100075287FF4BAAD2F20FFF790FD874C14F881
:10372000010F002873D001F0D9F8F8E77B2800F0EA
:1037300026837C287FF4A9AD0320FFF77FFD804B13
:10374000187801F0DDF87F4B44E6F02800F059824C
:103750000AD8DD2800F01083DE287FF496ADFFF74D
:1037600070FDFFF76EFD52E0FE2800F03D82FF285D
:103770007FF48BAD744A6E4C1188002323840122A0
:10378000114266D101339BB25200092B92B2F7D19C
:103790000220FFF753FD208C01F0B2F837E0644FB0
:1037A00000264FF0010ADFF8BC914FF0000B3B7987
:1037B0005B4540F3E981654B0C251BF80340002372
:1037C00005FB03F202EB090012F80920A24200F007
:1037D000DC8201331C2BF3D10BF1010BE7E7032053
:1037E000FFF72CFD002001F079F8022001F076F8B7
:1037F000002001F073F80AE00520FFF71FFD544D8B
:103800000024285D013401F069F8052CF9D101206C
:10381000BDEC048BBDE8F88FFFF710FD022001F02E
:103820005DF80020E2E70B20FFF708FD072001F01C
:1038300067F8484D0024285D013401F04FF8072C4B
:10384000F9D10020A8E701F064F83A4B93F8280575
:10385000CFE7013B072B05D8DFE803F007090B0E84
:10386000101214160123238492E70223FBE740235E
:10387000F9E74FF48073F6E78023F4E72023F2E7BB
:103880001023F0E70823EEE70423ECE71220FFF70C
:10389000D5FC314B264C1B88B3F5806FD4BF012675
:1038A0000826002504F1220737F9150090FBF6F0F1
:1038B000013580B201F024F8032DF5D1208D01F0FF
:1038C0001FF8608D01F01CF8A08D244C01F018F851
:1038D000208801F015F8608801F012F8A0885BE7F5
:1038E0001020FFF7ABFC1E4D0024285D013400F0D2
:1038F000F5FF102CF9D18AE70D4C0620FFF79EFC4E
:10390000B4F8460000F0FCFFB4F8480000F0F8FFFF
:10391000B4F84C0040E7064C0620FFF78FFC206D02
:1039200000F0F7FFB4F8540036E700BF001B00209A
:10393000940F002060090020EC15002027160108D4
:10394000321F002098000020241F0020990F002023
:10395000001901080619010896000020580F0020E0
:10396000C20F0020B01701080420FFF767FC0020F9
:1039700061E1206E00F30F0073E6CA4C0220FFF7EE
:103980005DFC94F88E0100F0A9FF94F88D0130E7FA
:10399000C54C0B20FFF752FC2368187800F09EFFFF
:1039A0002368587800F09AFF002523682B440135DE
:1039B000187900F093FF032DF7D12368D87900F030
:1039C0008DFF2368987800F089FF2368D87800F08D
:1039D00085FF2368588900F093FF2368187A08E769
:1039E000B24C2120FFF72AFC23681B78022B4FF0F2
:1039F00000056CD19FEDAE9ADFEDAE8AB2EE048A7F
:103A0000236803EB850393ED090A20EE080A0BF007
:103A1000D9FE80F30800C0B200F060FF236803EB1A
:103A2000850393ED0C0A20EE090A0BF0CBFE80F320
:103A30000800C0B200F052FF236803EB850393ED4A
:103A40000F0A20EE280A0BF0BDFE80F30800C0B27A
:103A5000013500F043FF032DD2D1072D236829D172
:103A600093ED120A20EE080A0BF0ACFE80F308007A
:103A7000C0B200F033FF236893ED130A20EE080A6A
:103A80000BF0A0FE80F30800C0B200F027FF23680F
:103A900093F8503000EE103AB8EE400A0BF092FE68
:103AA000FF28A8BFFF20C0B2013500F017FF0B2D83
:103AB000D3D1ACE62B44587800F010FF23682B4498
:103AC000187B00F00BFF23682B44D87DECE72368BC
:103AD0002B44587800F002FF23682B44187B00F039
:103AE000FDFE23682B440135D87D00F0F7FE0B2D39
:103AF000EDD18CE65020FFF7A1FBDFF8B0816E4ED0
:103B000000250C27D8F8004004EB8504013594F813
:103B10007D3007FB0363187A00F0E0FE94F87E0026
:103B200000F0DCFE94F87F0000F0D8FE94F88000EE
:103B300000F0D4FE142DE5D169E64820FFF77EFBA6
:103B40005A4F002506263C6806FB0544013594F8CB
:103B5000D20000F0C3FE94F8CD0000F0BFFE94F850
:103B6000CE0000F0BBFE94F8CF0000F0B7FE94F852
:103B7000D00000F0B3FE94F8D10000F0AFFE0C2DA1
:103B8000E1D144E6464427E6BAF1000F3FF43FAEE8
:103B9000F0B2FFF753FB4FF0000A04E6474C464DE6
:103BA0002079FFF74BFB0026671D4FF00C082379A7
:103BB0009E42BFF42CAEF05D002308FB03F25119C6
:103BC000525D824200F0F48001331C2BF5D10136A6
:103BD000EDE70820FFF732FB0124E0B2013400F0EA
:103BE0007DFE092CF9D112E60820FFF727FB002003
:103BF00000F086FE002000F083FE002000F080FE32
:103C00001FE62A4C0420FFF719FB2368B3F85E0077
:103C100000F076FE2368B3F85C00BDE50C20FFF7EA
:103C20000DFB274B186800F074FE264B186800F057
:103C300070FE254B186800F06CFEE8E50420FFF7E5
:103C4000FDFA184B9868F6E70420FFF7F7FA154CD1
:103C500045E5144C0720FFF7F1FAB4F82E0100F007
:103C60004FFEB4F8300100F04BFE94F8320100F042
:103C700035FEB4F834018FE50120FFF7DFFA094B78
:103C80005879B6E5074C0420FFF7D8FA94F8840178
:103C900000F024FE94F8850100F020FEB4F88601BF
:103CA0007AE500BF60090020D8150020EC1500203F
:103CB0000000C84200007A44B0170108940F0020A9
:103CC000ACF7FF1FB0F7FF1FB4F7FF1F3A4D3B4C97
:103CD000287800EB4000C0B2FFF7B0FA00262B783E
:103CE0009E4204F10204BFF492AD14F8020C00F0FD
:103CF000F5FD14F8010C00EB800000EB800000F2F1
:103D0000EE2080B200F0FCFD0136E8E70120FFF76D
:103D100095FA2B4B93F840016BE50820FFF78EFADC
:103D2000274D00246319013493F8360100F0D6FDC5
:103D3000082CF7D16BE5302B7FF421AB0834A64279
:103D40007FF41AAB63E50D20FFF778FA002000F04E
:103D5000C5FD002000F0DDFD002000F0DAFD06E6E4
:103D60001320FFF76BFA174D0024285D013400F093
:103D7000B5FD0B2CF9D1EFE700F0A6FD47E50220D9
:103D8000FFF75CFA104B188806E54568284607F0EF
:103D900037FC8046BAF1000F7FF4F4AE2C46631B6B
:103DA00098457FF719AD14F8010B00F097FDF6E781
:103DB000087A00F093FD0AE75C090020AE0A0020B3
:103DC000600900200E1901089A00002037B50F4B3A
:103DD00004465D6818786A460621A847A0B19DF898
:103DE00000209DF8013043EA022323809DF8022041
:103DF0009DF8033043EA022363809DF804209DF878
:103E0000053043EA0223A38003B030BD101B00201D
:103E100013B50F4B04465B686A4606213B20984762
:103E2000A0B19DF800209DF8013043EA02232380D1
:103E30009DF802209DF8033043EA022363809DF839
:103E400004209DF8053043EA0223A38002B010BD90
:103E5000101B00200A460146682005F027BD08B562
:103E600013460A460146682005F02EFC003018BFB4
:103E7000012008BD13B50E4C2378B3B96368A3B114
:103E80001A681AB10B49486902434A619A88ADF829
:103E9000042002228DF807209868002201A98DF8DD
:103EA000062001F005FD0123237002B010BD00BF04
:103EB0002C1000200010024008B500217F20FEF7E2
:103EC000DFFE01215520FEF7DBFE07215020FEF723
:103ED000D7FE0E217F20FEF7D3FE10214320FEF7F0
:103EE000CFFE02214820FEF7CBFE00217F20FEF707
:103EF000C7FE7B215120FEF7C3FE00215020FEF7B4
:103F0000BFFE00215520FEF7BBFE00217F20FEF7FB
:103F1000B7FEAD216120FEF7B3FE03217F20FEF73F
:103F2000AFFE00214020FEF7ABFE05217F20FEF70B
:103F3000A7FEB3214120FEF7A3FEF1214320FEF7A7
:103F40009FFE14214520FEF79BFE34215F20FEF7E3
:103F500097FE08217B20FEF793FE34215E20FEF7BA
:103F60008FFE32215B20FEF78BFE32216D20FEF7A3
:103F700087FE17214520FEF783FEE5217020FEF71E
:103F80007FFEE5217120FEF77BFE06217F20FEF7F4
:103F900077FE1B214420FEF773FEBF214020FEF771
:103FA0006FFE3F214E20FEF76BFE08217F20FEF7BB
:103FB00067FE44216620FEF763FE20216520FEF7A0
:103FC0005FFE3A216A20FEF75BFE05216120FEF7C5
:103FD00057FE05216220FEF753FE09217F20FEF7E0
:103FE0004FFEAF214F20FEF74BFE80214820FEF709
:103FF00047FE80214920FEF743FE77215720FEF738
:104000003FFE40215F20FEF73BFE78216020FEF757
:1040100037FE78216120FEF733FE08216220FEF78B
:104020002FFE50216320FEF72BFE0A217F20FEF792
:1040300027FE60214520FEF723FE00217F20FEF7AA
:104040001FFE11214D20FEF71BFE80215520FEF79B
:1040500017FE21217420FEF713FE1F217520FEF7A5
:104060000FFE78214A20FEF70BFE78214B20FEF749
:1040700007FE08214420FEF703FE50214520FEF7ED
:10408000FFFDFE216420FEF7FBFD1F216520FEF7EA
:10409000F7FD0A217220FEF7F3FD00217320FEF7E1
:1040A000EFFD0C217F20FEF7EBFD84214420FEF77D
:1040B000E7FD47216520FEF7E3FD18216620FEF7A6
:1040C000DFFD70216320FEF7DBFD2C216F20FEF762
:1040D000D7FD15217F20FEF7D3FD48210846FEF7C6
:1040E000CFFD07217F20FEF7CBFD0D214120FEF7FC
:1040F000C7FD14214320FEF7C3FD0E214B20FEF720
:10410000BFFD0F214520FEF7BBFD42214420FEF7F5
:10411000B7FD80214C20FEF7B3FD10217F20FEF774
:10412000AFFD03215B20FEF7ABFD07217F20FEF7EB
:10413000A7FD41214020FEF7A3FD0A2000F049FD24
:1041400000217F20FEF79CFD00213220FEF798FD24
:1041500007217F20FEF794FD40210846FEF790FDE1
:1041600006217F20FEF78CFD70216820FEF788FD78
:1041700001216920FEF784FD0D217F20FEF780FDDF
:10418000C0214820FEF77CFDD5216F20FEF778FD89
:1041900000217F20FEF774FDA0215B20FEF770FD5B
:1041A000A8214E20FEF76CFD50215A20FEF768FD35
:1041B00080214020FEF764FD1F217320FEF760FD83
:1041C0000A2000F006FD00217320BDE80840FEF73C
:1041D00057BDAB4A2DE9F04F916842F20F73441A74
:1041E0009C4289B040F22081137B9060002B47D025
:1041F000B2F90E400A2C12DC53691569D36100260E
:10420000D36201340023956156621662956213638E
:104210005363D363136453649364D364D481B2F956
:104220005040052C40F3D880B2F9523002EB8305A0
:1042300001331BB2052BAE6D6D6F5665C8BF0023F1
:10424000013C1567A2F85230A2F85040D2ED087A2E
:1042500092ED157A37EE877AD2ED047A77EEC77A47
:1042600092ED1C7AC2ED237AD2ED097A37EE877A85
:10427000D2ED057A77EEC77A0023C2ED247A137364
:1042800007EE900AB8EE677A07EE901AF8EE677AB2
:10429000D16B069177EE677A9FED7A7A116C049173
:1042A000C7EE875A0023516CA2F894300291956CA6
:1042B000D16C01930393059307931F46D2ED262AF1
:1042C00092ED273AD2ED283A92ED294A6E4A9FEDB7
:1042D0006F2ADFED6F1ADFED6F4A02F108000090E0
:1042E000A2F11C09A2F1880C02F11004A2F1900EB7
:1042F000A2F180081846A2F1780BA2F1A80A1EB21A
:10430000022E74D0002D6CD05BF8237007EE105A8B
:1043100007EE907AF8EEC76AF8EEE77A87EEA67AAB
:1043200084ED007AD4ED007A22EEA77AB4EEE17A39
:10433000F1EE10FA58D4B4EE647AF1EE10FAC8BF78
:10434000B0EE647A012E84ED007A0DD10021CAF816
:104350003010CAF834103046019602910396049149
:104360000596069107960D46B9EC016AD2ED007AE2
:10437000009E66EE036A26EE235AE5EEA67A013326
:10438000D6ED006AE2EC017AE5EE856A77EE877A8F
:1043900026EE045A9CED006AE4EC017A65EEA77AF9
:1043A000A5EE856AB6EE007AB0EE665AA7EE875A99
:1043B0009EED007AACEC016AA5EE857A76EEA77ADE
:1043C00036EE076AE6EC017A00960126AEEC017A39
:1043D000A8EC016A374692E793695365D36913677E
:1043E00034E784ED002A9DE79FED297AAAE7244B64
:1043F0000FB1A3F89460079A02B19D64059A0AB1BF
:10440000069ADA63039A0AB1049A1A64019A0AB105
:10441000029A5A6400B1D96493F8C0200132D2B232
:10442000092A04D883F8C02009B0BDE8F08F002223
:10443000B3F9505083F8C020B3F85220164CD3F88B
:1044400018E0DF69A8B2111889B20EB2052ECABFF2
:10445000063926802180B4F9001003EB8101052D77
:10446000C1F858E04F6703DC0130A3F85000DBE7E8
:10447000013212B2052AC8BF0022A3F85220D3E7A6
:104480002C10002000247449D410002000000000EB
:10449000000048C40000484416000020F8B5B74C9E
:1044A000D4F8C430013B062B00F2EC80DFE813F0B7
:1044B00007005D009400040120014601CB01B04DCE
:1044C000D4F8C8202B689B1A40F6980293420DD965
:1044D000D4F8CC3043F00803C4F8CC300023C4F83F
:1044E000C4300120BDE8F84006F0BCB9A54FA64E87
:1044F000012006F0B7F93B684B221A715A71D4F8C3
:10450000CC3083F00803C4F8CC30D4F8D030632B1F
:1045100003DC4FF4FA63F380F8BD012006F092F952
:1045200094F8D4206E2332B93A6853714FF47A73F9
:104530007380022307E0012A0BD13A6853714FF4CC
:10454000FA6373800523C4F8C4302B68C4F8D830EC
:10455000F8BD032A3A68137103D14FF47A7333809C
:10456000E7E74FF4FA633380ECE7D4F8CC3001206E
:1045700083F00803C4F8CC3006F064F994F8D42032
:104580007F4B81494FF47A7052B9B4F9DE204880EC
:10459000B2F5E17F07DD0322C4F8C4201B68D5E72C
:1045A000032A088012D00222C4F8C4201B68D4F861
:1045B000D8209B1AB3F5FA6F64D30023C4F8C43033
:1045C000C4F8D830BDE8F84006F010BFB4F9DC10EC
:1045D000B1F5E17FE7DDDFE794F8D4309BB9B4F9BA
:1045E000DE30B3F5E17F4EDDD4F8CC30012083F02E
:1045F0000803C4F8CC3006F025F9634B40F27E4244
:104600005A805F4BD2E7032B3CD1B4F9DC30B3F5D1
:10461000E17F18DDD4F8CC30012083F00803C4F822
:10462000CC3006F00FF9584B4FF483621A80544B8C
:10463000D4F8D8201B689B1AB3F5FA6F22D3002355
:10464000C4F8C43082E79BB2B3F5E17F1AD8B4F85E
:10465000DE30FA339BB2B3F5FA7F13D8D4F8CC30FE
:10466000012043F00803C4F8CC3006F0FBF8464BB9
:104670004FF483621A80424B1B68C4F8D83004237D
:10468000C4F8C430F8BD9BB2B3F5E17FFAD8B4F8F2
:10469000DC30FA339BB2B3F5FA7FF3D8D4F8CC30E0
:1046A000012043F00803C4F8CC3006F0DBF8364BA9
:1046B00040F201425A80DEE7D4F8CC30012043F0CA
:1046C0000803C4F8CC3006F0CDF82F4B4FF4FA6253
:1046D000DA802C4B1B684B225A711A71284BD4F884
:1046E000D8201B689B1A40F2DC529342A7D8C6E739
:1046F000012006F0A7F894F8D420214B2249012A82
:1047000009D14FF4FA624A80B4F9DE2012F5E17F54
:1047100006DA062240E740F2B770022A08800AD083
:104720000522C4F8C4201B68D4F8D8209B1AB3F51E
:10473000FA6F84D2F8BDB4F9DC20E7E794F8D4002E
:10474000012823D1B4F9DE3013F5E17F5FDAD4F824
:10475000CC3083F00803C4F8CC3006F073F80A4B71
:1047600040F23A725A80064BD4F8D8201B689B1A44
:10477000B3F5FA6FBFF463AFF8BD00BF2C10002093
:10478000B8160020D8150020E80E002002287FF47B
:1047900079AFB4F9DC3013F5E17F16DAD4F8CC3018
:1047A000012083F00803C4F8CC3006F04BF8384BF6
:1047B00040F2B7721A80374BD4F8D8201B689B1A86
:1047C000B3F5FA6FBFF43BAFF8BD03F5E1739BB2ED
:1047D000B3F5C87F3FF656AFB4F8DE30FA339BB27C
:1047E000B3F5FA7F3FF64EAFD4F8CC30012043F05A
:1047F0000803C4F8CC3006F035F8254B40F23A7285
:104800001A80244B1B68C4F8D830072338E703F517
:10481000E1739BB2B3F5C87F3FF634AFB4F8DC3038
:10482000FA339BB2B3F5FA7F3FF62CAFD4F8CC3015
:1048300043F00803C4F8CC3006F014F8144B40F2EF
:10484000B7725A80DDE7D4F8CC30012043F008037A
:10485000C4F8CC3006F006F894F8D430012B0C4B99
:104860004FF4FA621CBF4FF4AF611980DA800A4B33
:104870001B684B221A715A71064BD4F8D8201B685A
:104880009B1A40F2DC5293423FF6D9AEBDE700BF1F
:10489000E80E0020B8160020D8150020044A5368FE
:1048A00023B192F90020824200D11847704700BF1F
:1048B00018110020034B1B68DA79511CD97113447D
:1048C000187A7047281F002010B5FFF7F3FF84B255
:1048D000FFF7F0FF04EB002080B210BD064B10B5CF
:1048E00001460446986805F0C3FE044B1B689A799C
:1048F00054409C7110BD00BF18110020281F0020DB
:1049000010B50446C0B2FFF7E9FF200ABDE8104029
:10491000E4E710B5044680B2FFF7F2FF200CBDE8D3
:104920001040EDE72DE9F34188469DF824E0184E4C
:1049300011461A469DF8203005460C240020042814
:1049400007460AD0013004FB006C1CF90CCCAC45C6
:10495000F5D104FB0764208908B1002002E025B1ED
:10496000012D11D002B0BDE8F0810A48CDF800E079
:1049700005F0F4F80028F5D00C2303FB0766057159
:10498000A6F808807060EDE7CDF800E00248EFE798
:10499000FC0F0020003801400044004070B50E4973
:1049A0000E4A0B7B12680025032B05DD05B10B7346
:1049B000002070BD2346F7E702EBC3065C1CB688F7
:1049C0003042E4B24FF00105F4D00C73082002210C
:1049D00010FB0310104470BD18110020381F002078
:1049E000014B00221A73D9E7181100202DE9F0417C
:1049F0001D4D00240A274FF47A7682781FFA82FE32
:104A0000A4EB0E031BB2002B2ADDC2F16402D2B26A
:104A100090F8038003FB03FC08FB0CFCC8F164085E
:104A20000EEB8E0E12FB02F29CFBF2F24244534359
:104A300093FBF7F303EB4E031BB26B800A88B1F8CC
:104A400002E00A34AEEB020EA4B203FB0EF3782CA4
:104A500093FBF6F3134425F8023FCED1BDE8F08175
:104A600008BF0122D4E700BF2411002030B50C4C50
:104A7000002340F6C415072B10D003FB03F2A2F16C
:104A8000190142784A4302F6C41201785A434A4354
:104A900092FBF5F224F813200133ECE730BD00BFA0
:104AA0003E1100200430104B10B533F910200C7863
:104AB00040F633039A42A8BF1A46B2F5617F4FF021
:104AC000190340F28330B8BF4FF4617213FB040442
:104AD000944207DA497813FB01009042B4BF0020EA
:104AE000012010BD002010BDE80E0020034B002265
:104AF00083F834209A639A871A647047181100204B
:104B000070B408B970BCF1E70E4A00230C251146B9
:104B100005FB03F4A65C864209D10B4B186C50B11F
:104B2000224455784278954205DB70BC70470133CA
:104B3000102BEDD1F9E70022214419649A879A637A
:104B4000F3E700BF581601081811002040000C4A76
:104B5000142870B4A8BF1420002302F144010226D7
:104B600014255E540233CC18984204F8015CF8DC3A
:104B70001344FF2283F844200F2070BCC0E700BF1D
:104B80001811002010B50A490A480A68846800BF55
:104B90000B689A42F9D1084BD96D4FF47A7000FB3B
:104BA00001F31B1BB3FBF1F300FB023010BD00BF90
:104BB000B816002010E000E01811002038B50446B7
:104BC000FFF7E0FF0546FFF7DDFF401BA042FAD3E9
:104BD00038BD10B5044604B910BD4FF47A70FFF724
:104BE000EDFF013CF7E72DE987482D4C06460B27E2
:104BF000013FFCD04FF01E0B05254FF0020806F0D8
:104C0000400906F0200A00E00025B9F1000F04D0A9
:104C1000A38A9BB283F48043A382BAF1000F04D02D
:104C2000A38A9BB283F40043A38216F002021FBF43
:104C3000A38A9BB283F40053A38258460192FFF7E4
:104C4000C8FF019AB9F1000F04D0A38A9BB283F484
:104C50008043A382BAF1000F04D0A38A9BB283F4ED
:104C60000043A38222B1A38A9BB283F40053A382A0
:104C70005846FFF7AEFF7DB1013DC6D14FF4FA7043
:104C8000FFF7A7FF4FF0960BB8F1000FBCD14FF420
:104C90007A70FFF79EFFABE708F1FF38F4E700BF3B
:104CA00000080048024A136801331360704700BFD0
:104CB000B81600200920F1E52820EFE506EE901A4D
:104CC000B8EEE66ADFED106A104B9FED117AB3F88B
:104CD000603026EE266AF7EE005AC5EE866A07EEC9
:104CE000903AF8EE677A67EE877A90ED007A76EE82
:104CF000A76A30EE470A87EEA66AA6EE007AB0EE03
:104D0000470A80ED007A7047DB0FC9401811002078
:104D1000BD3786352DE9F74F244D254E254F00240C
:104D200095F86280E0B240450ADA56F820302BB19F
:104D30000B2803DCDB6837F8101098470134EFE7E5
:104D40001D4B1B685B032DD50025194FDFF86CB098
:104D500029464FF0500A4FF028092A46EEB2B045D6
:104D600020DD57F826305C688C4214D02046019232
:104D700003F0FEFDEFF312838AF31288616A09FBE8
:104D800000B001314162616941F001016161DBB252
:104D900083F31188019A57F826301B6801351A6091
:104DA0002146DBE703B0BDE8F08F00BF18110020FB
:104DB00038120020C20F0020E40E0020C816002088
:104DC0002DE9F04FF34BF44CD3F80090D4F868A0E1
:104DD000F24DDFF80884F24FF24E2DED0A8BD145EB
:104DE00083B0B0EE40BADFEDF08ADFEDF09A9FEDD0
:104DF000F09A9FEDF0AA00F01083EF4BC4F8689092
:104E00001A780193DFF8D8B3002A4ED1BBF90230EB
:104E1000D5ED085AD5ED060A07EE903ABBF90430F5
:104E200000EE103AB8EEC07AF8EEE77A95ED070A90
:104E3000BBF9003065EE876AB7EE006AE7EE806A7C
:104E400020EE470AA0EEE06AA7EEA50A60EEE60AA9
:104E500006EE903AF8EEE66AB1EE400AE6EE260A71
:104E60000AF0FEFDDFEDD57AB4EEE70AF1EE10FAB6
:104E7000B0EE401A00F1AD82DFEDD17AB4EE670AF0
:104E8000F1EE10FAC8BFB0EE671ACE4AD2ED010AB1
:104E900092ED000A02F03AFD019BC8ED008A012262
:104EA000C8ED018AC8ED028A1A70BBF90030D5ED51
:104EB00001AAD5ED006A07EE103ABBF9023008EE00
:104EC000103AB8EEC88AB8EEC77ABBF9043068EE7B
:104ED0002AAA07EE903AE7EE26AAF8EEE77AD5ED91
:104EE000026AE7EEA6AAD5ED046AC4ED1BAA28EE75
:104EF000268AD5ED036AA7EE268A95ED057AA7EEF8
:104F0000878A28EE08CA84ED1C8AB0EE4C0AAAEE05
:104F1000AA0A0AF023FECAEE80BAB0EE4C0AABEE43
:104F2000AB0A0AF01BFEDFEDA87AB0EEEB7AB4EE26
:104F3000677AF1EE10FA09DCC8EE00AAB0EEEA7A60
:104F4000B4EE677AF1EE10FA40F36482DFED96AAD0
:104F500097ED010A97ED007AD7ED027AD5ED08BA00
:104F600020EE000AA7EE070AA7EEA70A0AF0F6FD50
:104F7000D5ED097AF4EEE97AF1EE10FAB4EEC90A49
:104F800048BFC5ED099AF1EE10FAB0EE40CA00F143
:104F90002382DFED947AB4EEE70AF1EE10FA00F323
:104FA0001E82C0EE097A6BEEAABA95ED098A94EDDD
:104FB0001E0A6BEEA77A20EE000A27EE888AD4ED4F
:104FC0001D7AA7EEA70A0AF0C9FDF1EE007AB4EE49
:104FD000E70AF1EE10FA9DBFF1EE027A77EEC07AA1
:104FE0009FED7A0ADFED7A7A336898BF67EE807AB0
:104FF000D90768EE277A58BFB2EE007AC8ED027A78
:1050000058BF67EE877AA9EB0A0358BFC8ED027A4A
:1050100007EE903A9FED6F7AF8EE677A67EE877A3F
:10502000B0EE007AF4EEC77AF1EE10FA05D5B4EEE0
:10503000CACAF1EE10FA00F10582D4ED207AB4F874
:105040008430F0EEEAAA7AEEA7AA0133C4ED20AAD2
:10505000A4F88430B4F98630D5ED01BAD5ED006AF4
:10506000D5ED04AA5B4207EE903AB4F988305B4272
:1050700008EE103AB8EEC88AB4F98A30B8EEE77A8A
:1050800068EE2BBA5B4207EE903AE6EE87BAF8EE8E
:10509000E77AD5ED026A68EE2AAAE6EEA7BAD5ED60
:1050A000036AC4ED1DBAE7EE26AAD5ED056AE7EE60
:1050B000A6AAD5ED076AC4ED1EAA28EE268AD5ED6C
:1050C000066AA7EE268A95ED087AA7EE878AD4EDC0
:1050D000237A84ED1F8A3BEE27BADFED3F7A84ED19
:1050E00023BA6AEEA7AA6BEEA7BA6AEEAACA28EE9E
:1050F000278AB0EE6C0AABEEAB0AA8EE080A0AF0FB
:105100002DFD8BEE80CAB0EE6C0AACEE0C0AA8EE58
:10511000080A0AF023FDCAEE80BA2BEEAB0AACEE09
:105120000C0AA8EE080A0AF019FD88EE000AB0EE93
:105130004C8AA0EE288AB0EE6B7A90EE687AD5EDB4
:10514000037AD5ED006AD5ED04AA97ED010A68EE61
:10515000277A68EEEBBAE7EE267AECEE28BAD5EDC0
:10516000066AEBEEA67A68EE2AAAC4ED247AB0EEBF
:1051700067CAD5ED017AE7EE27AAD5ED077AEBEEFF
:10518000A7AAD5ED057AC4ED25AA28EE278AD5ED84
:10519000027A29E0540F0020181100201800002086
:1051A000340F0020F810002000000000CDCC4C3D52
:1051B000F3665F3FC2B8B23E700F00209A9949C0B3
:1051C0009A994940400F0020FFFF7F7FCDCC4C3E95
:1051D000CDCCCC3DBD37863500008039280F00206E
:1051E000580F002058A00B41A7EE278A20EE000A96
:1051F00097ED007AD5ED087AA7EE070AABEEA78AFD
:10520000D7ED027A84ED268AA7EEA70A0AF0A6FC5B
:10521000D5ED0A7AF4EEE97AF1EE10FAB4EEC90AA5
:1052200048BFC5ED0A9AF1EE10FA00F1DB805FEDA0
:10523000137AB4EEE70AF1EE10FA00F3D68080EEAE
:10524000097A864B95ED0A6A2CEE077AB4EEC90A04
:1052500067EE066AF1EE10FAC3ED006A00F1C8804D
:10526000DFED7F7AB4EEE70AF1EE10FA00F3C380C7
:1052700080EE097A2AEE877AB4EEC90A27EE067A1A
:10528000F1EE10FA83ED017A00F1B880DFED747A67
:10529000B4EEE70AF1EE10FA00F3B380C0EE097A3B
:1052A0003268D20768EE277A67EE867AC3ED027A13
:1052B0000DD4B2EE006A66EE866A27EE067A67EED5
:1052C000867AC3ED006A83ED017AC3ED027AB4EE0B
:1052D000CA0AF1EE10FA1FD59FED627AD4ED276A63
:1052E0006CEE077A6AEE87AAEBEE276AD4ED287A8D
:1052F000C4ED276AEBEE2A7A28EE078AC4ED287AF5
:10530000D4ED297AEBEE087AC4ED297AD4ED2A7A25
:1053100037EE8BBA84ED2ABAD4ED2A7AB1EE047A4C
:10532000F4EEC77AF1EE10FA4CDB94ED197A94EDB5
:10533000276A67EE877AB1EE677AB4EEC76AF1EE54
:1053400010FA61D4F4EE467AF1EE10FA48BFB0EEEE
:10535000676AD4ED286AB4EEE67AF1EE10FA56DC0C
:10536000F4EE667AF1EE10FA48BFF0EE676AD4ED1B
:10537000295AB4EEE57AF1EE10FA08DCF4EEE57A9B
:10538000F1EE10FA54BFB0EE657AB0EE677A364BA4
:10539000C4ED278AD3ED007AC4ED288A37EE866AF9
:1053A000D3ED017A83ED006A77EEA66AD3ED027A37
:1053B000C3ED016A37EE877AC4ED298A83ED027A5C
:1053C000C4ED2A8AC4ED238A03B0BDEC0A8BBDE884
:1053D000F08FB0EE671A58E5F7EE007AE3E5F2EEEB
:1053E000047AE0E5B7EE007A2BE7B2EE047A28E71C
:1053F000B7EE007A3EE7B2EE047A3BE7F7EE007ACA
:105400004EE7F2EE047A4BE7B0EE476AA1E7F0EE22
:10541000476AACE7DBEEA8AA9AE59FED147AD8EDCF
:10542000007A67EE877AC8ED007AD8ED017A67EEE8
:10543000877AC8ED017AD8ED027A67EE877AC8EDEF
:10544000027A07E69FED0A7A6BEE87BA94ED297A25
:10545000A7EEAB7A84ED297AEFE500BF1C0F0020A0
:1054600058A00B41728A0E3C100F0020EC51783F7F
:105470000AD7233C10B52F4CD4ED013A94ED046AC1
:1054800094ED003A94ED037A94ED024AD4ED056A66
:1054900063EE867AF6EE005AE3EE077A8AB021468A
:1054A000B0EE635AE4EE267A07A8F0EE444A67EEBF
:1054B000A57AF0EE435AA6EE675AE6EEE74AA3EE67
:1054C000E76AE4EE676AE7EE675ACDED066AA3EE97
:1054D000677AF0EE667A66EE646A8DED047AE5EE40
:1054E000276A67EEE57ACDED075AE4EE877A27EE74
:1054F000457A8DED085AA5EE867ACDED094A8DEDF7
:10550000056ACDED016ACDED027A8DED037A02F0E8
:10551000A3F958B104F10C0104A802F09DF928B1D7
:1055200004F1180101A802F097F908B9FDF752FD3E
:105530000AB010BD18000020024A136C01330B445E
:1055400013647047D4110020324A136C90681944D8
:10555000081A40F68C23984270B513469160D060CB
:1055600051603BD9117892F94520914221D10A1F0F
:10557000082A1ED893F84620182A03DC013283F843
:10558000462001E083F8441093F9442091421DD154
:1055900093F84700D0B1204C002004F13C05824232
:1055A00009DC1E4800240B2A0BDC20F812400132D3
:1055B000F9E70022E3E754F8046F25F810600130A2
:1055C000EDE793F86020013283F86020012283F830
:1055D0004720002283F845101A7070BD92F84710DA
:1055E000B9B1A0F2EF2440F2DA518C4208D8117818
:1055F0000B2905DC0B1D0131117042F8230070BD31
:10560000002283F84720104699180432302A086196
:10561000FAD170BDD4110020E01100201C1200202E
:10562000034B03EB8000436E1B681960704700BF9B
:10563000D4110020074B03EB8000436EA1F57A7074
:105640001A6819894FF47A73414391FBF3F11160A1
:10565000704700BFD411002013B5012204466B46E9
:1056600002210C2004F030F810B9002002B010BD67
:105670009DF80030DA07F8D56B46072203210C208D
:1056800004F022F80028F0D09DF806309B07ECD1FA
:105690009DF801209DF800309DF8031043EA022395
:1056A0001BB21D4A07EE903A92ED007AF8EEE77AC7
:1056B0000C2067EE877A92ED017AFDEEE77A17EE1D
:1056C000903A23809DF8023043EA01231BB207EE93
:1056D000903AF8EEE77A9DF8051067EE877A92ED3A
:1056E000027AFDEEE77A012217EE903A63809DF888
:1056F000043043EA01231BB207EE903AF8EEE77A52
:105700000A2167EE877AFDEEE77A17EE903AA380DA
:1057100004F0CCF8AAE700BF44000020F0B5046D07
:105720008668236823F0010323608379054613F01C
:10573000020F407914BF4FF40052002213F0040FFF
:1057400014BF4FF48067002710F0010F14BF04212D
:1057500000218307206820F001002060606820F4A9
:10576000405042EA00026260236823F4B05323F001
:105770000C0348BF41F008013B430B432360A3687F
:1057800095B023F44073A360684603F00DFB284BEB
:105790009C4239D10C9A23681F0448BF5200B2FBC7
:1057A000F6F306FB1322B2EB560F226828BF013333
:1057B000160406D5C3F3420223F00F031B041B0C8F
:1057C00013439BB2A3816B79A87913F0020F0CBF2E
:1057D00000224FF4003200F00101DC0748BF42F420
:1057E00080322B6D01B359680A435A609A680107E9
:1057F0004CBF42F0080222F008029A601A6842F098
:1058000001021A6015B0F0BD0A4B9C4201D10D9AFD
:10581000C1E7094B9C4201D10E9ABCE7074B9C4261
:105820000CBF0F9A109AB6E7596821EA0202DCE72A
:10583000003801400044004000480040004C004057
:10584000012803D023D3022812D07047174A19B970
:105850004FF4004393617047012903D14FF4004393
:1058600013857047938A9BB283F4004393827047F9
:105870000E4A11B94FF48043ECE7012902D14FF4ED
:105880008043EDE7938A9BB283F48043EEE7074AB7
:1058900011B94FF40053DDE7012902D14FF4005351
:1058A000DEE7938A9BB283F40053DFE700080048E9
:1058B000F7B506460D46002401272A8807FA04F3A7
:1058C0001A421AD0AA78009302F003038DF804302C
:1058D000EB78022B03D0032B0CBF032301238DF89D
:1058E00005306946C2F301133046C2F381028DF8D8
:1058F00006308DF8072004F071FE0134102CDCD145
:1059000003B0F0BD2DE9F743DFF81C9299F89440FD
:105910000746154600680A4698462946631C89F8DA
:10592000943002F0D7FF3B89ADF8043001A902237F
:1059300078688DF806308DF80730FFF7B9FF97F8D3
:105940000AE03A6809F1980606EB04164946BEF1EA
:105950000C0F36D8DFE80EF00735353557353535BD
:1059600082353535AC00136ADFF8C09123F00103AE
:105970001362136AD2F804C0906920F4803020F0DA
:1059800073004A4540F0700034D009F500694A457B
:1059900030D009F540694A452CD009F580694A455F
:1059A00028D009F580694A4524D043F00303C2F8A2
:1059B00004C09061C2F834801362936943F0080315
:1059C00093613B7B1BB1536C43F4004353641388D6
:1059D0009BB243F0010313802301BEF10C0F00F2D0
:1059E0008E80DFE80EF0878C8C8C958C8C8C998C5B
:1059F0008C8C9D0023F00E032CF4407C43F00303B9
:105A00004CF4807CD3E7136ADFF8209123F0100375
:105A10001362136AD2F804C0906920F0807020F4F9
:105A2000E6404A4540F4E0400FD009F500694A4598
:105A30000BD043F03003C2F804C09061C2F8388044
:105A40001362936943F40063BAE723F0E0032CF494
:105A5000406C43F030034CF4806CECE7136ADFF8E1
:105A6000CC9023F480731362106AD2F804C0D36917
:105A70004A4523F0730343F0700310D009F5006921
:105A80004A450CD040F44070C2F804C0D361C2F85B
:105A90003C801062D36943F00803D36191E720F49E
:105AA00060602CF4405C40F440704CF4805CEBE7A8
:105AB000136ADFF8789023F480531362106AD2F8E7
:105AC00004C0D3694A4523F4E64343F4E04340F479
:105AD000405003D009F500694A4501D14CF4804C8F
:105AE000C2F804C0D361C2F840801062D36943F4A5
:105AF0000063D2E7C81802F13404C0F89840194492
:105B00003046A1F8A050C1F89C2003B0BDE8F08356
